{
	"tipjar_edit.sol": {
		"tips": {
			"abi": [
				{
					"inputs": [],
					"stateMutability": "nonpayable",
					"type": "constructor"
				},
				{
					"inputs": [
						{
							"internalType": "address payable",
							"name": "walletAddress",
							"type": "address"
						},
						{
							"internalType": "string",
							"name": "name",
							"type": "string"
						},
						{
							"internalType": "uint256",
							"name": "percent",
							"type": "uint256"
						}
					],
					"name": "addWaitress",
					"outputs": [],
					"stateMutability": "nonpayable",
					"type": "function"
				},
				{
					"inputs": [],
					"name": "addtips",
					"outputs": [],
					"stateMutability": "payable",
					"type": "function"
				},
				{
					"inputs": [],
					"name": "distributeBalance",
					"outputs": [],
					"stateMutability": "nonpayable",
					"type": "function"
				},
				{
					"inputs": [
						{
							"internalType": "address",
							"name": "walletAddress",
							"type": "address"
						}
					],
					"name": "removeWaitress",
					"outputs": [],
					"stateMutability": "nonpayable",
					"type": "function"
				},
				{
					"inputs": [],
					"name": "viewWaitress",
					"outputs": [
						{
							"components": [
								{
									"internalType": "address payable",
									"name": "walletAddress",
									"type": "address"
								},
								{
									"internalType": "string",
									"name": "name",
									"type": "string"
								},
								{
									"internalType": "uint256",
									"name": "percent",
									"type": "uint256"
								}
							],
							"internalType": "struct tips.Waitress[]",
							"name": "",
							"type": "tuple[]"
						}
					],
					"stateMutability": "view",
					"type": "function"
				},
				{
					"inputs": [],
					"name": "viewtips",
					"outputs": [
						{
							"internalType": "uint256",
							"name": "",
							"type": "uint256"
						}
					],
					"stateMutability": "view",
					"type": "function"
				}
			],
			"devdoc": {
				"kind": "dev",
				"methods": {},
				"version": 1
			},
			"evm": {
				"assembly": "    /* \"tipjar_edit.sol\":60:3098  contract tips {... */\n  mstore(0x40, 0x80)\n    /* \"tipjar_edit.sol\":316:367  constructor() {... */\n  callvalue\n  dup1\n  iszero\n  tag_1\n  jumpi\n  revert(0x00, 0x00)\ntag_1:\n  pop\n    /* \"tipjar_edit.sol\":349:359  msg.sender */\n  caller\n    /* \"tipjar_edit.sol\":341:346  owner */\n  0x00\n  0x00\n    /* \"tipjar_edit.sol\":341:359  owner = msg.sender */\n  0x0100\n  exp\n  dup2\n  sload\n  dup2\n  0xffffffffffffffffffffffffffffffffffffffff\n  mul\n  not\n  and\n  swap1\n  dup4\n  0xffffffffffffffffffffffffffffffffffffffff\n  and\n  mul\n  or\n  swap1\n  sstore\n  pop\n    /* \"tipjar_edit.sol\":60:3098  contract tips {... */\n  dataSize(sub_0)\n  dup1\n  dataOffset(sub_0)\n  0x00\n  codecopy\n  0x00\n  return\nstop\n\nsub_0: assembly {\n        /* \"tipjar_edit.sol\":60:3098  contract tips {... */\n      mstore(0x40, 0x80)\n      jumpi(tag_1, lt(calldatasize, 0x04))\n      shr(0xe0, calldataload(0x00))\n      dup1\n      0x2a08deda\n      eq\n      tag_2\n      jumpi\n      dup1\n      0x369a489d\n      eq\n      tag_3\n      jumpi\n      dup1\n      0x6e7301fd\n      eq\n      tag_4\n      jumpi\n      dup1\n      0x7943da69\n      eq\n      tag_5\n      jumpi\n      dup1\n      0xb499b79a\n      eq\n      tag_6\n      jumpi\n      dup1\n      0xe83a1b00\n      eq\n      tag_7\n      jumpi\n    tag_1:\n      revert(0x00, 0x00)\n        /* \"tipjar_edit.sol\":806:900  function viewtips() public view returns (uint) {... */\n    tag_2:\n      callvalue\n      dup1\n      iszero\n      tag_8\n      jumpi\n      revert(0x00, 0x00)\n    tag_8:\n      pop\n      tag_9\n      tag_10\n      jump\t// in\n    tag_9:\n      mload(0x40)\n      tag_11\n      swap2\n      swap1\n      tag_12\n      jump\t// in\n    tag_11:\n      mload(0x40)\n      dup1\n      swap2\n      sub\n      swap1\n      return\n        /* \"tipjar_edit.sol\":1920:2385  function removeWaitress(address walletAddress) public onlyOwner {... */\n    tag_3:\n      callvalue\n      dup1\n      iszero\n      tag_13\n      jumpi\n      revert(0x00, 0x00)\n    tag_13:\n      pop\n      tag_14\n      0x04\n      dup1\n      calldatasize\n      sub\n      dup2\n      add\n      swap1\n      tag_15\n      swap2\n      swap1\n      tag_16\n      jump\t// in\n    tag_15:\n      tag_17\n      jump\t// in\n    tag_14:\n      stop\n        /* \"tipjar_edit.sol\":762:798  function addtips() public payable {} */\n    tag_4:\n      tag_18\n      tag_19\n      jump\t// in\n    tag_18:\n      stop\n        /* \"tipjar_edit.sol\":2393:2896  function distributeBalance() public {... */\n    tag_5:\n      callvalue\n      dup1\n      iszero\n      tag_20\n      jumpi\n      revert(0x00, 0x00)\n    tag_20:\n      pop\n      tag_21\n      tag_22\n      jump\t// in\n    tag_21:\n      stop\n        /* \"tipjar_edit.sol\":1210:1912  function addWaitress(... */\n    tag_6:\n      callvalue\n      dup1\n      iszero\n      tag_23\n      jumpi\n      revert(0x00, 0x00)\n    tag_23:\n      pop\n      tag_24\n      0x04\n      dup1\n      calldatasize\n      sub\n      dup2\n      add\n      swap1\n      tag_25\n      swap2\n      swap1\n      tag_26\n      jump\t// in\n    tag_25:\n      tag_27\n      jump\t// in\n    tag_24:\n      stop\n        /* \"tipjar_edit.sol\":1104:1202  function viewWaitress() public view returns (Waitress[] memory) {... */\n    tag_7:\n      callvalue\n      dup1\n      iszero\n      tag_28\n      jumpi\n      revert(0x00, 0x00)\n    tag_28:\n      pop\n      tag_29\n      tag_30\n      jump\t// in\n    tag_29:\n      mload(0x40)\n      tag_31\n      swap2\n      swap1\n      tag_32\n      jump\t// in\n    tag_31:\n      mload(0x40)\n      dup1\n      swap2\n      sub\n      swap1\n      return\n        /* \"tipjar_edit.sol\":806:900  function viewtips() public view returns (uint) {... */\n    tag_10:\n        /* \"tipjar_edit.sol\":847:851  uint */\n      0x00\n        /* \"tipjar_edit.sol\":871:892  address(this).balance */\n      selfbalance\n        /* \"tipjar_edit.sol\":864:892  return address(this).balance */\n      swap1\n      pop\n        /* \"tipjar_edit.sol\":806:900  function viewtips() public view returns (uint) {... */\n      swap1\n      jump\t// out\n        /* \"tipjar_edit.sol\":1920:2385  function removeWaitress(address walletAddress) public onlyOwner {... */\n    tag_17:\n        /* \"tipjar_edit.sol\":704:709  owner */\n      0x00\n      0x00\n      swap1\n      sload\n      swap1\n      0x0100\n      exp\n      swap1\n      div\n      0xffffffffffffffffffffffffffffffffffffffff\n      and\n        /* \"tipjar_edit.sol\":690:709  msg.sender == owner */\n      0xffffffffffffffffffffffffffffffffffffffff\n      and\n        /* \"tipjar_edit.sol\":690:700  msg.sender */\n      caller\n        /* \"tipjar_edit.sol\":690:709  msg.sender == owner */\n      0xffffffffffffffffffffffffffffffffffffffff\n      and\n      eq\n        /* \"tipjar_edit.sol\":682:733  require(msg.sender == owner, \"Only owner can call\") */\n      tag_35\n      jumpi\n      mload(0x40)\n      0x08c379a000000000000000000000000000000000000000000000000000000000\n      dup2\n      mstore\n      0x04\n      add\n      tag_36\n      swap1\n      tag_37\n      jump\t// in\n    tag_36:\n      mload(0x40)\n      dup1\n      swap2\n      sub\n      swap1\n      revert\n    tag_35:\n        /* \"tipjar_edit.sol\":2000:2006  uint i */\n      0x00\n        /* \"tipjar_edit.sol\":2009:2010  0 */\n      0x00\n        /* \"tipjar_edit.sol\":2000:2010  uint i = 0 */\n      swap1\n      pop\n        /* \"tipjar_edit.sol\":1995:2378  for (uint i = 0; i < waitress.length; i++) {... */\n    tag_39:\n        /* \"tipjar_edit.sol\":2016:2024  waitress */\n      0x02\n        /* \"tipjar_edit.sol\":2016:2031  waitress.length */\n      dup1\n      sload\n      swap1\n      pop\n        /* \"tipjar_edit.sol\":2012:2013  i */\n      dup2\n        /* \"tipjar_edit.sol\":2012:2031  i < waitress.length */\n      lt\n        /* \"tipjar_edit.sol\":1995:2378  for (uint i = 0; i < waitress.length; i++) {... */\n      iszero\n      tag_40\n      jumpi\n        /* \"tipjar_edit.sol\":2086:2099  walletAddress */\n      dup2\n        /* \"tipjar_edit.sol\":2057:2099  waitress[i].walletAddress == walletAddress */\n      0xffffffffffffffffffffffffffffffffffffffff\n      and\n        /* \"tipjar_edit.sol\":2057:2065  waitress */\n      0x02\n        /* \"tipjar_edit.sol\":2066:2067  i */\n      dup3\n        /* \"tipjar_edit.sol\":2057:2068  waitress[i] */\n      dup2\n      sload\n      dup2\n      lt\n      tag_42\n      jumpi\n      tag_43\n      tag_44\n      jump\t// in\n    tag_43:\n    tag_42:\n      swap1\n      0x00\n      mstore\n      keccak256(0x00, 0x20)\n      swap1\n      0x03\n      mul\n      add\n        /* \"tipjar_edit.sol\":2057:2082  waitress[i].walletAddress */\n      0x00\n      add\n      0x00\n      swap1\n      sload\n      swap1\n      0x0100\n      exp\n      swap1\n      div\n      0xffffffffffffffffffffffffffffffffffffffff\n      and\n        /* \"tipjar_edit.sol\":2057:2099  waitress[i].walletAddress == walletAddress */\n      0xffffffffffffffffffffffffffffffffffffffff\n      and\n      sub\n        /* \"tipjar_edit.sol\":2053:2367  if (waitress[i].walletAddress == walletAddress) {... */\n      tag_46\n      jumpi\n        /* \"tipjar_edit.sol\":2136:2144  waitress */\n      0x02\n        /* \"tipjar_edit.sol\":2145:2146  i */\n      dup2\n        /* \"tipjar_edit.sol\":2136:2147  waitress[i] */\n      dup2\n      sload\n      dup2\n      lt\n      tag_47\n      jumpi\n      tag_48\n      tag_44\n      jump\t// in\n    tag_48:\n    tag_47:\n      swap1\n      0x00\n      mstore\n      keccak256(0x00, 0x20)\n      swap1\n      0x03\n      mul\n      add\n        /* \"tipjar_edit.sol\":2136:2155  waitress[i].percent */\n      0x02\n      add\n      sload\n        /* \"tipjar_edit.sol\":2120:2132  totalPercent */\n      0x01\n      0x00\n        /* \"tipjar_edit.sol\":2120:2155  totalPercent -= waitress[i].percent */\n      dup3\n      dup3\n      sload\n      tag_50\n      swap2\n      swap1\n      tag_51\n      jump\t// in\n    tag_50:\n      swap3\n      pop\n      pop\n      dup2\n      swap1\n      sstore\n      pop\n        /* \"tipjar_edit.sol\":2181:2187  uint j */\n      0x00\n        /* \"tipjar_edit.sol\":2190:2191  i */\n      dup2\n        /* \"tipjar_edit.sol\":2181:2191  uint j = i */\n      swap1\n      pop\n        /* \"tipjar_edit.sol\":2176:2295  for (uint j = i; j < waitress.length - 1; j++) {... */\n    tag_52:\n        /* \"tipjar_edit.sol\":2215:2216  1 */\n      0x01\n        /* \"tipjar_edit.sol\":2197:2205  waitress */\n      0x02\n        /* \"tipjar_edit.sol\":2197:2212  waitress.length */\n      dup1\n      sload\n      swap1\n      pop\n        /* \"tipjar_edit.sol\":2197:2216  waitress.length - 1 */\n      tag_55\n      swap2\n      swap1\n      tag_51\n      jump\t// in\n    tag_55:\n        /* \"tipjar_edit.sol\":2193:2194  j */\n      dup2\n        /* \"tipjar_edit.sol\":2193:2216  j < waitress.length - 1 */\n      lt\n        /* \"tipjar_edit.sol\":2176:2295  for (uint j = i; j < waitress.length - 1; j++) {... */\n      iszero\n      tag_53\n      jumpi\n        /* \"tipjar_edit.sol\":2260:2268  waitress */\n      0x02\n        /* \"tipjar_edit.sol\":2273:2274  1 */\n      0x01\n        /* \"tipjar_edit.sol\":2269:2270  j */\n      dup3\n        /* \"tipjar_edit.sol\":2269:2274  j + 1 */\n      tag_56\n      swap2\n      swap1\n      tag_57\n      jump\t// in\n    tag_56:\n        /* \"tipjar_edit.sol\":2260:2275  waitress[j + 1] */\n      dup2\n      sload\n      dup2\n      lt\n      tag_58\n      jumpi\n      tag_59\n      tag_44\n      jump\t// in\n    tag_59:\n    tag_58:\n      swap1\n      0x00\n      mstore\n      keccak256(0x00, 0x20)\n      swap1\n      0x03\n      mul\n      add\n        /* \"tipjar_edit.sol\":2246:2254  waitress */\n      0x02\n        /* \"tipjar_edit.sol\":2255:2256  j */\n      dup3\n        /* \"tipjar_edit.sol\":2246:2257  waitress[j] */\n      dup2\n      sload\n      dup2\n      lt\n      tag_61\n      jumpi\n      tag_62\n      tag_44\n      jump\t// in\n    tag_62:\n    tag_61:\n      swap1\n      0x00\n      mstore\n      keccak256(0x00, 0x20)\n      swap1\n      0x03\n      mul\n      add\n        /* \"tipjar_edit.sol\":2246:2275  waitress[j] = waitress[j + 1] */\n      0x00\n      dup3\n      add\n      0x00\n      swap1\n      sload\n      swap1\n      0x0100\n      exp\n      swap1\n      div\n      0xffffffffffffffffffffffffffffffffffffffff\n      and\n      dup2\n      0x00\n      add\n      exp(0x0100, 0x00)\n      dup2\n      sload\n      dup2\n      0xffffffffffffffffffffffffffffffffffffffff\n      mul\n      not\n      and\n      swap1\n      dup4\n      0xffffffffffffffffffffffffffffffffffffffff\n      and\n      mul\n      or\n      swap1\n      sstore\n      pop\n      0x01\n      dup3\n      add\n      dup2\n      0x01\n      add\n      swap1\n      dup2\n      tag_64\n      swap2\n      swap1\n      tag_65\n      jump\t// in\n    tag_64:\n      pop\n      0x02\n      dup3\n      add\n      sload\n      dup2\n      0x02\n      add\n      sstore\n      swap1\n      pop\n      pop\n        /* \"tipjar_edit.sol\":2218:2221  j++ */\n      dup1\n      dup1\n      0x01\n      add\n      swap2\n      pop\n      pop\n        /* \"tipjar_edit.sol\":2176:2295  for (uint j = i; j < waitress.length - 1; j++) {... */\n      jump(tag_52)\n    tag_53:\n      pop\n        /* \"tipjar_edit.sol\":2313:2321  waitress */\n      0x02\n        /* \"tipjar_edit.sol\":2313:2327  waitress.pop() */\n      dup1\n      sload\n      dup1\n      tag_66\n      jumpi\n      tag_67\n      tag_68\n      jump\t// in\n    tag_67:\n    tag_66:\n      0x01\n      swap1\n      sub\n      dup2\n      dup2\n      swap1\n      0x00\n      mstore\n      keccak256(0x00, 0x20)\n      swap1\n      0x03\n      mul\n      add\n      0x00\n      0x00\n      dup3\n      add\n      exp(0x0100, 0x00)\n      dup2\n      sload\n      swap1\n      0xffffffffffffffffffffffffffffffffffffffff\n      mul\n      not\n      and\n      swap1\n      sstore\n      0x01\n      dup3\n      add\n      0x00\n      tag_70\n      swap2\n      swap1\n      tag_71\n      jump\t// in\n    tag_70:\n      0x02\n      dup3\n      add\n      0x00\n      swap1\n      sstore\n      pop\n      pop\n      swap1\n      sstore\n        /* \"tipjar_edit.sol\":2346:2351  break */\n      jump(tag_40)\n        /* \"tipjar_edit.sol\":2053:2367  if (waitress[i].walletAddress == walletAddress) {... */\n    tag_46:\n        /* \"tipjar_edit.sol\":2033:2036  i++ */\n      dup1\n      dup1\n      0x01\n      add\n      swap2\n      pop\n      pop\n        /* \"tipjar_edit.sol\":1995:2378  for (uint i = 0; i < waitress.length; i++) {... */\n      jump(tag_39)\n    tag_40:\n      pop\n        /* \"tipjar_edit.sol\":1920:2385  function removeWaitress(address walletAddress) public onlyOwner {... */\n      pop\n      jump\t// out\n        /* \"tipjar_edit.sol\":762:798  function addtips() public payable {} */\n    tag_19:\n      jump\t// out\n        /* \"tipjar_edit.sol\":2393:2896  function distributeBalance() public {... */\n    tag_22:\n        /* \"tipjar_edit.sol\":2472:2473  0 */\n      0x00\n        /* \"tipjar_edit.sol\":2448:2469  address(this).balance */\n      selfbalance\n        /* \"tipjar_edit.sol\":2448:2473  address(this).balance > 0 */\n      gt\n        /* \"tipjar_edit.sol\":2440:2486  require(address(this).balance > 0, \"No Money\") */\n      tag_74\n      jumpi\n      mload(0x40)\n      0x08c379a000000000000000000000000000000000000000000000000000000000\n      dup2\n      mstore\n      0x04\n      add\n      tag_75\n      swap1\n      tag_76\n      jump\t// in\n    tag_75:\n      mload(0x40)\n      dup1\n      swap2\n      sub\n      swap1\n      revert\n    tag_74:\n        /* \"tipjar_edit.sol\":2523:2524  0 */\n      0x00\n        /* \"tipjar_edit.sol\":2505:2513  waitress */\n      0x02\n        /* \"tipjar_edit.sol\":2505:2520  waitress.length */\n      dup1\n      sload\n      swap1\n      pop\n        /* \"tipjar_edit.sol\":2505:2524  waitress.length > 0 */\n      gt\n        /* \"tipjar_edit.sol\":2497:2546  require(waitress.length > 0, \"No Waitress added\") */\n      tag_77\n      jumpi\n      mload(0x40)\n      0x08c379a000000000000000000000000000000000000000000000000000000000\n      dup2\n      mstore\n      0x04\n      add\n      tag_78\n      swap1\n      tag_79\n      jump\t// in\n    tag_78:\n      mload(0x40)\n      dup1\n      swap2\n      sub\n      swap1\n      revert\n    tag_77:\n        /* \"tipjar_edit.sol\":2559:2575  uint totalAmount */\n      0x00\n        /* \"tipjar_edit.sol\":2578:2599  address(this).balance */\n      selfbalance\n        /* \"tipjar_edit.sol\":2559:2599  uint totalAmount = address(this).balance */\n      swap1\n      pop\n        /* \"tipjar_edit.sol\":2625:2631  uint j */\n      0x00\n        /* \"tipjar_edit.sol\":2634:2635  0 */\n      0x00\n        /* \"tipjar_edit.sol\":2625:2635  uint j = 0 */\n      swap1\n      pop\n        /* \"tipjar_edit.sol\":2620:2889  for (uint j = 0; j < waitress.length; j++) {... */\n    tag_80:\n        /* \"tipjar_edit.sol\":2641:2649  waitress */\n      0x02\n        /* \"tipjar_edit.sol\":2641:2656  waitress.length */\n      dup1\n      sload\n      swap1\n      pop\n        /* \"tipjar_edit.sol\":2637:2638  j */\n      dup2\n        /* \"tipjar_edit.sol\":2637:2656  j < waitress.length */\n      lt\n        /* \"tipjar_edit.sol\":2620:2889  for (uint j = 0; j < waitress.length; j++) {... */\n      iszero\n      tag_81\n      jumpi\n        /* \"tipjar_edit.sol\":2678:2699  uint distributeAmount */\n      0x00\n        /* \"tipjar_edit.sol\":2740:2743  100 */\n      0x64\n        /* \"tipjar_edit.sol\":2717:2725  waitress */\n      0x02\n        /* \"tipjar_edit.sol\":2726:2727  j */\n      dup4\n        /* \"tipjar_edit.sol\":2717:2728  waitress[j] */\n      dup2\n      sload\n      dup2\n      lt\n      tag_83\n      jumpi\n      tag_84\n      tag_44\n      jump\t// in\n    tag_84:\n    tag_83:\n      swap1\n      0x00\n      mstore\n      keccak256(0x00, 0x20)\n      swap1\n      0x03\n      mul\n      add\n        /* \"tipjar_edit.sol\":2717:2736  waitress[j].percent */\n      0x02\n      add\n      sload\n        /* \"tipjar_edit.sol\":2703:2714  totalAmount */\n      dup5\n        /* \"tipjar_edit.sol\":2703:2736  totalAmount * waitress[j].percent */\n      tag_86\n      swap2\n      swap1\n      tag_87\n      jump\t// in\n    tag_86:\n        /* \"tipjar_edit.sol\":2702:2743  (totalAmount * waitress[j].percent) / 100 */\n      tag_88\n      swap2\n      swap1\n      tag_89\n      jump\t// in\n    tag_88:\n        /* \"tipjar_edit.sol\":2678:2743  uint distributeAmount = (totalAmount * waitress[j].percent) / 100 */\n      swap1\n      pop\n        /* \"tipjar_edit.sol\":2781:2782  0 */\n      0x00\n        /* \"tipjar_edit.sol\":2762:2778  distributeAmount */\n      dup2\n        /* \"tipjar_edit.sol\":2762:2782  distributeAmount > 0 */\n      gt\n        /* \"tipjar_edit.sol\":2758:2878  if (distributeAmount > 0) {... */\n      iszero\n      tag_90\n      jumpi\n        /* \"tipjar_edit.sol\":2803:2862  _transferFunds(waitress[j].walletAddress, distributeAmount) */\n      tag_91\n        /* \"tipjar_edit.sol\":2818:2826  waitress */\n      0x02\n        /* \"tipjar_edit.sol\":2827:2828  j */\n      dup4\n        /* \"tipjar_edit.sol\":2818:2829  waitress[j] */\n      dup2\n      sload\n      dup2\n      lt\n      tag_92\n      jumpi\n      tag_93\n      tag_44\n      jump\t// in\n    tag_93:\n    tag_92:\n      swap1\n      0x00\n      mstore\n      keccak256(0x00, 0x20)\n      swap1\n      0x03\n      mul\n      add\n        /* \"tipjar_edit.sol\":2818:2843  waitress[j].walletAddress */\n      0x00\n      add\n      0x00\n      swap1\n      sload\n      swap1\n      0x0100\n      exp\n      swap1\n      div\n      0xffffffffffffffffffffffffffffffffffffffff\n      and\n        /* \"tipjar_edit.sol\":2845:2861  distributeAmount */\n      dup3\n        /* \"tipjar_edit.sol\":2803:2817  _transferFunds */\n      tag_95\n        /* \"tipjar_edit.sol\":2803:2862  _transferFunds(waitress[j].walletAddress, distributeAmount) */\n      jump\t// in\n    tag_91:\n        /* \"tipjar_edit.sol\":2758:2878  if (distributeAmount > 0) {... */\n    tag_90:\n        /* \"tipjar_edit.sol\":2663:2889  {... */\n      pop\n        /* \"tipjar_edit.sol\":2658:2661  j++ */\n      dup1\n      dup1\n      0x01\n      add\n      swap2\n      pop\n      pop\n        /* \"tipjar_edit.sol\":2620:2889  for (uint j = 0; j < waitress.length; j++) {... */\n      jump(tag_80)\n    tag_81:\n      pop\n        /* \"tipjar_edit.sol\":2429:2896  {... */\n      pop\n        /* \"tipjar_edit.sol\":2393:2896  function distributeBalance() public {... */\n      jump\t// out\n        /* \"tipjar_edit.sol\":1210:1912  function addWaitress(... */\n    tag_27:\n        /* \"tipjar_edit.sol\":704:709  owner */\n      0x00\n      0x00\n      swap1\n      sload\n      swap1\n      0x0100\n      exp\n      swap1\n      div\n      0xffffffffffffffffffffffffffffffffffffffff\n      and\n        /* \"tipjar_edit.sol\":690:709  msg.sender == owner */\n      0xffffffffffffffffffffffffffffffffffffffff\n      and\n        /* \"tipjar_edit.sol\":690:700  msg.sender */\n      caller\n        /* \"tipjar_edit.sol\":690:709  msg.sender == owner */\n      0xffffffffffffffffffffffffffffffffffffffff\n      and\n      eq\n        /* \"tipjar_edit.sol\":682:733  require(msg.sender == owner, \"Only owner can call\") */\n      tag_97\n      jumpi\n      mload(0x40)\n      0x08c379a000000000000000000000000000000000000000000000000000000000\n      dup2\n      mstore\n      0x04\n      add\n      tag_98\n      swap1\n      tag_37\n      jump\t// in\n    tag_98:\n      mload(0x40)\n      dup1\n      swap2\n      sub\n      swap1\n      revert\n    tag_97:\n        /* \"tipjar_edit.sol\":1392:1395  100 */\n      0x64\n        /* \"tipjar_edit.sol\":1381:1388  percent */\n      dup2\n        /* \"tipjar_edit.sol\":1366:1378  totalPercent */\n      sload(0x01)\n        /* \"tipjar_edit.sol\":1366:1388  totalPercent + percent */\n      tag_100\n      swap2\n      swap1\n      tag_57\n      jump\t// in\n    tag_100:\n        /* \"tipjar_edit.sol\":1366:1395  totalPercent + percent <= 100 */\n      gt\n      iszero\n        /* \"tipjar_edit.sol\":1358:1435  require(totalPercent + percent <= 100, \"Total percentage cannot exceed 100%\") */\n      tag_101\n      jumpi\n      mload(0x40)\n      0x08c379a000000000000000000000000000000000000000000000000000000000\n      dup2\n      mstore\n      0x04\n      add\n      tag_102\n      swap1\n      tag_103\n      jump\t// in\n    tag_102:\n      mload(0x40)\n      dup1\n      swap2\n      sub\n      swap1\n      revert\n    tag_101:\n        /* \"tipjar_edit.sol\":1448:1466  bool waitressExist */\n      0x00\n        /* \"tipjar_edit.sol\":1469:1474  false */\n      0x00\n        /* \"tipjar_edit.sol\":1448:1474  bool waitressExist = false */\n      swap1\n      pop\n        /* \"tipjar_edit.sol\":1490:1496  uint i */\n      0x00\n        /* \"tipjar_edit.sol\":1499:1500  0 */\n      0x00\n        /* \"tipjar_edit.sol\":1490:1500  uint i = 0 */\n      swap1\n      pop\n        /* \"tipjar_edit.sol\":1485:1681  for (uint i = 0; i < waitress.length; i++) {... */\n    tag_104:\n        /* \"tipjar_edit.sol\":1506:1514  waitress */\n      0x02\n        /* \"tipjar_edit.sol\":1506:1521  waitress.length */\n      dup1\n      sload\n      swap1\n      pop\n        /* \"tipjar_edit.sol\":1502:1503  i */\n      dup2\n        /* \"tipjar_edit.sol\":1502:1521  i < waitress.length */\n      lt\n        /* \"tipjar_edit.sol\":1485:1681  for (uint i = 0; i < waitress.length; i++) {... */\n      iszero\n      tag_105\n      jumpi\n        /* \"tipjar_edit.sol\":1576:1589  walletAddress */\n      dup5\n        /* \"tipjar_edit.sol\":1547:1589  waitress[i].walletAddress == walletAddress */\n      0xffffffffffffffffffffffffffffffffffffffff\n      and\n        /* \"tipjar_edit.sol\":1547:1555  waitress */\n      0x02\n        /* \"tipjar_edit.sol\":1556:1557  i */\n      dup3\n        /* \"tipjar_edit.sol\":1547:1558  waitress[i] */\n      dup2\n      sload\n      dup2\n      lt\n      tag_107\n      jumpi\n      tag_108\n      tag_44\n      jump\t// in\n    tag_108:\n    tag_107:\n      swap1\n      0x00\n      mstore\n      keccak256(0x00, 0x20)\n      swap1\n      0x03\n      mul\n      add\n        /* \"tipjar_edit.sol\":1547:1572  waitress[i].walletAddress */\n      0x00\n      add\n      0x00\n      swap1\n      sload\n      swap1\n      0x0100\n      exp\n      swap1\n      div\n      0xffffffffffffffffffffffffffffffffffffffff\n      and\n        /* \"tipjar_edit.sol\":1547:1589  waitress[i].walletAddress == walletAddress */\n      0xffffffffffffffffffffffffffffffffffffffff\n      and\n      sub\n        /* \"tipjar_edit.sol\":1543:1670  if (waitress[i].walletAddress == walletAddress) {... */\n      tag_110\n      jumpi\n        /* \"tipjar_edit.sol\":1626:1630  true */\n      0x01\n        /* \"tipjar_edit.sol\":1610:1630  waitressExist = true */\n      swap2\n      pop\n        /* \"tipjar_edit.sol\":1649:1654  break */\n      jump(tag_105)\n        /* \"tipjar_edit.sol\":1543:1670  if (waitress[i].walletAddress == walletAddress) {... */\n    tag_110:\n        /* \"tipjar_edit.sol\":1523:1526  i++ */\n      dup1\n      dup1\n      0x01\n      add\n      swap2\n      pop\n      pop\n        /* \"tipjar_edit.sol\":1485:1681  for (uint i = 0; i < waitress.length; i++) {... */\n      jump(tag_104)\n    tag_105:\n      pop\n        /* \"tipjar_edit.sol\":1714:1719  false */\n      0x00\n        /* \"tipjar_edit.sol\":1697:1719  waitressExist == false */\n      iszero\n      iszero\n        /* \"tipjar_edit.sol\":1697:1710  waitressExist */\n      dup2\n        /* \"tipjar_edit.sol\":1697:1719  waitressExist == false */\n      iszero\n      iszero\n      sub\n        /* \"tipjar_edit.sol\":1693:1905  if (waitressExist == false) {... */\n      tag_111\n      jumpi\n        /* \"tipjar_edit.sol\":1736:1744  waitress */\n      0x02\n        /* \"tipjar_edit.sol\":1750:1788  Waitress(walletAddress, name, percent) */\n      mload(0x40)\n      dup1\n      0x60\n      add\n      0x40\n      mstore\n      dup1\n        /* \"tipjar_edit.sol\":1759:1772  walletAddress */\n      dup7\n        /* \"tipjar_edit.sol\":1750:1788  Waitress(walletAddress, name, percent) */\n      0xffffffffffffffffffffffffffffffffffffffff\n      and\n      dup2\n      mstore\n      0x20\n      add\n        /* \"tipjar_edit.sol\":1774:1778  name */\n      dup6\n        /* \"tipjar_edit.sol\":1750:1788  Waitress(walletAddress, name, percent) */\n      dup2\n      mstore\n      0x20\n      add\n        /* \"tipjar_edit.sol\":1780:1787  percent */\n      dup5\n        /* \"tipjar_edit.sol\":1750:1788  Waitress(walletAddress, name, percent) */\n      dup2\n      mstore\n      pop\n        /* \"tipjar_edit.sol\":1736:1789  waitress.push(Waitress(walletAddress, name, percent)) */\n      swap1\n      dup1\n      0x01\n      dup2\n      sload\n      add\n      dup1\n      dup3\n      sstore\n      dup1\n      swap2\n      pop\n      pop\n      0x01\n      swap1\n      sub\n      swap1\n      0x00\n      mstore\n      keccak256(0x00, 0x20)\n      swap1\n      0x03\n      mul\n      add\n      0x00\n      swap1\n      swap2\n      swap1\n      swap2\n      swap1\n      swap2\n      pop\n      0x00\n      dup3\n      add\n      mload\n      dup2\n      0x00\n      add\n      exp(0x0100, 0x00)\n      dup2\n      sload\n      dup2\n      0xffffffffffffffffffffffffffffffffffffffff\n      mul\n      not\n      and\n      swap1\n      dup4\n      0xffffffffffffffffffffffffffffffffffffffff\n      and\n      mul\n      or\n      swap1\n      sstore\n      pop\n      0x20\n      dup3\n      add\n      mload\n      dup2\n      0x01\n      add\n      swap1\n      dup2\n      tag_113\n      swap2\n      swap1\n      tag_114\n      jump\t// in\n    tag_113:\n      pop\n      0x40\n      dup3\n      add\n      mload\n      dup2\n      0x02\n      add\n      sstore\n      pop\n      pop\n        /* \"tipjar_edit.sol\":1820:1827  percent */\n      dup2\n        /* \"tipjar_edit.sol\":1804:1816  totalPercent */\n      0x01\n      0x00\n        /* \"tipjar_edit.sol\":1804:1827  totalPercent += percent */\n      dup3\n      dup3\n      sload\n      tag_115\n      swap2\n      swap1\n      tag_57\n      jump\t// in\n    tag_115:\n      swap3\n      pop\n      pop\n      dup2\n      swap1\n      sstore\n      pop\n        /* \"tipjar_edit.sol\":1693:1905  if (waitressExist == false) {... */\n      jump(tag_116)\n    tag_111:\n        /* \"tipjar_edit.sol\":1860:1893  revert(\"Waitress already exists\") */\n      mload(0x40)\n      0x08c379a000000000000000000000000000000000000000000000000000000000\n      dup2\n      mstore\n      0x04\n      add\n      tag_117\n      swap1\n      tag_118\n      jump\t// in\n    tag_117:\n      mload(0x40)\n      dup1\n      swap2\n      sub\n      swap1\n      revert\n        /* \"tipjar_edit.sol\":1693:1905  if (waitressExist == false) {... */\n    tag_116:\n        /* \"tipjar_edit.sol\":1347:1912  {... */\n      pop\n        /* \"tipjar_edit.sol\":1210:1912  function addWaitress(... */\n      pop\n      pop\n      pop\n      jump\t// out\n        /* \"tipjar_edit.sol\":1104:1202  function viewWaitress() public view returns (Waitress[] memory) {... */\n    tag_30:\n        /* \"tipjar_edit.sol\":1149:1166  Waitress[] memory */\n      0x60\n        /* \"tipjar_edit.sol\":1186:1194  waitress */\n      0x02\n        /* \"tipjar_edit.sol\":1179:1194  return waitress */\n      dup1\n      sload\n      dup1\n      0x20\n      mul\n      0x20\n      add\n      mload(0x40)\n      swap1\n      dup2\n      add\n      0x40\n      mstore\n      dup1\n      swap3\n      swap2\n      swap1\n      dup2\n      dup2\n      mstore\n      0x20\n      add\n      0x00\n      swap1\n    tag_120:\n      dup3\n      dup3\n      lt\n      iszero\n      tag_121\n      jumpi\n      dup4\n      dup3\n      swap1\n      0x00\n      mstore\n      keccak256(0x00, 0x20)\n      swap1\n      0x03\n      mul\n      add\n      mload(0x40)\n      dup1\n      0x60\n      add\n      0x40\n      mstore\n      swap1\n      dup2\n      0x00\n      dup3\n      add\n      0x00\n      swap1\n      sload\n      swap1\n      0x0100\n      exp\n      swap1\n      div\n      0xffffffffffffffffffffffffffffffffffffffff\n      and\n      0xffffffffffffffffffffffffffffffffffffffff\n      and\n      0xffffffffffffffffffffffffffffffffffffffff\n      and\n      dup2\n      mstore\n      0x20\n      add\n      0x01\n      dup3\n      add\n      dup1\n      sload\n      tag_123\n      swap1\n      tag_124\n      jump\t// in\n    tag_123:\n      dup1\n      0x1f\n      add\n      0x20\n      dup1\n      swap2\n      div\n      mul\n      0x20\n      add\n      mload(0x40)\n      swap1\n      dup2\n      add\n      0x40\n      mstore\n      dup1\n      swap3\n      swap2\n      swap1\n      dup2\n      dup2\n      mstore\n      0x20\n      add\n      dup3\n      dup1\n      sload\n      tag_125\n      swap1\n      tag_124\n      jump\t// in\n    tag_125:\n      dup1\n      iszero\n      tag_126\n      jumpi\n      dup1\n      0x1f\n      lt\n      tag_127\n      jumpi\n      0x0100\n      dup1\n      dup4\n      sload\n      div\n      mul\n      dup4\n      mstore\n      swap2\n      0x20\n      add\n      swap2\n      jump(tag_126)\n    tag_127:\n      dup3\n      add\n      swap2\n      swap1\n      0x00\n      mstore\n      keccak256(0x00, 0x20)\n      swap1\n    tag_128:\n      dup2\n      sload\n      dup2\n      mstore\n      swap1\n      0x01\n      add\n      swap1\n      0x20\n      add\n      dup1\n      dup4\n      gt\n      tag_128\n      jumpi\n      dup3\n      swap1\n      sub\n      0x1f\n      and\n      dup3\n      add\n      swap2\n    tag_126:\n      pop\n      pop\n      pop\n      pop\n      pop\n      dup2\n      mstore\n      0x20\n      add\n      0x02\n      dup3\n      add\n      sload\n      dup2\n      mstore\n      pop\n      pop\n      dup2\n      mstore\n      0x20\n      add\n      swap1\n      0x01\n      add\n      swap1\n      jump(tag_120)\n    tag_121:\n      pop\n      pop\n      pop\n      pop\n      swap1\n      pop\n        /* \"tipjar_edit.sol\":1104:1202  function viewWaitress() public view returns (Waitress[] memory) {... */\n      swap1\n      jump\t// out\n        /* \"tipjar_edit.sol\":2904:3095  function _transferFunds(address payable recipient, uint amount) internal {... */\n    tag_95:\n        /* \"tipjar_edit.sol\":2989:3001  bool success */\n      0x00\n        /* \"tipjar_edit.sol\":3007:3016  recipient */\n      dup3\n        /* \"tipjar_edit.sol\":3007:3021  recipient.call */\n      0xffffffffffffffffffffffffffffffffffffffff\n      and\n        /* \"tipjar_edit.sol\":3029:3035  amount */\n      dup3\n        /* \"tipjar_edit.sol\":3007:3040  recipient.call{value: amount}(\"\") */\n      mload(0x40)\n      tag_130\n      swap1\n      tag_131\n      jump\t// in\n    tag_130:\n      0x00\n      mload(0x40)\n      dup1\n      dup4\n      sub\n      dup2\n      dup6\n      dup8\n      gas\n      call\n      swap3\n      pop\n      pop\n      pop\n      returndatasize\n      dup1\n      0x00\n      dup2\n      eq\n      tag_134\n      jumpi\n      mload(0x40)\n      swap2\n      pop\n      and(add(returndatasize, 0x3f), not(0x1f))\n      dup3\n      add\n      0x40\n      mstore\n      returndatasize\n      dup3\n      mstore\n      returndatasize\n      0x00\n      0x20\n      dup5\n      add\n      returndatacopy\n      jump(tag_133)\n    tag_134:\n      0x60\n      swap2\n      pop\n    tag_133:\n      pop\n        /* \"tipjar_edit.sol\":2988:3040  (bool success, ) = recipient.call{value: amount}(\"\") */\n      pop\n      swap1\n      pop\n        /* \"tipjar_edit.sol\":3059:3066  success */\n      dup1\n        /* \"tipjar_edit.sol\":3051:3087  require(success, \"Transfer failed.\") */\n      tag_135\n      jumpi\n      mload(0x40)\n      0x08c379a000000000000000000000000000000000000000000000000000000000\n      dup2\n      mstore\n      0x04\n      add\n      tag_136\n      swap1\n      tag_137\n      jump\t// in\n    tag_136:\n      mload(0x40)\n      dup1\n      swap2\n      sub\n      swap1\n      revert\n    tag_135:\n        /* \"tipjar_edit.sol\":2977:3095  {... */\n      pop\n        /* \"tipjar_edit.sol\":2904:3095  function _transferFunds(address payable recipient, uint amount) internal {... */\n      pop\n      pop\n      jump\t// out\n    tag_71:\n      pop\n      dup1\n      sload\n      tag_138\n      swap1\n      tag_124\n      jump\t// in\n    tag_138:\n      0x00\n      dup3\n      sstore\n      dup1\n      0x1f\n      lt\n      tag_140\n      jumpi\n      pop\n      jump(tag_139)\n    tag_140:\n      0x1f\n      add\n      0x20\n      swap1\n      div\n      swap1\n      0x00\n      mstore\n      keccak256(0x00, 0x20)\n      swap1\n      dup2\n      add\n      swap1\n      tag_141\n      swap2\n      swap1\n      tag_142\n      jump\t// in\n    tag_141:\n    tag_139:\n      pop\n      jump\t// out\n    tag_142:\n    tag_143:\n      dup1\n      dup3\n      gt\n      iszero\n      tag_144\n      jumpi\n      0x00\n      dup2\n      0x00\n      swap1\n      sstore\n      pop\n      0x01\n      add\n      jump(tag_143)\n    tag_144:\n      pop\n      swap1\n      jump\t// out\n        /* \"#utility.yul\":7:84   */\n    tag_145:\n        /* \"#utility.yul\":44:51   */\n      0x00\n        /* \"#utility.yul\":73:78   */\n      dup2\n        /* \"#utility.yul\":62:78   */\n      swap1\n      pop\n        /* \"#utility.yul\":7:84   */\n      swap2\n      swap1\n      pop\n      jump\t// out\n        /* \"#utility.yul\":90:208   */\n    tag_146:\n        /* \"#utility.yul\":177:201   */\n      tag_220\n        /* \"#utility.yul\":195:200   */\n      dup2\n        /* \"#utility.yul\":177:201   */\n      tag_145\n      jump\t// in\n    tag_220:\n        /* \"#utility.yul\":172:175   */\n      dup3\n        /* \"#utility.yul\":165:202   */\n      mstore\n        /* \"#utility.yul\":90:208   */\n      pop\n      pop\n      jump\t// out\n        /* \"#utility.yul\":214:436   */\n    tag_12:\n        /* \"#utility.yul\":307:311   */\n      0x00\n        /* \"#utility.yul\":345:347   */\n      0x20\n        /* \"#utility.yul\":334:343   */\n      dup3\n        /* \"#utility.yul\":330:348   */\n      add\n        /* \"#utility.yul\":322:348   */\n      swap1\n      pop\n        /* \"#utility.yul\":358:429   */\n      tag_222\n        /* \"#utility.yul\":426:427   */\n      0x00\n        /* \"#utility.yul\":415:424   */\n      dup4\n        /* \"#utility.yul\":411:428   */\n      add\n        /* \"#utility.yul\":402:408   */\n      dup5\n        /* \"#utility.yul\":358:429   */\n      tag_146\n      jump\t// in\n    tag_222:\n        /* \"#utility.yul\":214:436   */\n      swap3\n      swap2\n      pop\n      pop\n      jump\t// out\n        /* \"#utility.yul\":442:517   */\n    tag_147:\n        /* \"#utility.yul\":475:481   */\n      0x00\n        /* \"#utility.yul\":508:510   */\n      0x40\n        /* \"#utility.yul\":502:511   */\n      mload\n        /* \"#utility.yul\":492:511   */\n      swap1\n      pop\n        /* \"#utility.yul\":442:517   */\n      swap1\n      jump\t// out\n        /* \"#utility.yul\":523:640   */\n    tag_148:\n        /* \"#utility.yul\":632:633   */\n      0x00\n        /* \"#utility.yul\":629:630   */\n      0x00\n        /* \"#utility.yul\":622:634   */\n      revert\n        /* \"#utility.yul\":646:763   */\n    tag_149:\n        /* \"#utility.yul\":755:756   */\n      0x00\n        /* \"#utility.yul\":752:753   */\n      0x00\n        /* \"#utility.yul\":745:757   */\n      revert\n        /* \"#utility.yul\":769:895   */\n    tag_150:\n        /* \"#utility.yul\":806:813   */\n      0x00\n        /* \"#utility.yul\":846:888   */\n      0xffffffffffffffffffffffffffffffffffffffff\n        /* \"#utility.yul\":839:844   */\n      dup3\n        /* \"#utility.yul\":835:889   */\n      and\n        /* \"#utility.yul\":824:889   */\n      swap1\n      pop\n        /* \"#utility.yul\":769:895   */\n      swap2\n      swap1\n      pop\n      jump\t// out\n        /* \"#utility.yul\":901:997   */\n    tag_151:\n        /* \"#utility.yul\":938:945   */\n      0x00\n        /* \"#utility.yul\":967:991   */\n      tag_228\n        /* \"#utility.yul\":985:990   */\n      dup3\n        /* \"#utility.yul\":967:991   */\n      tag_150\n      jump\t// in\n    tag_228:\n        /* \"#utility.yul\":956:991   */\n      swap1\n      pop\n        /* \"#utility.yul\":901:997   */\n      swap2\n      swap1\n      pop\n      jump\t// out\n        /* \"#utility.yul\":1003:1125   */\n    tag_152:\n        /* \"#utility.yul\":1076:1100   */\n      tag_230\n        /* \"#utility.yul\":1094:1099   */\n      dup2\n        /* \"#utility.yul\":1076:1100   */\n      tag_151\n      jump\t// in\n    tag_230:\n        /* \"#utility.yul\":1069:1074   */\n      dup2\n        /* \"#utility.yul\":1066:1101   */\n      eq\n        /* \"#utility.yul\":1056:1119   */\n      tag_231\n      jumpi\n        /* \"#utility.yul\":1115:1116   */\n      0x00\n        /* \"#utility.yul\":1112:1113   */\n      0x00\n        /* \"#utility.yul\":1105:1117   */\n      revert\n        /* \"#utility.yul\":1056:1119   */\n    tag_231:\n        /* \"#utility.yul\":1003:1125   */\n      pop\n      jump\t// out\n        /* \"#utility.yul\":1131:1270   */\n    tag_153:\n        /* \"#utility.yul\":1177:1182   */\n      0x00\n        /* \"#utility.yul\":1215:1221   */\n      dup2\n        /* \"#utility.yul\":1202:1222   */\n      calldataload\n        /* \"#utility.yul\":1193:1222   */\n      swap1\n      pop\n        /* \"#utility.yul\":1231:1264   */\n      tag_233\n        /* \"#utility.yul\":1258:1263   */\n      dup2\n        /* \"#utility.yul\":1231:1264   */\n      tag_152\n      jump\t// in\n    tag_233:\n        /* \"#utility.yul\":1131:1270   */\n      swap3\n      swap2\n      pop\n      pop\n      jump\t// out\n        /* \"#utility.yul\":1276:1605   */\n    tag_16:\n        /* \"#utility.yul\":1335:1341   */\n      0x00\n        /* \"#utility.yul\":1384:1386   */\n      0x20\n        /* \"#utility.yul\":1372:1381   */\n      dup3\n        /* \"#utility.yul\":1363:1370   */\n      dup5\n        /* \"#utility.yul\":1359:1382   */\n      sub\n        /* \"#utility.yul\":1355:1387   */\n      slt\n        /* \"#utility.yul\":1352:1471   */\n      iszero\n      tag_235\n      jumpi\n        /* \"#utility.yul\":1390:1469   */\n      tag_236\n      tag_148\n      jump\t// in\n    tag_236:\n        /* \"#utility.yul\":1352:1471   */\n    tag_235:\n        /* \"#utility.yul\":1510:1511   */\n      0x00\n        /* \"#utility.yul\":1535:1588   */\n      tag_237\n        /* \"#utility.yul\":1580:1587   */\n      dup5\n        /* \"#utility.yul\":1571:1577   */\n      dup3\n        /* \"#utility.yul\":1560:1569   */\n      dup6\n        /* \"#utility.yul\":1556:1578   */\n      add\n        /* \"#utility.yul\":1535:1588   */\n      tag_153\n      jump\t// in\n    tag_237:\n        /* \"#utility.yul\":1525:1588   */\n      swap2\n      pop\n        /* \"#utility.yul\":1481:1598   */\n      pop\n        /* \"#utility.yul\":1276:1605   */\n      swap3\n      swap2\n      pop\n      pop\n      jump\t// out\n        /* \"#utility.yul\":1611:1715   */\n    tag_154:\n        /* \"#utility.yul\":1656:1663   */\n      0x00\n        /* \"#utility.yul\":1685:1709   */\n      tag_239\n        /* \"#utility.yul\":1703:1708   */\n      dup3\n        /* \"#utility.yul\":1685:1709   */\n      tag_150\n      jump\t// in\n    tag_239:\n        /* \"#utility.yul\":1674:1709   */\n      swap1\n      pop\n        /* \"#utility.yul\":1611:1715   */\n      swap2\n      swap1\n      pop\n      jump\t// out\n        /* \"#utility.yul\":1721:1859   */\n    tag_155:\n        /* \"#utility.yul\":1802:1834   */\n      tag_241\n        /* \"#utility.yul\":1828:1833   */\n      dup2\n        /* \"#utility.yul\":1802:1834   */\n      tag_154\n      jump\t// in\n    tag_241:\n        /* \"#utility.yul\":1795:1800   */\n      dup2\n        /* \"#utility.yul\":1792:1835   */\n      eq\n        /* \"#utility.yul\":1782:1853   */\n      tag_242\n      jumpi\n        /* \"#utility.yul\":1849:1850   */\n      0x00\n        /* \"#utility.yul\":1846:1847   */\n      0x00\n        /* \"#utility.yul\":1839:1851   */\n      revert\n        /* \"#utility.yul\":1782:1853   */\n    tag_242:\n        /* \"#utility.yul\":1721:1859   */\n      pop\n      jump\t// out\n        /* \"#utility.yul\":1865:2020   */\n    tag_156:\n        /* \"#utility.yul\":1919:1924   */\n      0x00\n        /* \"#utility.yul\":1957:1963   */\n      dup2\n        /* \"#utility.yul\":1944:1964   */\n      calldataload\n        /* \"#utility.yul\":1935:1964   */\n      swap1\n      pop\n        /* \"#utility.yul\":1973:2014   */\n      tag_244\n        /* \"#utility.yul\":2008:2013   */\n      dup2\n        /* \"#utility.yul\":1973:2014   */\n      tag_155\n      jump\t// in\n    tag_244:\n        /* \"#utility.yul\":1865:2020   */\n      swap3\n      swap2\n      pop\n      pop\n      jump\t// out\n        /* \"#utility.yul\":2026:2143   */\n    tag_157:\n        /* \"#utility.yul\":2135:2136   */\n      0x00\n        /* \"#utility.yul\":2132:2133   */\n      0x00\n        /* \"#utility.yul\":2125:2137   */\n      revert\n        /* \"#utility.yul\":2149:2266   */\n    tag_158:\n        /* \"#utility.yul\":2258:2259   */\n      0x00\n        /* \"#utility.yul\":2255:2256   */\n      0x00\n        /* \"#utility.yul\":2248:2260   */\n      revert\n        /* \"#utility.yul\":2272:2374   */\n    tag_159:\n        /* \"#utility.yul\":2313:2319   */\n      0x00\n        /* \"#utility.yul\":2364:2366   */\n      0x1f\n        /* \"#utility.yul\":2360:2367   */\n      not\n        /* \"#utility.yul\":2355:2357   */\n      0x1f\n        /* \"#utility.yul\":2348:2353   */\n      dup4\n        /* \"#utility.yul\":2344:2358   */\n      add\n        /* \"#utility.yul\":2340:2368   */\n      and\n        /* \"#utility.yul\":2330:2368   */\n      swap1\n      pop\n        /* \"#utility.yul\":2272:2374   */\n      swap2\n      swap1\n      pop\n      jump\t// out\n        /* \"#utility.yul\":2380:2560   */\n    tag_160:\n        /* \"#utility.yul\":2428:2505   */\n      0x4e487b7100000000000000000000000000000000000000000000000000000000\n        /* \"#utility.yul\":2425:2426   */\n      0x00\n        /* \"#utility.yul\":2418:2506   */\n      mstore\n        /* \"#utility.yul\":2525:2529   */\n      0x41\n        /* \"#utility.yul\":2522:2523   */\n      0x04\n        /* \"#utility.yul\":2515:2530   */\n      mstore\n        /* \"#utility.yul\":2549:2553   */\n      0x24\n        /* \"#utility.yul\":2546:2547   */\n      0x00\n        /* \"#utility.yul\":2539:2554   */\n      revert\n        /* \"#utility.yul\":2566:2847   */\n    tag_161:\n        /* \"#utility.yul\":2649:2676   */\n      tag_250\n        /* \"#utility.yul\":2671:2675   */\n      dup3\n        /* \"#utility.yul\":2649:2676   */\n      tag_159\n      jump\t// in\n    tag_250:\n        /* \"#utility.yul\":2641:2647   */\n      dup2\n        /* \"#utility.yul\":2637:2677   */\n      add\n        /* \"#utility.yul\":2779:2785   */\n      dup2\n        /* \"#utility.yul\":2767:2777   */\n      dup2\n        /* \"#utility.yul\":2764:2786   */\n      lt\n        /* \"#utility.yul\":2743:2761   */\n      0xffffffffffffffff\n        /* \"#utility.yul\":2731:2741   */\n      dup3\n        /* \"#utility.yul\":2728:2762   */\n      gt\n        /* \"#utility.yul\":2725:2787   */\n      or\n        /* \"#utility.yul\":2722:2810   */\n      iszero\n      tag_251\n      jumpi\n        /* \"#utility.yul\":2790:2808   */\n      tag_252\n      tag_160\n      jump\t// in\n    tag_252:\n        /* \"#utility.yul\":2722:2810   */\n    tag_251:\n        /* \"#utility.yul\":2830:2840   */\n      dup1\n        /* \"#utility.yul\":2826:2828   */\n      0x40\n        /* \"#utility.yul\":2819:2841   */\n      mstore\n        /* \"#utility.yul\":2609:2847   */\n      pop\n        /* \"#utility.yul\":2566:2847   */\n      pop\n      pop\n      jump\t// out\n        /* \"#utility.yul\":2853:2982   */\n    tag_162:\n        /* \"#utility.yul\":2887:2893   */\n      0x00\n        /* \"#utility.yul\":2914:2934   */\n      tag_254\n      tag_147\n      jump\t// in\n    tag_254:\n        /* \"#utility.yul\":2904:2934   */\n      swap1\n      pop\n        /* \"#utility.yul\":2943:2976   */\n      tag_255\n        /* \"#utility.yul\":2971:2975   */\n      dup3\n        /* \"#utility.yul\":2963:2969   */\n      dup3\n        /* \"#utility.yul\":2943:2976   */\n      tag_161\n      jump\t// in\n    tag_255:\n        /* \"#utility.yul\":2853:2982   */\n      swap2\n      swap1\n      pop\n      jump\t// out\n        /* \"#utility.yul\":2988:3296   */\n    tag_163:\n        /* \"#utility.yul\":3050:3054   */\n      0x00\n        /* \"#utility.yul\":3140:3158   */\n      0xffffffffffffffff\n        /* \"#utility.yul\":3132:3138   */\n      dup3\n        /* \"#utility.yul\":3129:3159   */\n      gt\n        /* \"#utility.yul\":3126:3182   */\n      iszero\n      tag_257\n      jumpi\n        /* \"#utility.yul\":3162:3180   */\n      tag_258\n      tag_160\n      jump\t// in\n    tag_258:\n        /* \"#utility.yul\":3126:3182   */\n    tag_257:\n        /* \"#utility.yul\":3200:3229   */\n      tag_259\n        /* \"#utility.yul\":3222:3228   */\n      dup3\n        /* \"#utility.yul\":3200:3229   */\n      tag_159\n      jump\t// in\n    tag_259:\n        /* \"#utility.yul\":3192:3229   */\n      swap1\n      pop\n        /* \"#utility.yul\":3284:3288   */\n      0x20\n        /* \"#utility.yul\":3278:3282   */\n      dup2\n        /* \"#utility.yul\":3274:3289   */\n      add\n        /* \"#utility.yul\":3266:3289   */\n      swap1\n      pop\n        /* \"#utility.yul\":2988:3296   */\n      swap2\n      swap1\n      pop\n      jump\t// out\n        /* \"#utility.yul\":3302:3450   */\n    tag_164:\n        /* \"#utility.yul\":3400:3406   */\n      dup3\n        /* \"#utility.yul\":3395:3398   */\n      dup2\n        /* \"#utility.yul\":3390:3393   */\n      dup4\n        /* \"#utility.yul\":3377:3407   */\n      calldatacopy\n        /* \"#utility.yul\":3441:3442   */\n      0x00\n        /* \"#utility.yul\":3432:3438   */\n      dup4\n        /* \"#utility.yul\":3427:3430   */\n      dup4\n        /* \"#utility.yul\":3423:3439   */\n      add\n        /* \"#utility.yul\":3416:3443   */\n      mstore\n        /* \"#utility.yul\":3302:3450   */\n      pop\n      pop\n      pop\n      jump\t// out\n        /* \"#utility.yul\":3456:3881   */\n    tag_165:\n        /* \"#utility.yul\":3534:3539   */\n      0x00\n        /* \"#utility.yul\":3559:3625   */\n      tag_262\n        /* \"#utility.yul\":3575:3624   */\n      tag_263\n        /* \"#utility.yul\":3617:3623   */\n      dup5\n        /* \"#utility.yul\":3575:3624   */\n      tag_163\n      jump\t// in\n    tag_263:\n        /* \"#utility.yul\":3559:3625   */\n      tag_162\n      jump\t// in\n    tag_262:\n        /* \"#utility.yul\":3550:3625   */\n      swap1\n      pop\n        /* \"#utility.yul\":3648:3654   */\n      dup3\n        /* \"#utility.yul\":3641:3646   */\n      dup2\n        /* \"#utility.yul\":3634:3655   */\n      mstore\n        /* \"#utility.yul\":3686:3690   */\n      0x20\n        /* \"#utility.yul\":3679:3684   */\n      dup2\n        /* \"#utility.yul\":3675:3691   */\n      add\n        /* \"#utility.yul\":3724:3727   */\n      dup5\n        /* \"#utility.yul\":3715:3721   */\n      dup5\n        /* \"#utility.yul\":3710:3713   */\n      dup5\n        /* \"#utility.yul\":3706:3722   */\n      add\n        /* \"#utility.yul\":3703:3728   */\n      gt\n        /* \"#utility.yul\":3700:3812   */\n      iszero\n      tag_264\n      jumpi\n        /* \"#utility.yul\":3731:3810   */\n      tag_265\n      tag_158\n      jump\t// in\n    tag_265:\n        /* \"#utility.yul\":3700:3812   */\n    tag_264:\n        /* \"#utility.yul\":3821:3875   */\n      tag_266\n        /* \"#utility.yul\":3868:3874   */\n      dup5\n        /* \"#utility.yul\":3863:3866   */\n      dup3\n        /* \"#utility.yul\":3858:3861   */\n      dup6\n        /* \"#utility.yul\":3821:3875   */\n      tag_164\n      jump\t// in\n    tag_266:\n        /* \"#utility.yul\":3540:3881   */\n      pop\n        /* \"#utility.yul\":3456:3881   */\n      swap4\n      swap3\n      pop\n      pop\n      pop\n      jump\t// out\n        /* \"#utility.yul\":3901:4241   */\n    tag_166:\n        /* \"#utility.yul\":3957:3962   */\n      0x00\n        /* \"#utility.yul\":4006:4009   */\n      dup3\n        /* \"#utility.yul\":3999:4003   */\n      0x1f\n        /* \"#utility.yul\":3991:3997   */\n      dup4\n        /* \"#utility.yul\":3987:4004   */\n      add\n        /* \"#utility.yul\":3983:4010   */\n      slt\n        /* \"#utility.yul\":3973:4095   */\n      tag_268\n      jumpi\n        /* \"#utility.yul\":4014:4093   */\n      tag_269\n      tag_157\n      jump\t// in\n    tag_269:\n        /* \"#utility.yul\":3973:4095   */\n    tag_268:\n        /* \"#utility.yul\":4131:4137   */\n      dup2\n        /* \"#utility.yul\":4118:4138   */\n      calldataload\n        /* \"#utility.yul\":4156:4235   */\n      tag_270\n        /* \"#utility.yul\":4231:4234   */\n      dup5\n        /* \"#utility.yul\":4223:4229   */\n      dup3\n        /* \"#utility.yul\":4216:4220   */\n      0x20\n        /* \"#utility.yul\":4208:4214   */\n      dup7\n        /* \"#utility.yul\":4204:4221   */\n      add\n        /* \"#utility.yul\":4156:4235   */\n      tag_165\n      jump\t// in\n    tag_270:\n        /* \"#utility.yul\":4147:4235   */\n      swap2\n      pop\n        /* \"#utility.yul\":3963:4241   */\n      pop\n        /* \"#utility.yul\":3901:4241   */\n      swap3\n      swap2\n      pop\n      pop\n      jump\t// out\n        /* \"#utility.yul\":4247:4369   */\n    tag_167:\n        /* \"#utility.yul\":4320:4344   */\n      tag_272\n        /* \"#utility.yul\":4338:4343   */\n      dup2\n        /* \"#utility.yul\":4320:4344   */\n      tag_145\n      jump\t// in\n    tag_272:\n        /* \"#utility.yul\":4313:4318   */\n      dup2\n        /* \"#utility.yul\":4310:4345   */\n      eq\n        /* \"#utility.yul\":4300:4363   */\n      tag_273\n      jumpi\n        /* \"#utility.yul\":4359:4360   */\n      0x00\n        /* \"#utility.yul\":4356:4357   */\n      0x00\n        /* \"#utility.yul\":4349:4361   */\n      revert\n        /* \"#utility.yul\":4300:4363   */\n    tag_273:\n        /* \"#utility.yul\":4247:4369   */\n      pop\n      jump\t// out\n        /* \"#utility.yul\":4375:4514   */\n    tag_168:\n        /* \"#utility.yul\":4421:4426   */\n      0x00\n        /* \"#utility.yul\":4459:4465   */\n      dup2\n        /* \"#utility.yul\":4446:4466   */\n      calldataload\n        /* \"#utility.yul\":4437:4466   */\n      swap1\n      pop\n        /* \"#utility.yul\":4475:4508   */\n      tag_275\n        /* \"#utility.yul\":4502:4507   */\n      dup2\n        /* \"#utility.yul\":4475:4508   */\n      tag_167\n      jump\t// in\n    tag_275:\n        /* \"#utility.yul\":4375:4514   */\n      swap3\n      swap2\n      pop\n      pop\n      jump\t// out\n        /* \"#utility.yul\":4520:5335   */\n    tag_26:\n        /* \"#utility.yul\":4615:4621   */\n      0x00\n        /* \"#utility.yul\":4623:4629   */\n      0x00\n        /* \"#utility.yul\":4631:4637   */\n      0x00\n        /* \"#utility.yul\":4680:4682   */\n      0x60\n        /* \"#utility.yul\":4668:4677   */\n      dup5\n        /* \"#utility.yul\":4659:4666   */\n      dup7\n        /* \"#utility.yul\":4655:4678   */\n      sub\n        /* \"#utility.yul\":4651:4683   */\n      slt\n        /* \"#utility.yul\":4648:4767   */\n      iszero\n      tag_277\n      jumpi\n        /* \"#utility.yul\":4686:4765   */\n      tag_278\n      tag_148\n      jump\t// in\n    tag_278:\n        /* \"#utility.yul\":4648:4767   */\n    tag_277:\n        /* \"#utility.yul\":4806:4807   */\n      0x00\n        /* \"#utility.yul\":4831:4892   */\n      tag_279\n        /* \"#utility.yul\":4884:4891   */\n      dup7\n        /* \"#utility.yul\":4875:4881   */\n      dup3\n        /* \"#utility.yul\":4864:4873   */\n      dup8\n        /* \"#utility.yul\":4860:4882   */\n      add\n        /* \"#utility.yul\":4831:4892   */\n      tag_156\n      jump\t// in\n    tag_279:\n        /* \"#utility.yul\":4821:4892   */\n      swap4\n      pop\n        /* \"#utility.yul\":4777:4902   */\n      pop\n        /* \"#utility.yul\":4969:4971   */\n      0x20\n        /* \"#utility.yul\":4958:4967   */\n      dup5\n        /* \"#utility.yul\":4954:4972   */\n      add\n        /* \"#utility.yul\":4941:4973   */\n      calldataload\n        /* \"#utility.yul\":5000:5018   */\n      0xffffffffffffffff\n        /* \"#utility.yul\":4992:4998   */\n      dup2\n        /* \"#utility.yul\":4989:5019   */\n      gt\n        /* \"#utility.yul\":4986:5103   */\n      iszero\n      tag_280\n      jumpi\n        /* \"#utility.yul\":5022:5101   */\n      tag_281\n      tag_149\n      jump\t// in\n    tag_281:\n        /* \"#utility.yul\":4986:5103   */\n    tag_280:\n        /* \"#utility.yul\":5127:5190   */\n      tag_282\n        /* \"#utility.yul\":5182:5189   */\n      dup7\n        /* \"#utility.yul\":5173:5179   */\n      dup3\n        /* \"#utility.yul\":5162:5171   */\n      dup8\n        /* \"#utility.yul\":5158:5180   */\n      add\n        /* \"#utility.yul\":5127:5190   */\n      tag_166\n      jump\t// in\n    tag_282:\n        /* \"#utility.yul\":5117:5190   */\n      swap3\n      pop\n        /* \"#utility.yul\":4912:5200   */\n      pop\n        /* \"#utility.yul\":5239:5241   */\n      0x40\n        /* \"#utility.yul\":5265:5318   */\n      tag_283\n        /* \"#utility.yul\":5310:5317   */\n      dup7\n        /* \"#utility.yul\":5301:5307   */\n      dup3\n        /* \"#utility.yul\":5290:5299   */\n      dup8\n        /* \"#utility.yul\":5286:5308   */\n      add\n        /* \"#utility.yul\":5265:5318   */\n      tag_168\n      jump\t// in\n    tag_283:\n        /* \"#utility.yul\":5255:5318   */\n      swap2\n      pop\n        /* \"#utility.yul\":5210:5328   */\n      pop\n        /* \"#utility.yul\":4520:5335   */\n      swap3\n      pop\n      swap3\n      pop\n      swap3\n      jump\t// out\n        /* \"#utility.yul\":5341:5479   */\n    tag_169:\n        /* \"#utility.yul\":5432:5438   */\n      0x00\n        /* \"#utility.yul\":5466:5471   */\n      dup2\n        /* \"#utility.yul\":5460:5472   */\n      mload\n        /* \"#utility.yul\":5450:5472   */\n      swap1\n      pop\n        /* \"#utility.yul\":5341:5479   */\n      swap2\n      swap1\n      pop\n      jump\t// out\n        /* \"#utility.yul\":5485:5693   */\n    tag_170:\n        /* \"#utility.yul\":5608:5619   */\n      0x00\n        /* \"#utility.yul\":5642:5648   */\n      dup3\n        /* \"#utility.yul\":5637:5640   */\n      dup3\n        /* \"#utility.yul\":5630:5649   */\n      mstore\n        /* \"#utility.yul\":5682:5686   */\n      0x20\n        /* \"#utility.yul\":5677:5680   */\n      dup3\n        /* \"#utility.yul\":5673:5687   */\n      add\n        /* \"#utility.yul\":5658:5687   */\n      swap1\n      pop\n        /* \"#utility.yul\":5485:5693   */\n      swap3\n      swap2\n      pop\n      pop\n      jump\t// out\n        /* \"#utility.yul\":5699:5855   */\n    tag_171:\n        /* \"#utility.yul\":5790:5794   */\n      0x00\n        /* \"#utility.yul\":5813:5816   */\n      dup2\n        /* \"#utility.yul\":5805:5816   */\n      swap1\n      pop\n        /* \"#utility.yul\":5843:5847   */\n      0x20\n        /* \"#utility.yul\":5838:5841   */\n      dup3\n        /* \"#utility.yul\":5834:5848   */\n      add\n        /* \"#utility.yul\":5826:5848   */\n      swap1\n      pop\n        /* \"#utility.yul\":5699:5855   */\n      swap2\n      swap1\n      pop\n      jump\t// out\n        /* \"#utility.yul\":5861:5993   */\n    tag_172:\n        /* \"#utility.yul\":5954:5986   */\n      tag_288\n        /* \"#utility.yul\":5980:5985   */\n      dup2\n        /* \"#utility.yul\":5954:5986   */\n      tag_154\n      jump\t// in\n    tag_288:\n        /* \"#utility.yul\":5949:5952   */\n      dup3\n        /* \"#utility.yul\":5942:5987   */\n      mstore\n        /* \"#utility.yul\":5861:5993   */\n      pop\n      pop\n      jump\t// out\n        /* \"#utility.yul\":5999:6098   */\n    tag_173:\n        /* \"#utility.yul\":6051:6057   */\n      0x00\n        /* \"#utility.yul\":6085:6090   */\n      dup2\n        /* \"#utility.yul\":6079:6091   */\n      mload\n        /* \"#utility.yul\":6069:6091   */\n      swap1\n      pop\n        /* \"#utility.yul\":5999:6098   */\n      swap2\n      swap1\n      pop\n      jump\t// out\n        /* \"#utility.yul\":6104:6263   */\n    tag_174:\n        /* \"#utility.yul\":6178:6189   */\n      0x00\n        /* \"#utility.yul\":6212:6218   */\n      dup3\n        /* \"#utility.yul\":6207:6210   */\n      dup3\n        /* \"#utility.yul\":6200:6219   */\n      mstore\n        /* \"#utility.yul\":6252:6256   */\n      0x20\n        /* \"#utility.yul\":6247:6250   */\n      dup3\n        /* \"#utility.yul\":6243:6257   */\n      add\n        /* \"#utility.yul\":6228:6257   */\n      swap1\n      pop\n        /* \"#utility.yul\":6104:6263   */\n      swap3\n      swap2\n      pop\n      pop\n      jump\t// out\n        /* \"#utility.yul\":6269:6408   */\n    tag_175:\n        /* \"#utility.yul\":6358:6364   */\n      dup3\n        /* \"#utility.yul\":6353:6356   */\n      dup2\n        /* \"#utility.yul\":6348:6351   */\n      dup4\n        /* \"#utility.yul\":6342:6365   */\n      mcopy\n        /* \"#utility.yul\":6399:6400   */\n      0x00\n        /* \"#utility.yul\":6390:6396   */\n      dup4\n        /* \"#utility.yul\":6385:6388   */\n      dup4\n        /* \"#utility.yul\":6381:6397   */\n      add\n        /* \"#utility.yul\":6374:6401   */\n      mstore\n        /* \"#utility.yul\":6269:6408   */\n      pop\n      pop\n      pop\n      jump\t// out\n        /* \"#utility.yul\":6414:6771   */\n    tag_176:\n        /* \"#utility.yul\":6492:6495   */\n      0x00\n        /* \"#utility.yul\":6520:6559   */\n      tag_293\n        /* \"#utility.yul\":6553:6558   */\n      dup3\n        /* \"#utility.yul\":6520:6559   */\n      tag_173\n      jump\t// in\n    tag_293:\n        /* \"#utility.yul\":6575:6636   */\n      tag_294\n        /* \"#utility.yul\":6629:6635   */\n      dup2\n        /* \"#utility.yul\":6624:6627   */\n      dup6\n        /* \"#utility.yul\":6575:6636   */\n      tag_174\n      jump\t// in\n    tag_294:\n        /* \"#utility.yul\":6568:6636   */\n      swap4\n      pop\n        /* \"#utility.yul\":6645:6710   */\n      tag_295\n        /* \"#utility.yul\":6703:6709   */\n      dup2\n        /* \"#utility.yul\":6698:6701   */\n      dup6\n        /* \"#utility.yul\":6691:6695   */\n      0x20\n        /* \"#utility.yul\":6684:6689   */\n      dup7\n        /* \"#utility.yul\":6680:6696   */\n      add\n        /* \"#utility.yul\":6645:6710   */\n      tag_175\n      jump\t// in\n    tag_295:\n        /* \"#utility.yul\":6735:6764   */\n      tag_296\n        /* \"#utility.yul\":6757:6763   */\n      dup2\n        /* \"#utility.yul\":6735:6764   */\n      tag_159\n      jump\t// in\n    tag_296:\n        /* \"#utility.yul\":6730:6733   */\n      dup5\n        /* \"#utility.yul\":6726:6765   */\n      add\n        /* \"#utility.yul\":6719:6765   */\n      swap2\n      pop\n        /* \"#utility.yul\":6496:6771   */\n      pop\n        /* \"#utility.yul\":6414:6771   */\n      swap3\n      swap2\n      pop\n      pop\n      jump\t// out\n        /* \"#utility.yul\":6777:6885   */\n    tag_177:\n        /* \"#utility.yul\":6854:6878   */\n      tag_298\n        /* \"#utility.yul\":6872:6877   */\n      dup2\n        /* \"#utility.yul\":6854:6878   */\n      tag_145\n      jump\t// in\n    tag_298:\n        /* \"#utility.yul\":6849:6852   */\n      dup3\n        /* \"#utility.yul\":6842:6879   */\n      mstore\n        /* \"#utility.yul\":6777:6885   */\n      pop\n      pop\n      jump\t// out\n        /* \"#utility.yul\":6943:7739   */\n    tag_178:\n        /* \"#utility.yul\":7050:7053   */\n      0x00\n        /* \"#utility.yul\":7086:7090   */\n      0x60\n        /* \"#utility.yul\":7081:7084   */\n      dup4\n        /* \"#utility.yul\":7077:7091   */\n      add\n        /* \"#utility.yul\":7182:7186   */\n      0x00\n        /* \"#utility.yul\":7175:7180   */\n      dup4\n        /* \"#utility.yul\":7171:7187   */\n      add\n        /* \"#utility.yul\":7165:7188   */\n      mload\n        /* \"#utility.yul\":7201:7280   */\n      tag_300\n        /* \"#utility.yul\":7274:7278   */\n      0x00\n        /* \"#utility.yul\":7269:7272   */\n      dup7\n        /* \"#utility.yul\":7265:7279   */\n      add\n        /* \"#utility.yul\":7251:7263   */\n      dup3\n        /* \"#utility.yul\":7201:7280   */\n      tag_172\n      jump\t// in\n    tag_300:\n        /* \"#utility.yul\":7101:7290   */\n      pop\n        /* \"#utility.yul\":7372:7376   */\n      0x20\n        /* \"#utility.yul\":7365:7370   */\n      dup4\n        /* \"#utility.yul\":7361:7377   */\n      add\n        /* \"#utility.yul\":7355:7378   */\n      mload\n        /* \"#utility.yul\":7425:7428   */\n      dup5\n        /* \"#utility.yul\":7419:7423   */\n      dup3\n        /* \"#utility.yul\":7415:7429   */\n      sub\n        /* \"#utility.yul\":7408:7412   */\n      0x20\n        /* \"#utility.yul\":7403:7406   */\n      dup7\n        /* \"#utility.yul\":7399:7413   */\n      add\n        /* \"#utility.yul\":7392:7430   */\n      mstore\n        /* \"#utility.yul\":7451:7524   */\n      tag_301\n        /* \"#utility.yul\":7519:7523   */\n      dup3\n        /* \"#utility.yul\":7505:7517   */\n      dup3\n        /* \"#utility.yul\":7451:7524   */\n      tag_176\n      jump\t// in\n    tag_301:\n        /* \"#utility.yul\":7443:7524   */\n      swap2\n      pop\n        /* \"#utility.yul\":7300:7535   */\n      pop\n        /* \"#utility.yul\":7620:7624   */\n      0x40\n        /* \"#utility.yul\":7613:7618   */\n      dup4\n        /* \"#utility.yul\":7609:7625   */\n      add\n        /* \"#utility.yul\":7603:7626   */\n      mload\n        /* \"#utility.yul\":7639:7702   */\n      tag_302\n        /* \"#utility.yul\":7696:7700   */\n      0x40\n        /* \"#utility.yul\":7691:7694   */\n      dup7\n        /* \"#utility.yul\":7687:7701   */\n      add\n        /* \"#utility.yul\":7673:7685   */\n      dup3\n        /* \"#utility.yul\":7639:7702   */\n      tag_177\n      jump\t// in\n    tag_302:\n        /* \"#utility.yul\":7545:7712   */\n      pop\n        /* \"#utility.yul\":7729:7733   */\n      dup1\n        /* \"#utility.yul\":7722:7733   */\n      swap2\n      pop\n        /* \"#utility.yul\":7055:7739   */\n      pop\n        /* \"#utility.yul\":6943:7739   */\n      swap3\n      swap2\n      pop\n      pop\n      jump\t// out\n        /* \"#utility.yul\":7745:7997   */\n    tag_179:\n        /* \"#utility.yul\":7862:7872   */\n      0x00\n        /* \"#utility.yul\":7897:7991   */\n      tag_304\n        /* \"#utility.yul\":7987:7990   */\n      dup4\n        /* \"#utility.yul\":7979:7985   */\n      dup4\n        /* \"#utility.yul\":7897:7991   */\n      tag_178\n      jump\t// in\n    tag_304:\n        /* \"#utility.yul\":7883:7991   */\n      swap1\n      pop\n        /* \"#utility.yul\":7745:7997   */\n      swap3\n      swap2\n      pop\n      pop\n      jump\t// out\n        /* \"#utility.yul\":8003:8140   */\n    tag_180:\n        /* \"#utility.yul\":8097:8101   */\n      0x00\n        /* \"#utility.yul\":8129:8133   */\n      0x20\n        /* \"#utility.yul\":8124:8127   */\n      dup3\n        /* \"#utility.yul\":8120:8134   */\n      add\n        /* \"#utility.yul\":8112:8134   */\n      swap1\n      pop\n        /* \"#utility.yul\":8003:8140   */\n      swap2\n      swap1\n      pop\n      jump\t// out\n        /* \"#utility.yul\":8202:9305   */\n    tag_181:\n        /* \"#utility.yul\":8369:8372   */\n      0x00\n        /* \"#utility.yul\":8398:8476   */\n      tag_307\n        /* \"#utility.yul\":8470:8475   */\n      dup3\n        /* \"#utility.yul\":8398:8476   */\n      tag_169\n      jump\t// in\n    tag_307:\n        /* \"#utility.yul\":8492:8602   */\n      tag_308\n        /* \"#utility.yul\":8595:8601   */\n      dup2\n        /* \"#utility.yul\":8590:8593   */\n      dup6\n        /* \"#utility.yul\":8492:8602   */\n      tag_170\n      jump\t// in\n    tag_308:\n        /* \"#utility.yul\":8485:8602   */\n      swap4\n      pop\n        /* \"#utility.yul\":8628:8631   */\n      dup4\n        /* \"#utility.yul\":8673:8677   */\n      0x20\n        /* \"#utility.yul\":8665:8671   */\n      dup3\n        /* \"#utility.yul\":8661:8678   */\n      mul\n        /* \"#utility.yul\":8656:8659   */\n      dup6\n        /* \"#utility.yul\":8652:8679   */\n      add\n        /* \"#utility.yul\":8703:8783   */\n      tag_309\n        /* \"#utility.yul\":8777:8782   */\n      dup6\n        /* \"#utility.yul\":8703:8783   */\n      tag_171\n      jump\t// in\n    tag_309:\n        /* \"#utility.yul\":8806:8813   */\n      dup1\n        /* \"#utility.yul\":8837:8838   */\n      0x00\n        /* \"#utility.yul\":8822:9260   */\n    tag_310:\n        /* \"#utility.yul\":8847:8853   */\n      dup6\n        /* \"#utility.yul\":8844:8845   */\n      dup2\n        /* \"#utility.yul\":8841:8854   */\n      lt\n        /* \"#utility.yul\":8822:9260   */\n      iszero\n      tag_312\n      jumpi\n        /* \"#utility.yul\":8918:8927   */\n      dup5\n        /* \"#utility.yul\":8912:8916   */\n      dup5\n        /* \"#utility.yul\":8908:8928   */\n      sub\n        /* \"#utility.yul\":8903:8906   */\n      dup10\n        /* \"#utility.yul\":8896:8929   */\n      mstore\n        /* \"#utility.yul\":8969:8975   */\n      dup2\n        /* \"#utility.yul\":8963:8976   */\n      mload\n        /* \"#utility.yul\":8997:9109   */\n      tag_313\n        /* \"#utility.yul\":9104:9108   */\n      dup6\n        /* \"#utility.yul\":9089:9102   */\n      dup3\n        /* \"#utility.yul\":8997:9109   */\n      tag_179\n      jump\t// in\n    tag_313:\n        /* \"#utility.yul\":8989:9109   */\n      swap5\n      pop\n        /* \"#utility.yul\":9132:9216   */\n      tag_314\n        /* \"#utility.yul\":9209:9215   */\n      dup4\n        /* \"#utility.yul\":9132:9216   */\n      tag_180\n      jump\t// in\n    tag_314:\n        /* \"#utility.yul\":9122:9216   */\n      swap3\n      pop\n        /* \"#utility.yul\":9245:9249   */\n      0x20\n        /* \"#utility.yul\":9240:9243   */\n      dup11\n        /* \"#utility.yul\":9236:9250   */\n      add\n        /* \"#utility.yul\":9229:9250   */\n      swap10\n      pop\n        /* \"#utility.yul\":8882:9260   */\n      pop\n        /* \"#utility.yul\":8869:8870   */\n      0x01\n        /* \"#utility.yul\":8866:8867   */\n      dup2\n        /* \"#utility.yul\":8862:8871   */\n      add\n        /* \"#utility.yul\":8857:8871   */\n      swap1\n      pop\n        /* \"#utility.yul\":8822:9260   */\n      jump(tag_310)\n    tag_312:\n        /* \"#utility.yul\":8826:8840   */\n      pop\n        /* \"#utility.yul\":9276:9280   */\n      dup3\n        /* \"#utility.yul\":9269:9280   */\n      swap8\n      pop\n        /* \"#utility.yul\":9296:9299   */\n      dup8\n        /* \"#utility.yul\":9289:9299   */\n      swap6\n      pop\n        /* \"#utility.yul\":8374:9305   */\n      pop\n      pop\n      pop\n      pop\n      pop\n        /* \"#utility.yul\":8202:9305   */\n      swap3\n      swap2\n      pop\n      pop\n      jump\t// out\n        /* \"#utility.yul\":9311:9780   */\n    tag_32:\n        /* \"#utility.yul\":9502:9506   */\n      0x00\n        /* \"#utility.yul\":9540:9542   */\n      0x20\n        /* \"#utility.yul\":9529:9538   */\n      dup3\n        /* \"#utility.yul\":9525:9543   */\n      add\n        /* \"#utility.yul\":9517:9543   */\n      swap1\n      pop\n        /* \"#utility.yul\":9589:9598   */\n      dup2\n        /* \"#utility.yul\":9583:9587   */\n      dup2\n        /* \"#utility.yul\":9579:9599   */\n      sub\n        /* \"#utility.yul\":9575:9576   */\n      0x00\n        /* \"#utility.yul\":9564:9573   */\n      dup4\n        /* \"#utility.yul\":9560:9577   */\n      add\n        /* \"#utility.yul\":9553:9600   */\n      mstore\n        /* \"#utility.yul\":9617:9773   */\n      tag_316\n        /* \"#utility.yul\":9768:9772   */\n      dup2\n        /* \"#utility.yul\":9759:9765   */\n      dup5\n        /* \"#utility.yul\":9617:9773   */\n      tag_181\n      jump\t// in\n    tag_316:\n        /* \"#utility.yul\":9609:9773   */\n      swap1\n      pop\n        /* \"#utility.yul\":9311:9780   */\n      swap3\n      swap2\n      pop\n      pop\n      jump\t// out\n        /* \"#utility.yul\":9786:9955   */\n    tag_182:\n        /* \"#utility.yul\":9870:9881   */\n      0x00\n        /* \"#utility.yul\":9904:9910   */\n      dup3\n        /* \"#utility.yul\":9899:9902   */\n      dup3\n        /* \"#utility.yul\":9892:9911   */\n      mstore\n        /* \"#utility.yul\":9944:9948   */\n      0x20\n        /* \"#utility.yul\":9939:9942   */\n      dup3\n        /* \"#utility.yul\":9935:9949   */\n      add\n        /* \"#utility.yul\":9920:9949   */\n      swap1\n      pop\n        /* \"#utility.yul\":9786:9955   */\n      swap3\n      swap2\n      pop\n      pop\n      jump\t// out\n        /* \"#utility.yul\":9961:10130   */\n    tag_183:\n        /* \"#utility.yul\":10101:10122   */\n      0x4f6e6c79206f776e65722063616e2063616c6c00000000000000000000000000\n        /* \"#utility.yul\":10097:10098   */\n      0x00\n        /* \"#utility.yul\":10089:10095   */\n      dup3\n        /* \"#utility.yul\":10085:10099   */\n      add\n        /* \"#utility.yul\":10078:10123   */\n      mstore\n        /* \"#utility.yul\":9961:10130   */\n      pop\n      jump\t// out\n        /* \"#utility.yul\":10136:10502   */\n    tag_184:\n        /* \"#utility.yul\":10278:10281   */\n      0x00\n        /* \"#utility.yul\":10299:10366   */\n      tag_320\n        /* \"#utility.yul\":10363:10365   */\n      0x13\n        /* \"#utility.yul\":10358:10361   */\n      dup4\n        /* \"#utility.yul\":10299:10366   */\n      tag_182\n      jump\t// in\n    tag_320:\n        /* \"#utility.yul\":10292:10366   */\n      swap2\n      pop\n        /* \"#utility.yul\":10375:10468   */\n      tag_321\n        /* \"#utility.yul\":10464:10467   */\n      dup3\n        /* \"#utility.yul\":10375:10468   */\n      tag_183\n      jump\t// in\n    tag_321:\n        /* \"#utility.yul\":10493:10495   */\n      0x20\n        /* \"#utility.yul\":10488:10491   */\n      dup3\n        /* \"#utility.yul\":10484:10496   */\n      add\n        /* \"#utility.yul\":10477:10496   */\n      swap1\n      pop\n        /* \"#utility.yul\":10136:10502   */\n      swap2\n      swap1\n      pop\n      jump\t// out\n        /* \"#utility.yul\":10508:10927   */\n    tag_37:\n        /* \"#utility.yul\":10674:10678   */\n      0x00\n        /* \"#utility.yul\":10712:10714   */\n      0x20\n        /* \"#utility.yul\":10701:10710   */\n      dup3\n        /* \"#utility.yul\":10697:10715   */\n      add\n        /* \"#utility.yul\":10689:10715   */\n      swap1\n      pop\n        /* \"#utility.yul\":10761:10770   */\n      dup2\n        /* \"#utility.yul\":10755:10759   */\n      dup2\n        /* \"#utility.yul\":10751:10771   */\n      sub\n        /* \"#utility.yul\":10747:10748   */\n      0x00\n        /* \"#utility.yul\":10736:10745   */\n      dup4\n        /* \"#utility.yul\":10732:10749   */\n      add\n        /* \"#utility.yul\":10725:10772   */\n      mstore\n        /* \"#utility.yul\":10789:10920   */\n      tag_323\n        /* \"#utility.yul\":10915:10919   */\n      dup2\n        /* \"#utility.yul\":10789:10920   */\n      tag_184\n      jump\t// in\n    tag_323:\n        /* \"#utility.yul\":10781:10920   */\n      swap1\n      pop\n        /* \"#utility.yul\":10508:10927   */\n      swap2\n      swap1\n      pop\n      jump\t// out\n        /* \"#utility.yul\":10933:11113   */\n    tag_44:\n        /* \"#utility.yul\":10981:11058   */\n      0x4e487b7100000000000000000000000000000000000000000000000000000000\n        /* \"#utility.yul\":10978:10979   */\n      0x00\n        /* \"#utility.yul\":10971:11059   */\n      mstore\n        /* \"#utility.yul\":11078:11082   */\n      0x32\n        /* \"#utility.yul\":11075:11076   */\n      0x04\n        /* \"#utility.yul\":11068:11083   */\n      mstore\n        /* \"#utility.yul\":11102:11106   */\n      0x24\n        /* \"#utility.yul\":11099:11100   */\n      0x00\n        /* \"#utility.yul\":11092:11107   */\n      revert\n        /* \"#utility.yul\":11119:11299   */\n    tag_185:\n        /* \"#utility.yul\":11167:11244   */\n      0x4e487b7100000000000000000000000000000000000000000000000000000000\n        /* \"#utility.yul\":11164:11165   */\n      0x00\n        /* \"#utility.yul\":11157:11245   */\n      mstore\n        /* \"#utility.yul\":11264:11268   */\n      0x11\n        /* \"#utility.yul\":11261:11262   */\n      0x04\n        /* \"#utility.yul\":11254:11269   */\n      mstore\n        /* \"#utility.yul\":11288:11292   */\n      0x24\n        /* \"#utility.yul\":11285:11286   */\n      0x00\n        /* \"#utility.yul\":11278:11293   */\n      revert\n        /* \"#utility.yul\":11305:11499   */\n    tag_51:\n        /* \"#utility.yul\":11345:11349   */\n      0x00\n        /* \"#utility.yul\":11365:11385   */\n      tag_327\n        /* \"#utility.yul\":11383:11384   */\n      dup3\n        /* \"#utility.yul\":11365:11385   */\n      tag_145\n      jump\t// in\n    tag_327:\n        /* \"#utility.yul\":11360:11385   */\n      swap2\n      pop\n        /* \"#utility.yul\":11399:11419   */\n      tag_328\n        /* \"#utility.yul\":11417:11418   */\n      dup4\n        /* \"#utility.yul\":11399:11419   */\n      tag_145\n      jump\t// in\n    tag_328:\n        /* \"#utility.yul\":11394:11419   */\n      swap3\n      pop\n        /* \"#utility.yul\":11443:11444   */\n      dup3\n        /* \"#utility.yul\":11440:11441   */\n      dup3\n        /* \"#utility.yul\":11436:11445   */\n      sub\n        /* \"#utility.yul\":11428:11445   */\n      swap1\n      pop\n        /* \"#utility.yul\":11467:11468   */\n      dup2\n        /* \"#utility.yul\":11461:11465   */\n      dup2\n        /* \"#utility.yul\":11458:11469   */\n      gt\n        /* \"#utility.yul\":11455:11492   */\n      iszero\n      tag_329\n      jumpi\n        /* \"#utility.yul\":11472:11490   */\n      tag_330\n      tag_185\n      jump\t// in\n    tag_330:\n        /* \"#utility.yul\":11455:11492   */\n    tag_329:\n        /* \"#utility.yul\":11305:11499   */\n      swap3\n      swap2\n      pop\n      pop\n      jump\t// out\n        /* \"#utility.yul\":11505:11696   */\n    tag_57:\n        /* \"#utility.yul\":11545:11548   */\n      0x00\n        /* \"#utility.yul\":11564:11584   */\n      tag_332\n        /* \"#utility.yul\":11582:11583   */\n      dup3\n        /* \"#utility.yul\":11564:11584   */\n      tag_145\n      jump\t// in\n    tag_332:\n        /* \"#utility.yul\":11559:11584   */\n      swap2\n      pop\n        /* \"#utility.yul\":11598:11618   */\n      tag_333\n        /* \"#utility.yul\":11616:11617   */\n      dup4\n        /* \"#utility.yul\":11598:11618   */\n      tag_145\n      jump\t// in\n    tag_333:\n        /* \"#utility.yul\":11593:11618   */\n      swap3\n      pop\n        /* \"#utility.yul\":11641:11642   */\n      dup3\n        /* \"#utility.yul\":11638:11639   */\n      dup3\n        /* \"#utility.yul\":11634:11643   */\n      add\n        /* \"#utility.yul\":11627:11643   */\n      swap1\n      pop\n        /* \"#utility.yul\":11662:11665   */\n      dup1\n        /* \"#utility.yul\":11659:11660   */\n      dup3\n        /* \"#utility.yul\":11656:11666   */\n      gt\n        /* \"#utility.yul\":11653:11689   */\n      iszero\n      tag_334\n      jumpi\n        /* \"#utility.yul\":11669:11687   */\n      tag_335\n      tag_185\n      jump\t// in\n    tag_335:\n        /* \"#utility.yul\":11653:11689   */\n    tag_334:\n        /* \"#utility.yul\":11505:11696   */\n      swap3\n      swap2\n      pop\n      pop\n      jump\t// out\n        /* \"#utility.yul\":11702:11882   */\n    tag_186:\n        /* \"#utility.yul\":11750:11827   */\n      0x4e487b7100000000000000000000000000000000000000000000000000000000\n        /* \"#utility.yul\":11747:11748   */\n      0x00\n        /* \"#utility.yul\":11740:11828   */\n      mstore\n        /* \"#utility.yul\":11847:11851   */\n      0x22\n        /* \"#utility.yul\":11844:11845   */\n      0x04\n        /* \"#utility.yul\":11837:11852   */\n      mstore\n        /* \"#utility.yul\":11871:11875   */\n      0x24\n        /* \"#utility.yul\":11868:11869   */\n      0x00\n        /* \"#utility.yul\":11861:11876   */\n      revert\n        /* \"#utility.yul\":11888:12208   */\n    tag_124:\n        /* \"#utility.yul\":11932:11938   */\n      0x00\n        /* \"#utility.yul\":11969:11970   */\n      0x02\n        /* \"#utility.yul\":11963:11967   */\n      dup3\n        /* \"#utility.yul\":11959:11971   */\n      div\n        /* \"#utility.yul\":11949:11971   */\n      swap1\n      pop\n        /* \"#utility.yul\":12016:12017   */\n      0x01\n        /* \"#utility.yul\":12010:12014   */\n      dup3\n        /* \"#utility.yul\":12006:12018   */\n      and\n        /* \"#utility.yul\":12037:12055   */\n      dup1\n        /* \"#utility.yul\":12027:12108   */\n      tag_338\n      jumpi\n        /* \"#utility.yul\":12093:12097   */\n      0x7f\n        /* \"#utility.yul\":12085:12091   */\n      dup3\n        /* \"#utility.yul\":12081:12098   */\n      and\n        /* \"#utility.yul\":12071:12098   */\n      swap2\n      pop\n        /* \"#utility.yul\":12027:12108   */\n    tag_338:\n        /* \"#utility.yul\":12155:12157   */\n      0x20\n        /* \"#utility.yul\":12147:12153   */\n      dup3\n        /* \"#utility.yul\":12144:12158   */\n      lt\n        /* \"#utility.yul\":12124:12142   */\n      dup2\n        /* \"#utility.yul\":12121:12159   */\n      sub\n        /* \"#utility.yul\":12118:12202   */\n      tag_339\n      jumpi\n        /* \"#utility.yul\":12174:12192   */\n      tag_340\n      tag_186\n      jump\t// in\n    tag_340:\n        /* \"#utility.yul\":12118:12202   */\n    tag_339:\n        /* \"#utility.yul\":11939:12208   */\n      pop\n        /* \"#utility.yul\":11888:12208   */\n      swap2\n      swap1\n      pop\n      jump\t// out\n        /* \"#utility.yul\":12214:12363   */\n    tag_187:\n        /* \"#utility.yul\":12263:12269   */\n      0x00\n        /* \"#utility.yul\":12297:12302   */\n      dup2\n        /* \"#utility.yul\":12291:12303   */\n      sload\n        /* \"#utility.yul\":12281:12303   */\n      swap1\n      pop\n        /* \"#utility.yul\":12323:12356   */\n      tag_342\n        /* \"#utility.yul\":12349:12355   */\n      dup2\n        /* \"#utility.yul\":12323:12356   */\n      tag_124\n      jump\t// in\n    tag_342:\n        /* \"#utility.yul\":12313:12356   */\n      swap1\n      pop\n        /* \"#utility.yul\":12214:12363   */\n      swap2\n      swap1\n      pop\n      jump\t// out\n        /* \"#utility.yul\":12369:12510   */\n    tag_188:\n        /* \"#utility.yul\":12418:12422   */\n      0x00\n        /* \"#utility.yul\":12441:12444   */\n      dup2\n        /* \"#utility.yul\":12433:12444   */\n      swap1\n      pop\n        /* \"#utility.yul\":12464:12467   */\n      dup2\n        /* \"#utility.yul\":12461:12462   */\n      0x00\n        /* \"#utility.yul\":12454:12468   */\n      mstore\n        /* \"#utility.yul\":12498:12502   */\n      0x20\n        /* \"#utility.yul\":12495:12496   */\n      0x00\n        /* \"#utility.yul\":12485:12503   */\n      keccak256\n        /* \"#utility.yul\":12477:12503   */\n      swap1\n      pop\n        /* \"#utility.yul\":12369:12510   */\n      swap2\n      swap1\n      pop\n      jump\t// out\n        /* \"#utility.yul\":12516:12609   */\n    tag_189:\n        /* \"#utility.yul\":12553:12559   */\n      0x00\n        /* \"#utility.yul\":12600:12602   */\n      0x20\n        /* \"#utility.yul\":12595:12597   */\n      0x1f\n        /* \"#utility.yul\":12588:12593   */\n      dup4\n        /* \"#utility.yul\":12584:12598   */\n      add\n        /* \"#utility.yul\":12580:12603   */\n      div\n        /* \"#utility.yul\":12570:12603   */\n      swap1\n      pop\n        /* \"#utility.yul\":12516:12609   */\n      swap2\n      swap1\n      pop\n      jump\t// out\n        /* \"#utility.yul\":12615:12722   */\n    tag_190:\n        /* \"#utility.yul\":12659:12667   */\n      0x00\n        /* \"#utility.yul\":12709:12714   */\n      dup3\n        /* \"#utility.yul\":12703:12707   */\n      dup3\n        /* \"#utility.yul\":12699:12715   */\n      shl\n        /* \"#utility.yul\":12678:12715   */\n      swap1\n      pop\n        /* \"#utility.yul\":12615:12722   */\n      swap3\n      swap2\n      pop\n      pop\n      jump\t// out\n        /* \"#utility.yul\":12728:13121   */\n    tag_191:\n        /* \"#utility.yul\":12797:12803   */\n      0x00\n        /* \"#utility.yul\":12847:12848   */\n      0x08\n        /* \"#utility.yul\":12835:12845   */\n      dup4\n        /* \"#utility.yul\":12831:12849   */\n      mul\n        /* \"#utility.yul\":12870:12967   */\n      tag_347\n        /* \"#utility.yul\":12900:12966   */\n      0xffffffffffffffffffffffffffffffffffffffffffffffffffffffffffffffff\n        /* \"#utility.yul\":12889:12898   */\n      dup3\n        /* \"#utility.yul\":12870:12967   */\n      tag_190\n      jump\t// in\n    tag_347:\n        /* \"#utility.yul\":12988:13027   */\n      tag_348\n        /* \"#utility.yul\":13018:13026   */\n      dup7\n        /* \"#utility.yul\":13007:13016   */\n      dup4\n        /* \"#utility.yul\":12988:13027   */\n      tag_190\n      jump\t// in\n    tag_348:\n        /* \"#utility.yul\":12976:13027   */\n      swap6\n      pop\n        /* \"#utility.yul\":13060:13064   */\n      dup1\n        /* \"#utility.yul\":13056:13065   */\n      not\n        /* \"#utility.yul\":13049:13054   */\n      dup5\n        /* \"#utility.yul\":13045:13066   */\n      and\n        /* \"#utility.yul\":13036:13066   */\n      swap4\n      pop\n        /* \"#utility.yul\":13109:13113   */\n      dup1\n        /* \"#utility.yul\":13099:13107   */\n      dup7\n        /* \"#utility.yul\":13095:13114   */\n      and\n        /* \"#utility.yul\":13088:13093   */\n      dup5\n        /* \"#utility.yul\":13085:13115   */\n      or\n        /* \"#utility.yul\":13075:13115   */\n      swap3\n      pop\n        /* \"#utility.yul\":12804:13121   */\n      pop\n      pop\n        /* \"#utility.yul\":12728:13121   */\n      swap4\n      swap3\n      pop\n      pop\n      pop\n      jump\t// out\n        /* \"#utility.yul\":13127:13187   */\n    tag_192:\n        /* \"#utility.yul\":13155:13158   */\n      0x00\n        /* \"#utility.yul\":13176:13181   */\n      dup2\n        /* \"#utility.yul\":13169:13181   */\n      swap1\n      pop\n        /* \"#utility.yul\":13127:13187   */\n      swap2\n      swap1\n      pop\n      jump\t// out\n        /* \"#utility.yul\":13193:13335   */\n    tag_193:\n        /* \"#utility.yul\":13243:13252   */\n      0x00\n        /* \"#utility.yul\":13276:13329   */\n      tag_351\n        /* \"#utility.yul\":13294:13328   */\n      tag_352\n        /* \"#utility.yul\":13303:13327   */\n      tag_353\n        /* \"#utility.yul\":13321:13326   */\n      dup5\n        /* \"#utility.yul\":13303:13327   */\n      tag_145\n      jump\t// in\n    tag_353:\n        /* \"#utility.yul\":13294:13328   */\n      tag_192\n      jump\t// in\n    tag_352:\n        /* \"#utility.yul\":13276:13329   */\n      tag_145\n      jump\t// in\n    tag_351:\n        /* \"#utility.yul\":13263:13329   */\n      swap1\n      pop\n        /* \"#utility.yul\":13193:13335   */\n      swap2\n      swap1\n      pop\n      jump\t// out\n        /* \"#utility.yul\":13341:13416   */\n    tag_194:\n        /* \"#utility.yul\":13384:13387   */\n      0x00\n        /* \"#utility.yul\":13405:13410   */\n      dup2\n        /* \"#utility.yul\":13398:13410   */\n      swap1\n      pop\n        /* \"#utility.yul\":13341:13416   */\n      swap2\n      swap1\n      pop\n      jump\t// out\n        /* \"#utility.yul\":13422:13691   */\n    tag_195:\n        /* \"#utility.yul\":13532:13571   */\n      tag_356\n        /* \"#utility.yul\":13563:13570   */\n      dup4\n        /* \"#utility.yul\":13532:13571   */\n      tag_193\n      jump\t// in\n    tag_356:\n        /* \"#utility.yul\":13593:13684   */\n      tag_357\n        /* \"#utility.yul\":13642:13683   */\n      tag_358\n        /* \"#utility.yul\":13666:13682   */\n      dup3\n        /* \"#utility.yul\":13642:13683   */\n      tag_194\n      jump\t// in\n    tag_358:\n        /* \"#utility.yul\":13634:13640   */\n      dup5\n        /* \"#utility.yul\":13627:13631   */\n      dup5\n        /* \"#utility.yul\":13621:13632   */\n      sload\n        /* \"#utility.yul\":13593:13684   */\n      tag_191\n      jump\t// in\n    tag_357:\n        /* \"#utility.yul\":13587:13591   */\n      dup3\n        /* \"#utility.yul\":13580:13685   */\n      sstore\n        /* \"#utility.yul\":13498:13691   */\n      pop\n        /* \"#utility.yul\":13422:13691   */\n      pop\n      pop\n      pop\n      jump\t// out\n        /* \"#utility.yul\":13697:13770   */\n    tag_196:\n        /* \"#utility.yul\":13742:13745   */\n      0x00\n        /* \"#utility.yul\":13763:13764   */\n      0x00\n        /* \"#utility.yul\":13756:13764   */\n      swap1\n      pop\n        /* \"#utility.yul\":13697:13770   */\n      swap1\n      jump\t// out\n        /* \"#utility.yul\":13776:13965   */\n    tag_197:\n        /* \"#utility.yul\":13853:13885   */\n      tag_361\n      tag_196\n      jump\t// in\n    tag_361:\n        /* \"#utility.yul\":13894:13959   */\n      tag_362\n        /* \"#utility.yul\":13952:13958   */\n      dup2\n        /* \"#utility.yul\":13944:13950   */\n      dup5\n        /* \"#utility.yul\":13938:13942   */\n      dup5\n        /* \"#utility.yul\":13894:13959   */\n      tag_195\n      jump\t// in\n    tag_362:\n        /* \"#utility.yul\":13829:13965   */\n      pop\n        /* \"#utility.yul\":13776:13965   */\n      pop\n      pop\n      jump\t// out\n        /* \"#utility.yul\":13971:14157   */\n    tag_198:\n        /* \"#utility.yul\":14031:14151   */\n    tag_364:\n        /* \"#utility.yul\":14048:14051   */\n      dup2\n        /* \"#utility.yul\":14041:14046   */\n      dup2\n        /* \"#utility.yul\":14038:14052   */\n      lt\n        /* \"#utility.yul\":14031:14151   */\n      iszero\n      tag_366\n      jumpi\n        /* \"#utility.yul\":14102:14141   */\n      tag_367\n        /* \"#utility.yul\":14139:14140   */\n      0x00\n        /* \"#utility.yul\":14132:14137   */\n      dup3\n        /* \"#utility.yul\":14102:14141   */\n      tag_197\n      jump\t// in\n    tag_367:\n        /* \"#utility.yul\":14075:14076   */\n      0x01\n        /* \"#utility.yul\":14068:14073   */\n      dup2\n        /* \"#utility.yul\":14064:14077   */\n      add\n        /* \"#utility.yul\":14055:14077   */\n      swap1\n      pop\n        /* \"#utility.yul\":14031:14151   */\n      jump(tag_364)\n    tag_366:\n        /* \"#utility.yul\":13971:14157   */\n      pop\n      pop\n      jump\t// out\n        /* \"#utility.yul\":14163:14706   */\n    tag_199:\n        /* \"#utility.yul\":14264:14266   */\n      0x1f\n        /* \"#utility.yul\":14259:14262   */\n      dup3\n        /* \"#utility.yul\":14256:14267   */\n      gt\n        /* \"#utility.yul\":14253:14699   */\n      iszero\n      tag_369\n      jumpi\n        /* \"#utility.yul\":14298:14336   */\n      tag_370\n        /* \"#utility.yul\":14330:14335   */\n      dup2\n        /* \"#utility.yul\":14298:14336   */\n      tag_188\n      jump\t// in\n    tag_370:\n        /* \"#utility.yul\":14382:14411   */\n      tag_371\n        /* \"#utility.yul\":14400:14410   */\n      dup5\n        /* \"#utility.yul\":14382:14411   */\n      tag_189\n      jump\t// in\n    tag_371:\n        /* \"#utility.yul\":14372:14380   */\n      dup2\n        /* \"#utility.yul\":14368:14412   */\n      add\n        /* \"#utility.yul\":14565:14567   */\n      0x20\n        /* \"#utility.yul\":14553:14563   */\n      dup6\n        /* \"#utility.yul\":14550:14568   */\n      lt\n        /* \"#utility.yul\":14547:14596   */\n      iszero\n      tag_372\n      jumpi\n        /* \"#utility.yul\":14586:14594   */\n      dup2\n        /* \"#utility.yul\":14571:14594   */\n      swap1\n      pop\n        /* \"#utility.yul\":14547:14596   */\n    tag_372:\n        /* \"#utility.yul\":14609:14689   */\n      tag_373\n        /* \"#utility.yul\":14665:14687   */\n      tag_374\n        /* \"#utility.yul\":14683:14686   */\n      dup6\n        /* \"#utility.yul\":14665:14687   */\n      tag_189\n      jump\t// in\n    tag_374:\n        /* \"#utility.yul\":14655:14663   */\n      dup4\n        /* \"#utility.yul\":14651:14688   */\n      add\n        /* \"#utility.yul\":14638:14649   */\n      dup3\n        /* \"#utility.yul\":14609:14689   */\n      tag_198\n      jump\t// in\n    tag_373:\n        /* \"#utility.yul\":14268:14699   */\n      pop\n      pop\n        /* \"#utility.yul\":14253:14699   */\n    tag_369:\n        /* \"#utility.yul\":14163:14706   */\n      pop\n      pop\n      pop\n      jump\t// out\n        /* \"#utility.yul\":14712:14829   */\n    tag_200:\n        /* \"#utility.yul\":14766:14774   */\n      0x00\n        /* \"#utility.yul\":14816:14821   */\n      dup3\n        /* \"#utility.yul\":14810:14814   */\n      dup3\n        /* \"#utility.yul\":14806:14822   */\n      shr\n        /* \"#utility.yul\":14785:14822   */\n      swap1\n      pop\n        /* \"#utility.yul\":14712:14829   */\n      swap3\n      swap2\n      pop\n      pop\n      jump\t// out\n        /* \"#utility.yul\":14835:15004   */\n    tag_201:\n        /* \"#utility.yul\":14879:14885   */\n      0x00\n        /* \"#utility.yul\":14912:14963   */\n      tag_377\n        /* \"#utility.yul\":14960:14961   */\n      0x00\n        /* \"#utility.yul\":14956:14962   */\n      not\n        /* \"#utility.yul\":14948:14953   */\n      dup5\n        /* \"#utility.yul\":14945:14946   */\n      0x08\n        /* \"#utility.yul\":14941:14954   */\n      mul\n        /* \"#utility.yul\":14912:14963   */\n      tag_200\n      jump\t// in\n    tag_377:\n        /* \"#utility.yul\":14908:14964   */\n      not\n        /* \"#utility.yul\":14993:14997   */\n      dup1\n        /* \"#utility.yul\":14987:14991   */\n      dup4\n        /* \"#utility.yul\":14983:14998   */\n      and\n        /* \"#utility.yul\":14973:14998   */\n      swap2\n      pop\n        /* \"#utility.yul\":14886:15004   */\n      pop\n        /* \"#utility.yul\":14835:15004   */\n      swap3\n      swap2\n      pop\n      pop\n      jump\t// out\n        /* \"#utility.yul\":15009:15304   */\n    tag_202:\n        /* \"#utility.yul\":15085:15089   */\n      0x00\n        /* \"#utility.yul\":15231:15260   */\n      tag_379\n        /* \"#utility.yul\":15256:15259   */\n      dup4\n        /* \"#utility.yul\":15250:15254   */\n      dup4\n        /* \"#utility.yul\":15231:15260   */\n      tag_201\n      jump\t// in\n    tag_379:\n        /* \"#utility.yul\":15223:15260   */\n      swap2\n      pop\n        /* \"#utility.yul\":15293:15296   */\n      dup3\n        /* \"#utility.yul\":15290:15291   */\n      0x02\n        /* \"#utility.yul\":15286:15297   */\n      mul\n        /* \"#utility.yul\":15280:15284   */\n      dup3\n        /* \"#utility.yul\":15277:15298   */\n      or\n        /* \"#utility.yul\":15269:15298   */\n      swap1\n      pop\n        /* \"#utility.yul\":15009:15304   */\n      swap3\n      swap2\n      pop\n      pop\n      jump\t// out\n        /* \"#utility.yul\":15309:16760   */\n    tag_65:\n        /* \"#utility.yul\":15420:15423   */\n      dup2\n        /* \"#utility.yul\":15414:15418   */\n      dup2\n        /* \"#utility.yul\":15411:15424   */\n      sub\n        /* \"#utility.yul\":15408:15434   */\n      tag_381\n      jumpi\n        /* \"#utility.yul\":15427:15432   */\n      pop\n      pop\n      jump(tag_380)\n        /* \"#utility.yul\":15408:15434   */\n    tag_381:\n        /* \"#utility.yul\":15458:15492   */\n      tag_382\n        /* \"#utility.yul\":15488:15491   */\n      dup3\n        /* \"#utility.yul\":15458:15492   */\n      tag_187\n      jump\t// in\n    tag_382:\n        /* \"#utility.yul\":15557:15575   */\n      0xffffffffffffffff\n        /* \"#utility.yul\":15549:15555   */\n      dup2\n        /* \"#utility.yul\":15546:15576   */\n      gt\n        /* \"#utility.yul\":15543:15599   */\n      iszero\n      tag_383\n      jumpi\n        /* \"#utility.yul\":15579:15597   */\n      tag_384\n      tag_160\n      jump\t// in\n    tag_384:\n        /* \"#utility.yul\":15543:15599   */\n    tag_383:\n        /* \"#utility.yul\":15623:15661   */\n      tag_385\n        /* \"#utility.yul\":15655:15659   */\n      dup3\n        /* \"#utility.yul\":15649:15660   */\n      sload\n        /* \"#utility.yul\":15623:15661   */\n      tag_124\n      jump\t// in\n    tag_385:\n        /* \"#utility.yul\":15708:15775   */\n      tag_386\n        /* \"#utility.yul\":15768:15774   */\n      dup3\n        /* \"#utility.yul\":15760:15766   */\n      dup3\n        /* \"#utility.yul\":15754:15758   */\n      dup6\n        /* \"#utility.yul\":15708:15775   */\n      tag_199\n      jump\t// in\n    tag_386:\n        /* \"#utility.yul\":15802:15803   */\n      0x00\n        /* \"#utility.yul\":15831:15833   */\n      0x1f\n        /* \"#utility.yul\":15823:15829   */\n      dup4\n        /* \"#utility.yul\":15820:15834   */\n      gt\n        /* \"#utility.yul\":15848:15849   */\n      0x01\n        /* \"#utility.yul\":15843:16515   */\n      dup2\n      eq\n      tag_388\n      jumpi\n        /* \"#utility.yul\":16559:16560   */\n      0x00\n        /* \"#utility.yul\":16576:16582   */\n      dup5\n        /* \"#utility.yul\":16573:16650   */\n      iszero\n      tag_389\n      jumpi\n        /* \"#utility.yul\":16625:16634   */\n      dup3\n        /* \"#utility.yul\":16620:16623   */\n      dup8\n        /* \"#utility.yul\":16616:16635   */\n      add\n        /* \"#utility.yul\":16610:16636   */\n      sload\n        /* \"#utility.yul\":16601:16636   */\n      swap1\n      pop\n        /* \"#utility.yul\":16573:16650   */\n    tag_389:\n        /* \"#utility.yul\":16676:16743   */\n      tag_390\n        /* \"#utility.yul\":16736:16742   */\n      dup6\n        /* \"#utility.yul\":16729:16734   */\n      dup3\n        /* \"#utility.yul\":16676:16743   */\n      tag_202\n      jump\t// in\n    tag_390:\n        /* \"#utility.yul\":16670:16674   */\n      dup7\n        /* \"#utility.yul\":16663:16744   */\n      sstore\n        /* \"#utility.yul\":16532:16754   */\n      pop\n        /* \"#utility.yul\":15813:16754   */\n      jump(tag_387)\n        /* \"#utility.yul\":15843:16515   */\n    tag_388:\n        /* \"#utility.yul\":15895:15899   */\n      0x1f\n        /* \"#utility.yul\":15891:15900   */\n      not\n        /* \"#utility.yul\":15883:15889   */\n      dup5\n        /* \"#utility.yul\":15879:15901   */\n      and\n        /* \"#utility.yul\":15921:15957   */\n      tag_391\n        /* \"#utility.yul\":15953:15956   */\n      dup8\n        /* \"#utility.yul\":15921:15957   */\n      tag_188\n      jump\t// in\n    tag_391:\n        /* \"#utility.yul\":15914:15957   */\n      swap7\n      pop\n        /* \"#utility.yul\":15984:16021   */\n      tag_392\n        /* \"#utility.yul\":16016:16020   */\n      dup7\n        /* \"#utility.yul\":15984:16021   */\n      tag_188\n      jump\t// in\n    tag_392:\n        /* \"#utility.yul\":16043:16044   */\n      0x00\n        /* \"#utility.yul\":16057:16264   */\n    tag_393:\n        /* \"#utility.yul\":16071:16078   */\n      dup3\n        /* \"#utility.yul\":16068:16069   */\n      dup2\n        /* \"#utility.yul\":16065:16079   */\n      lt\n        /* \"#utility.yul\":16057:16264   */\n      iszero\n      tag_395\n      jumpi\n        /* \"#utility.yul\":16150:16159   */\n      dup5\n        /* \"#utility.yul\":16145:16148   */\n      dup10\n        /* \"#utility.yul\":16141:16160   */\n      add\n        /* \"#utility.yul\":16135:16161   */\n      sload\n        /* \"#utility.yul\":16127:16133   */\n      dup3\n        /* \"#utility.yul\":16120:16162   */\n      sstore\n        /* \"#utility.yul\":16201:16202   */\n      0x01\n        /* \"#utility.yul\":16193:16199   */\n      dup3\n        /* \"#utility.yul\":16189:16203   */\n      add\n        /* \"#utility.yul\":16179:16203   */\n      swap2\n      pop\n        /* \"#utility.yul\":16248:16249   */\n      0x01\n        /* \"#utility.yul\":16237:16246   */\n      dup6\n        /* \"#utility.yul\":16233:16250   */\n      add\n        /* \"#utility.yul\":16220:16250   */\n      swap5\n      pop\n        /* \"#utility.yul\":16094:16098   */\n      0x20\n        /* \"#utility.yul\":16091:16092   */\n      dup2\n        /* \"#utility.yul\":16087:16099   */\n      add\n        /* \"#utility.yul\":16082:16099   */\n      swap1\n      pop\n        /* \"#utility.yul\":16057:16264   */\n      jump(tag_393)\n    tag_395:\n        /* \"#utility.yul\":16292:16298   */\n      dup7\n        /* \"#utility.yul\":16283:16290   */\n      dup4\n        /* \"#utility.yul\":16280:16299   */\n      lt\n        /* \"#utility.yul\":16277:16456   */\n      iszero\n      tag_396\n      jumpi\n        /* \"#utility.yul\":16350:16359   */\n      dup5\n        /* \"#utility.yul\":16345:16348   */\n      dup10\n        /* \"#utility.yul\":16341:16360   */\n      add\n        /* \"#utility.yul\":16335:16361   */\n      sload\n        /* \"#utility.yul\":16393:16441   */\n      tag_397\n        /* \"#utility.yul\":16435:16439   */\n      0x1f\n        /* \"#utility.yul\":16427:16433   */\n      dup10\n        /* \"#utility.yul\":16423:16440   */\n      and\n        /* \"#utility.yul\":16412:16421   */\n      dup3\n        /* \"#utility.yul\":16393:16441   */\n      tag_201\n      jump\t// in\n    tag_397:\n        /* \"#utility.yul\":16385:16391   */\n      dup4\n        /* \"#utility.yul\":16378:16442   */\n      sstore\n        /* \"#utility.yul\":16300:16456   */\n      pop\n        /* \"#utility.yul\":16277:16456   */\n    tag_396:\n        /* \"#utility.yul\":16502:16503   */\n      0x01\n        /* \"#utility.yul\":16498:16499   */\n      0x02\n        /* \"#utility.yul\":16490:16496   */\n      dup9\n        /* \"#utility.yul\":16486:16500   */\n      mul\n        /* \"#utility.yul\":16482:16504   */\n      add\n        /* \"#utility.yul\":16476:16480   */\n      dup9\n        /* \"#utility.yul\":16469:16505   */\n      sstore\n        /* \"#utility.yul\":15850:16515   */\n      pop\n      pop\n      pop\n        /* \"#utility.yul\":15813:16754   */\n    tag_387:\n      pop\n        /* \"#utility.yul\":15398:16760   */\n      pop\n      pop\n      pop\n        /* \"#utility.yul\":15309:16760   */\n      pop\n      pop\n    tag_380:\n      jump\t// out\n        /* \"#utility.yul\":16766:16946   */\n    tag_68:\n        /* \"#utility.yul\":16814:16891   */\n      0x4e487b7100000000000000000000000000000000000000000000000000000000\n        /* \"#utility.yul\":16811:16812   */\n      0x00\n        /* \"#utility.yul\":16804:16892   */\n      mstore\n        /* \"#utility.yul\":16911:16915   */\n      0x31\n        /* \"#utility.yul\":16908:16909   */\n      0x04\n        /* \"#utility.yul\":16901:16916   */\n      mstore\n        /* \"#utility.yul\":16935:16939   */\n      0x24\n        /* \"#utility.yul\":16932:16933   */\n      0x00\n        /* \"#utility.yul\":16925:16940   */\n      revert\n        /* \"#utility.yul\":16952:17110   */\n    tag_203:\n        /* \"#utility.yul\":17092:17102   */\n      0x4e6f204d6f6e6579000000000000000000000000000000000000000000000000\n        /* \"#utility.yul\":17088:17089   */\n      0x00\n        /* \"#utility.yul\":17080:17086   */\n      dup3\n        /* \"#utility.yul\":17076:17090   */\n      add\n        /* \"#utility.yul\":17069:17103   */\n      mstore\n        /* \"#utility.yul\":16952:17110   */\n      pop\n      jump\t// out\n        /* \"#utility.yul\":17116:17481   */\n    tag_204:\n        /* \"#utility.yul\":17258:17261   */\n      0x00\n        /* \"#utility.yul\":17279:17345   */\n      tag_401\n        /* \"#utility.yul\":17343:17344   */\n      0x08\n        /* \"#utility.yul\":17338:17341   */\n      dup4\n        /* \"#utility.yul\":17279:17345   */\n      tag_182\n      jump\t// in\n    tag_401:\n        /* \"#utility.yul\":17272:17345   */\n      swap2\n      pop\n        /* \"#utility.yul\":17354:17447   */\n      tag_402\n        /* \"#utility.yul\":17443:17446   */\n      dup3\n        /* \"#utility.yul\":17354:17447   */\n      tag_203\n      jump\t// in\n    tag_402:\n        /* \"#utility.yul\":17472:17474   */\n      0x20\n        /* \"#utility.yul\":17467:17470   */\n      dup3\n        /* \"#utility.yul\":17463:17475   */\n      add\n        /* \"#utility.yul\":17456:17475   */\n      swap1\n      pop\n        /* \"#utility.yul\":17116:17481   */\n      swap2\n      swap1\n      pop\n      jump\t// out\n        /* \"#utility.yul\":17487:17906   */\n    tag_76:\n        /* \"#utility.yul\":17653:17657   */\n      0x00\n        /* \"#utility.yul\":17691:17693   */\n      0x20\n        /* \"#utility.yul\":17680:17689   */\n      dup3\n        /* \"#utility.yul\":17676:17694   */\n      add\n        /* \"#utility.yul\":17668:17694   */\n      swap1\n      pop\n        /* \"#utility.yul\":17740:17749   */\n      dup2\n        /* \"#utility.yul\":17734:17738   */\n      dup2\n        /* \"#utility.yul\":17730:17750   */\n      sub\n        /* \"#utility.yul\":17726:17727   */\n      0x00\n        /* \"#utility.yul\":17715:17724   */\n      dup4\n        /* \"#utility.yul\":17711:17728   */\n      add\n        /* \"#utility.yul\":17704:17751   */\n      mstore\n        /* \"#utility.yul\":17768:17899   */\n      tag_404\n        /* \"#utility.yul\":17894:17898   */\n      dup2\n        /* \"#utility.yul\":17768:17899   */\n      tag_204\n      jump\t// in\n    tag_404:\n        /* \"#utility.yul\":17760:17899   */\n      swap1\n      pop\n        /* \"#utility.yul\":17487:17906   */\n      swap2\n      swap1\n      pop\n      jump\t// out\n        /* \"#utility.yul\":17912:18079   */\n    tag_205:\n        /* \"#utility.yul\":18052:18071   */\n      0x4e6f205761697472657373206164646564000000000000000000000000000000\n        /* \"#utility.yul\":18048:18049   */\n      0x00\n        /* \"#utility.yul\":18040:18046   */\n      dup3\n        /* \"#utility.yul\":18036:18050   */\n      add\n        /* \"#utility.yul\":18029:18072   */\n      mstore\n        /* \"#utility.yul\":17912:18079   */\n      pop\n      jump\t// out\n        /* \"#utility.yul\":18085:18451   */\n    tag_206:\n        /* \"#utility.yul\":18227:18230   */\n      0x00\n        /* \"#utility.yul\":18248:18315   */\n      tag_407\n        /* \"#utility.yul\":18312:18314   */\n      0x11\n        /* \"#utility.yul\":18307:18310   */\n      dup4\n        /* \"#utility.yul\":18248:18315   */\n      tag_182\n      jump\t// in\n    tag_407:\n        /* \"#utility.yul\":18241:18315   */\n      swap2\n      pop\n        /* \"#utility.yul\":18324:18417   */\n      tag_408\n        /* \"#utility.yul\":18413:18416   */\n      dup3\n        /* \"#utility.yul\":18324:18417   */\n      tag_205\n      jump\t// in\n    tag_408:\n        /* \"#utility.yul\":18442:18444   */\n      0x20\n        /* \"#utility.yul\":18437:18440   */\n      dup3\n        /* \"#utility.yul\":18433:18445   */\n      add\n        /* \"#utility.yul\":18426:18445   */\n      swap1\n      pop\n        /* \"#utility.yul\":18085:18451   */\n      swap2\n      swap1\n      pop\n      jump\t// out\n        /* \"#utility.yul\":18457:18876   */\n    tag_79:\n        /* \"#utility.yul\":18623:18627   */\n      0x00\n        /* \"#utility.yul\":18661:18663   */\n      0x20\n        /* \"#utility.yul\":18650:18659   */\n      dup3\n        /* \"#utility.yul\":18646:18664   */\n      add\n        /* \"#utility.yul\":18638:18664   */\n      swap1\n      pop\n        /* \"#utility.yul\":18710:18719   */\n      dup2\n        /* \"#utility.yul\":18704:18708   */\n      dup2\n        /* \"#utility.yul\":18700:18720   */\n      sub\n        /* \"#utility.yul\":18696:18697   */\n      0x00\n        /* \"#utility.yul\":18685:18694   */\n      dup4\n        /* \"#utility.yul\":18681:18698   */\n      add\n        /* \"#utility.yul\":18674:18721   */\n      mstore\n        /* \"#utility.yul\":18738:18869   */\n      tag_410\n        /* \"#utility.yul\":18864:18868   */\n      dup2\n        /* \"#utility.yul\":18738:18869   */\n      tag_206\n      jump\t// in\n    tag_410:\n        /* \"#utility.yul\":18730:18869   */\n      swap1\n      pop\n        /* \"#utility.yul\":18457:18876   */\n      swap2\n      swap1\n      pop\n      jump\t// out\n        /* \"#utility.yul\":18882:19292   */\n    tag_87:\n        /* \"#utility.yul\":18922:18929   */\n      0x00\n        /* \"#utility.yul\":18945:18965   */\n      tag_412\n        /* \"#utility.yul\":18963:18964   */\n      dup3\n        /* \"#utility.yul\":18945:18965   */\n      tag_145\n      jump\t// in\n    tag_412:\n        /* \"#utility.yul\":18940:18965   */\n      swap2\n      pop\n        /* \"#utility.yul\":18979:18999   */\n      tag_413\n        /* \"#utility.yul\":18997:18998   */\n      dup4\n        /* \"#utility.yul\":18979:18999   */\n      tag_145\n      jump\t// in\n    tag_413:\n        /* \"#utility.yul\":18974:18999   */\n      swap3\n      pop\n        /* \"#utility.yul\":19034:19035   */\n      dup3\n        /* \"#utility.yul\":19031:19032   */\n      dup3\n        /* \"#utility.yul\":19027:19036   */\n      mul\n        /* \"#utility.yul\":19056:19086   */\n      tag_414\n        /* \"#utility.yul\":19074:19085   */\n      dup2\n        /* \"#utility.yul\":19056:19086   */\n      tag_145\n      jump\t// in\n    tag_414:\n        /* \"#utility.yul\":19045:19086   */\n      swap2\n      pop\n        /* \"#utility.yul\":19235:19236   */\n      dup3\n        /* \"#utility.yul\":19226:19233   */\n      dup3\n        /* \"#utility.yul\":19222:19237   */\n      div\n        /* \"#utility.yul\":19219:19220   */\n      dup5\n        /* \"#utility.yul\":19216:19238   */\n      eq\n        /* \"#utility.yul\":19196:19197   */\n      dup4\n        /* \"#utility.yul\":19189:19198   */\n      iszero\n        /* \"#utility.yul\":19169:19252   */\n      or\n        /* \"#utility.yul\":19146:19285   */\n      tag_415\n      jumpi\n        /* \"#utility.yul\":19265:19283   */\n      tag_416\n      tag_185\n      jump\t// in\n    tag_416:\n        /* \"#utility.yul\":19146:19285   */\n    tag_415:\n        /* \"#utility.yul\":18930:19292   */\n      pop\n        /* \"#utility.yul\":18882:19292   */\n      swap3\n      swap2\n      pop\n      pop\n      jump\t// out\n        /* \"#utility.yul\":19298:19478   */\n    tag_207:\n        /* \"#utility.yul\":19346:19423   */\n      0x4e487b7100000000000000000000000000000000000000000000000000000000\n        /* \"#utility.yul\":19343:19344   */\n      0x00\n        /* \"#utility.yul\":19336:19424   */\n      mstore\n        /* \"#utility.yul\":19443:19447   */\n      0x12\n        /* \"#utility.yul\":19440:19441   */\n      0x04\n        /* \"#utility.yul\":19433:19448   */\n      mstore\n        /* \"#utility.yul\":19467:19471   */\n      0x24\n        /* \"#utility.yul\":19464:19465   */\n      0x00\n        /* \"#utility.yul\":19457:19472   */\n      revert\n        /* \"#utility.yul\":19484:19669   */\n    tag_89:\n        /* \"#utility.yul\":19524:19525   */\n      0x00\n        /* \"#utility.yul\":19541:19561   */\n      tag_419\n        /* \"#utility.yul\":19559:19560   */\n      dup3\n        /* \"#utility.yul\":19541:19561   */\n      tag_145\n      jump\t// in\n    tag_419:\n        /* \"#utility.yul\":19536:19561   */\n      swap2\n      pop\n        /* \"#utility.yul\":19575:19595   */\n      tag_420\n        /* \"#utility.yul\":19593:19594   */\n      dup4\n        /* \"#utility.yul\":19575:19595   */\n      tag_145\n      jump\t// in\n    tag_420:\n        /* \"#utility.yul\":19570:19595   */\n      swap3\n      pop\n        /* \"#utility.yul\":19614:19615   */\n      dup3\n        /* \"#utility.yul\":19604:19639   */\n      tag_421\n      jumpi\n        /* \"#utility.yul\":19619:19637   */\n      tag_422\n      tag_207\n      jump\t// in\n    tag_422:\n        /* \"#utility.yul\":19604:19639   */\n    tag_421:\n        /* \"#utility.yul\":19661:19662   */\n      dup3\n        /* \"#utility.yul\":19658:19659   */\n      dup3\n        /* \"#utility.yul\":19654:19663   */\n      div\n        /* \"#utility.yul\":19649:19663   */\n      swap1\n      pop\n        /* \"#utility.yul\":19484:19669   */\n      swap3\n      swap2\n      pop\n      pop\n      jump\t// out\n        /* \"#utility.yul\":19675:19897   */\n    tag_208:\n        /* \"#utility.yul\":19815:19849   */\n      0x546f74616c2070657263656e746167652063616e6e6f74206578636565642031\n        /* \"#utility.yul\":19811:19812   */\n      0x00\n        /* \"#utility.yul\":19803:19809   */\n      dup3\n        /* \"#utility.yul\":19799:19813   */\n      add\n        /* \"#utility.yul\":19792:19850   */\n      mstore\n        /* \"#utility.yul\":19884:19889   */\n      0x3030250000000000000000000000000000000000000000000000000000000000\n        /* \"#utility.yul\":19879:19881   */\n      0x20\n        /* \"#utility.yul\":19871:19877   */\n      dup3\n        /* \"#utility.yul\":19867:19882   */\n      add\n        /* \"#utility.yul\":19860:19890   */\n      mstore\n        /* \"#utility.yul\":19675:19897   */\n      pop\n      jump\t// out\n        /* \"#utility.yul\":19903:20269   */\n    tag_209:\n        /* \"#utility.yul\":20045:20048   */\n      0x00\n        /* \"#utility.yul\":20066:20133   */\n      tag_425\n        /* \"#utility.yul\":20130:20132   */\n      0x23\n        /* \"#utility.yul\":20125:20128   */\n      dup4\n        /* \"#utility.yul\":20066:20133   */\n      tag_182\n      jump\t// in\n    tag_425:\n        /* \"#utility.yul\":20059:20133   */\n      swap2\n      pop\n        /* \"#utility.yul\":20142:20235   */\n      tag_426\n        /* \"#utility.yul\":20231:20234   */\n      dup3\n        /* \"#utility.yul\":20142:20235   */\n      tag_208\n      jump\t// in\n    tag_426:\n        /* \"#utility.yul\":20260:20262   */\n      0x40\n        /* \"#utility.yul\":20255:20258   */\n      dup3\n        /* \"#utility.yul\":20251:20263   */\n      add\n        /* \"#utility.yul\":20244:20263   */\n      swap1\n      pop\n        /* \"#utility.yul\":19903:20269   */\n      swap2\n      swap1\n      pop\n      jump\t// out\n        /* \"#utility.yul\":20275:20694   */\n    tag_103:\n        /* \"#utility.yul\":20441:20445   */\n      0x00\n        /* \"#utility.yul\":20479:20481   */\n      0x20\n        /* \"#utility.yul\":20468:20477   */\n      dup3\n        /* \"#utility.yul\":20464:20482   */\n      add\n        /* \"#utility.yul\":20456:20482   */\n      swap1\n      pop\n        /* \"#utility.yul\":20528:20537   */\n      dup2\n        /* \"#utility.yul\":20522:20526   */\n      dup2\n        /* \"#utility.yul\":20518:20538   */\n      sub\n        /* \"#utility.yul\":20514:20515   */\n      0x00\n        /* \"#utility.yul\":20503:20512   */\n      dup4\n        /* \"#utility.yul\":20499:20516   */\n      add\n        /* \"#utility.yul\":20492:20539   */\n      mstore\n        /* \"#utility.yul\":20556:20687   */\n      tag_428\n        /* \"#utility.yul\":20682:20686   */\n      dup2\n        /* \"#utility.yul\":20556:20687   */\n      tag_209\n      jump\t// in\n    tag_428:\n        /* \"#utility.yul\":20548:20687   */\n      swap1\n      pop\n        /* \"#utility.yul\":20275:20694   */\n      swap2\n      swap1\n      pop\n      jump\t// out\n        /* \"#utility.yul\":20700:22095   */\n    tag_114:\n        /* \"#utility.yul\":20817:20854   */\n      tag_430\n        /* \"#utility.yul\":20850:20853   */\n      dup3\n        /* \"#utility.yul\":20817:20854   */\n      tag_173\n      jump\t// in\n    tag_430:\n        /* \"#utility.yul\":20919:20937   */\n      0xffffffffffffffff\n        /* \"#utility.yul\":20911:20917   */\n      dup2\n        /* \"#utility.yul\":20908:20938   */\n      gt\n        /* \"#utility.yul\":20905:20961   */\n      iszero\n      tag_431\n      jumpi\n        /* \"#utility.yul\":20941:20959   */\n      tag_432\n      tag_160\n      jump\t// in\n    tag_432:\n        /* \"#utility.yul\":20905:20961   */\n    tag_431:\n        /* \"#utility.yul\":20985:21023   */\n      tag_433\n        /* \"#utility.yul\":21017:21021   */\n      dup3\n        /* \"#utility.yul\":21011:21022   */\n      sload\n        /* \"#utility.yul\":20985:21023   */\n      tag_124\n      jump\t// in\n    tag_433:\n        /* \"#utility.yul\":21070:21137   */\n      tag_434\n        /* \"#utility.yul\":21130:21136   */\n      dup3\n        /* \"#utility.yul\":21122:21128   */\n      dup3\n        /* \"#utility.yul\":21116:21120   */\n      dup6\n        /* \"#utility.yul\":21070:21137   */\n      tag_199\n      jump\t// in\n    tag_434:\n        /* \"#utility.yul\":21164:21165   */\n      0x00\n        /* \"#utility.yul\":21188:21192   */\n      0x20\n        /* \"#utility.yul\":21175:21192   */\n      swap1\n      pop\n        /* \"#utility.yul\":21220:21222   */\n      0x1f\n        /* \"#utility.yul\":21212:21218   */\n      dup4\n        /* \"#utility.yul\":21209:21223   */\n      gt\n        /* \"#utility.yul\":21237:21238   */\n      0x01\n        /* \"#utility.yul\":21232:21850   */\n      dup2\n      eq\n      tag_436\n      jumpi\n        /* \"#utility.yul\":21894:21895   */\n      0x00\n        /* \"#utility.yul\":21911:21917   */\n      dup5\n        /* \"#utility.yul\":21908:21985   */\n      iszero\n      tag_437\n      jumpi\n        /* \"#utility.yul\":21960:21969   */\n      dup3\n        /* \"#utility.yul\":21955:21958   */\n      dup8\n        /* \"#utility.yul\":21951:21970   */\n      add\n        /* \"#utility.yul\":21945:21971   */\n      mload\n        /* \"#utility.yul\":21936:21971   */\n      swap1\n      pop\n        /* \"#utility.yul\":21908:21985   */\n    tag_437:\n        /* \"#utility.yul\":22011:22078   */\n      tag_438\n        /* \"#utility.yul\":22071:22077   */\n      dup6\n        /* \"#utility.yul\":22064:22069   */\n      dup3\n        /* \"#utility.yul\":22011:22078   */\n      tag_202\n      jump\t// in\n    tag_438:\n        /* \"#utility.yul\":22005:22009   */\n      dup7\n        /* \"#utility.yul\":21998:22079   */\n      sstore\n        /* \"#utility.yul\":21867:22089   */\n      pop\n        /* \"#utility.yul\":21202:22089   */\n      jump(tag_435)\n        /* \"#utility.yul\":21232:21850   */\n    tag_436:\n        /* \"#utility.yul\":21284:21288   */\n      0x1f\n        /* \"#utility.yul\":21280:21289   */\n      not\n        /* \"#utility.yul\":21272:21278   */\n      dup5\n        /* \"#utility.yul\":21268:21290   */\n      and\n        /* \"#utility.yul\":21318:21355   */\n      tag_439\n        /* \"#utility.yul\":21350:21354   */\n      dup7\n        /* \"#utility.yul\":21318:21355   */\n      tag_188\n      jump\t// in\n    tag_439:\n        /* \"#utility.yul\":21377:21378   */\n      0x00\n        /* \"#utility.yul\":21391:21599   */\n    tag_440:\n        /* \"#utility.yul\":21405:21412   */\n      dup3\n        /* \"#utility.yul\":21402:21403   */\n      dup2\n        /* \"#utility.yul\":21399:21413   */\n      lt\n        /* \"#utility.yul\":21391:21599   */\n      iszero\n      tag_442\n      jumpi\n        /* \"#utility.yul\":21484:21493   */\n      dup5\n        /* \"#utility.yul\":21479:21482   */\n      dup10\n        /* \"#utility.yul\":21475:21494   */\n      add\n        /* \"#utility.yul\":21469:21495   */\n      mload\n        /* \"#utility.yul\":21461:21467   */\n      dup3\n        /* \"#utility.yul\":21454:21496   */\n      sstore\n        /* \"#utility.yul\":21535:21536   */\n      0x01\n        /* \"#utility.yul\":21527:21533   */\n      dup3\n        /* \"#utility.yul\":21523:21537   */\n      add\n        /* \"#utility.yul\":21513:21537   */\n      swap2\n      pop\n        /* \"#utility.yul\":21582:21584   */\n      0x20\n        /* \"#utility.yul\":21571:21580   */\n      dup6\n        /* \"#utility.yul\":21567:21585   */\n      add\n        /* \"#utility.yul\":21554:21585   */\n      swap5\n      pop\n        /* \"#utility.yul\":21428:21432   */\n      0x20\n        /* \"#utility.yul\":21425:21426   */\n      dup2\n        /* \"#utility.yul\":21421:21433   */\n      add\n        /* \"#utility.yul\":21416:21433   */\n      swap1\n      pop\n        /* \"#utility.yul\":21391:21599   */\n      jump(tag_440)\n    tag_442:\n        /* \"#utility.yul\":21627:21633   */\n      dup7\n        /* \"#utility.yul\":21618:21625   */\n      dup4\n        /* \"#utility.yul\":21615:21634   */\n      lt\n        /* \"#utility.yul\":21612:21791   */\n      iszero\n      tag_443\n      jumpi\n        /* \"#utility.yul\":21685:21694   */\n      dup5\n        /* \"#utility.yul\":21680:21683   */\n      dup10\n        /* \"#utility.yul\":21676:21695   */\n      add\n        /* \"#utility.yul\":21670:21696   */\n      mload\n        /* \"#utility.yul\":21728:21776   */\n      tag_444\n        /* \"#utility.yul\":21770:21774   */\n      0x1f\n        /* \"#utility.yul\":21762:21768   */\n      dup10\n        /* \"#utility.yul\":21758:21775   */\n      and\n        /* \"#utility.yul\":21747:21756   */\n      dup3\n        /* \"#utility.yul\":21728:21776   */\n      tag_201\n      jump\t// in\n    tag_444:\n        /* \"#utility.yul\":21720:21726   */\n      dup4\n        /* \"#utility.yul\":21713:21777   */\n      sstore\n        /* \"#utility.yul\":21635:21791   */\n      pop\n        /* \"#utility.yul\":21612:21791   */\n    tag_443:\n        /* \"#utility.yul\":21837:21838   */\n      0x01\n        /* \"#utility.yul\":21833:21834   */\n      0x02\n        /* \"#utility.yul\":21825:21831   */\n      dup9\n        /* \"#utility.yul\":21821:21835   */\n      mul\n        /* \"#utility.yul\":21817:21839   */\n      add\n        /* \"#utility.yul\":21811:21815   */\n      dup9\n        /* \"#utility.yul\":21804:21840   */\n      sstore\n        /* \"#utility.yul\":21239:21850   */\n      pop\n      pop\n      pop\n        /* \"#utility.yul\":21202:22089   */\n    tag_435:\n      pop\n        /* \"#utility.yul\":20792:22095   */\n      pop\n      pop\n      pop\n        /* \"#utility.yul\":20700:22095   */\n      pop\n      pop\n      jump\t// out\n        /* \"#utility.yul\":22101:22274   */\n    tag_210:\n        /* \"#utility.yul\":22241:22266   */\n      0x576169747265737320616c726561647920657869737473000000000000000000\n        /* \"#utility.yul\":22237:22238   */\n      0x00\n        /* \"#utility.yul\":22229:22235   */\n      dup3\n        /* \"#utility.yul\":22225:22239   */\n      add\n        /* \"#utility.yul\":22218:22267   */\n      mstore\n        /* \"#utility.yul\":22101:22274   */\n      pop\n      jump\t// out\n        /* \"#utility.yul\":22280:22646   */\n    tag_211:\n        /* \"#utility.yul\":22422:22425   */\n      0x00\n        /* \"#utility.yul\":22443:22510   */\n      tag_447\n        /* \"#utility.yul\":22507:22509   */\n      0x17\n        /* \"#utility.yul\":22502:22505   */\n      dup4\n        /* \"#utility.yul\":22443:22510   */\n      tag_182\n      jump\t// in\n    tag_447:\n        /* \"#utility.yul\":22436:22510   */\n      swap2\n      pop\n        /* \"#utility.yul\":22519:22612   */\n      tag_448\n        /* \"#utility.yul\":22608:22611   */\n      dup3\n        /* \"#utility.yul\":22519:22612   */\n      tag_210\n      jump\t// in\n    tag_448:\n        /* \"#utility.yul\":22637:22639   */\n      0x20\n        /* \"#utility.yul\":22632:22635   */\n      dup3\n        /* \"#utility.yul\":22628:22640   */\n      add\n        /* \"#utility.yul\":22621:22640   */\n      swap1\n      pop\n        /* \"#utility.yul\":22280:22646   */\n      swap2\n      swap1\n      pop\n      jump\t// out\n        /* \"#utility.yul\":22652:23071   */\n    tag_118:\n        /* \"#utility.yul\":22818:22822   */\n      0x00\n        /* \"#utility.yul\":22856:22858   */\n      0x20\n        /* \"#utility.yul\":22845:22854   */\n      dup3\n        /* \"#utility.yul\":22841:22859   */\n      add\n        /* \"#utility.yul\":22833:22859   */\n      swap1\n      pop\n        /* \"#utility.yul\":22905:22914   */\n      dup2\n        /* \"#utility.yul\":22899:22903   */\n      dup2\n        /* \"#utility.yul\":22895:22915   */\n      sub\n        /* \"#utility.yul\":22891:22892   */\n      0x00\n        /* \"#utility.yul\":22880:22889   */\n      dup4\n        /* \"#utility.yul\":22876:22893   */\n      add\n        /* \"#utility.yul\":22869:22916   */\n      mstore\n        /* \"#utility.yul\":22933:23064   */\n      tag_450\n        /* \"#utility.yul\":23059:23063   */\n      dup2\n        /* \"#utility.yul\":22933:23064   */\n      tag_211\n      jump\t// in\n    tag_450:\n        /* \"#utility.yul\":22925:23064   */\n      swap1\n      pop\n        /* \"#utility.yul\":22652:23071   */\n      swap2\n      swap1\n      pop\n      jump\t// out\n        /* \"#utility.yul\":23077:23224   */\n    tag_212:\n        /* \"#utility.yul\":23178:23189   */\n      0x00\n        /* \"#utility.yul\":23215:23218   */\n      dup2\n        /* \"#utility.yul\":23200:23218   */\n      swap1\n      pop\n        /* \"#utility.yul\":23077:23224   */\n      swap3\n      swap2\n      pop\n      pop\n      jump\t// out\n        /* \"#utility.yul\":23230:23344   */\n    tag_213:\n      pop\n      jump\t// out\n        /* \"#utility.yul\":23350:23748   */\n    tag_214:\n        /* \"#utility.yul\":23509:23512   */\n      0x00\n        /* \"#utility.yul\":23530:23613   */\n      tag_454\n        /* \"#utility.yul\":23611:23612   */\n      0x00\n        /* \"#utility.yul\":23606:23609   */\n      dup4\n        /* \"#utility.yul\":23530:23613   */\n      tag_212\n      jump\t// in\n    tag_454:\n        /* \"#utility.yul\":23523:23613   */\n      swap2\n      pop\n        /* \"#utility.yul\":23622:23715   */\n      tag_455\n        /* \"#utility.yul\":23711:23714   */\n      dup3\n        /* \"#utility.yul\":23622:23715   */\n      tag_213\n      jump\t// in\n    tag_455:\n        /* \"#utility.yul\":23740:23741   */\n      0x00\n        /* \"#utility.yul\":23735:23738   */\n      dup3\n        /* \"#utility.yul\":23731:23742   */\n      add\n        /* \"#utility.yul\":23724:23742   */\n      swap1\n      pop\n        /* \"#utility.yul\":23350:23748   */\n      swap2\n      swap1\n      pop\n      jump\t// out\n        /* \"#utility.yul\":23754:24133   */\n    tag_131:\n        /* \"#utility.yul\":23938:23941   */\n      0x00\n        /* \"#utility.yul\":23960:24107   */\n      tag_457\n        /* \"#utility.yul\":24103:24106   */\n      dup3\n        /* \"#utility.yul\":23960:24107   */\n      tag_214\n      jump\t// in\n    tag_457:\n        /* \"#utility.yul\":23953:24107   */\n      swap2\n      pop\n        /* \"#utility.yul\":24124:24127   */\n      dup2\n        /* \"#utility.yul\":24117:24127   */\n      swap1\n      pop\n        /* \"#utility.yul\":23754:24133   */\n      swap2\n      swap1\n      pop\n      jump\t// out\n        /* \"#utility.yul\":24139:24305   */\n    tag_215:\n        /* \"#utility.yul\":24279:24297   */\n      0x5472616e73666572206661696c65642e00000000000000000000000000000000\n        /* \"#utility.yul\":24275:24276   */\n      0x00\n        /* \"#utility.yul\":24267:24273   */\n      dup3\n        /* \"#utility.yul\":24263:24277   */\n      add\n        /* \"#utility.yul\":24256:24298   */\n      mstore\n        /* \"#utility.yul\":24139:24305   */\n      pop\n      jump\t// out\n        /* \"#utility.yul\":24311:24677   */\n    tag_216:\n        /* \"#utility.yul\":24453:24456   */\n      0x00\n        /* \"#utility.yul\":24474:24541   */\n      tag_460\n        /* \"#utility.yul\":24538:24540   */\n      0x10\n        /* \"#utility.yul\":24533:24536   */\n      dup4\n        /* \"#utility.yul\":24474:24541   */\n      tag_182\n      jump\t// in\n    tag_460:\n        /* \"#utility.yul\":24467:24541   */\n      swap2\n      pop\n        /* \"#utility.yul\":24550:24643   */\n      tag_461\n        /* \"#utility.yul\":24639:24642   */\n      dup3\n        /* \"#utility.yul\":24550:24643   */\n      tag_215\n      jump\t// in\n    tag_461:\n        /* \"#utility.yul\":24668:24670   */\n      0x20\n        /* \"#utility.yul\":24663:24666   */\n      dup3\n        /* \"#utility.yul\":24659:24671   */\n      add\n        /* \"#utility.yul\":24652:24671   */\n      swap1\n      pop\n        /* \"#utility.yul\":24311:24677   */\n      swap2\n      swap1\n      pop\n      jump\t// out\n        /* \"#utility.yul\":24683:25102   */\n    tag_137:\n        /* \"#utility.yul\":24849:24853   */\n      0x00\n        /* \"#utility.yul\":24887:24889   */\n      0x20\n        /* \"#utility.yul\":24876:24885   */\n      dup3\n        /* \"#utility.yul\":24872:24890   */\n      add\n        /* \"#utility.yul\":24864:24890   */\n      swap1\n      pop\n        /* \"#utility.yul\":24936:24945   */\n      dup2\n        /* \"#utility.yul\":24930:24934   */\n      dup2\n        /* \"#utility.yul\":24926:24946   */\n      sub\n        /* \"#utility.yul\":24922:24923   */\n      0x00\n        /* \"#utility.yul\":24911:24920   */\n      dup4\n        /* \"#utility.yul\":24907:24924   */\n      add\n        /* \"#utility.yul\":24900:24947   */\n      mstore\n        /* \"#utility.yul\":24964:25095   */\n      tag_463\n        /* \"#utility.yul\":25090:25094   */\n      dup2\n        /* \"#utility.yul\":24964:25095   */\n      tag_216\n      jump\t// in\n    tag_463:\n        /* \"#utility.yul\":24956:25095   */\n      swap1\n      pop\n        /* \"#utility.yul\":24683:25102   */\n      swap2\n      swap1\n      pop\n      jump\t// out\n\n    auxdata: 0xa2646970667358221220e5a02899fc265c5f67e77f702af2950402e7a188c100afb3bf6d034561aba36964736f6c634300081f0033\n}\n",
				"bytecode": {
					"linkReferences": {},
					"object": "6080604052348015600e575f5ffd5b50335f5f6101000a81548173ffffffffffffffffffffffffffffffffffffffff021916908373ffffffffffffffffffffffffffffffffffffffff16021790555061170d8061005b5f395ff3fe608060405260043610610054575f3560e01c80632a08deda14610058578063369a489d146100825780636e7301fd146100aa5780637943da69146100b4578063b499b79a146100ca578063e83a1b00146100f2575b5f5ffd5b348015610063575f5ffd5b5061006c61011c565b6040516100799190610a3d565b60405180910390f35b34801561008d575f5ffd5b506100a860048036038101906100a39190610ac1565b610123565b005b6100b26103e9565b005b3480156100bf575f5ffd5b506100c86103eb565b005b3480156100d5575f5ffd5b506100f060048036038101906100eb9190610c8d565b61052e565b005b3480156100fd575f5ffd5b506101066107d6565b6040516101139190610e7f565b60405180910390f35b5f47905090565b5f5f9054906101000a900473ffffffffffffffffffffffffffffffffffffffff1673ffffffffffffffffffffffffffffffffffffffff163373ffffffffffffffffffffffffffffffffffffffff16146101b1576040517f08c379a00000000000000000000000000000000000000000000000000000000081526004016101a890610ef9565b60405180910390fd5b5f5f90505b6002805490508110156103e5578173ffffffffffffffffffffffffffffffffffffffff16600282815481106101ee576101ed610f17565b5b905f5260205f2090600302015f015f9054906101000a900473ffffffffffffffffffffffffffffffffffffffff1673ffffffffffffffffffffffffffffffffffffffff16036103d8576002818154811061024b5761024a610f17565b5b905f5260205f2090600302016002015460015f82825461026b9190610f71565b925050819055505f8190505b60016002805490506102899190610f71565b81101561036e57600260018261029f9190610fa4565b815481106102b0576102af610f17565b5b905f5260205f209060030201600282815481106102d0576102cf610f17565b5b905f5260205f2090600302015f82015f9054906101000a900473ffffffffffffffffffffffffffffffffffffffff16815f015f6101000a81548173ffffffffffffffffffffffffffffffffffffffff021916908373ffffffffffffffffffffffffffffffffffffffff1602179055506001820181600101908161035391906111e9565b50600282015481600201559050508080600101915050610277565b506002805480610381576103806112ce565b5b600190038181905f5260205f2090600302015f5f82015f6101000a81549073ffffffffffffffffffffffffffffffffffffffff0219169055600182015f6103c891906109cd565b600282015f9055505090556103e5565b80806001019150506101b6565b5050565b565b5f471161042d576040517f08c379a000000000000000000000000000000000000000000000000000000000815260040161042490611345565b60405180910390fd5b5f60028054905011610474576040517f08c379a000000000000000000000000000000000000000000000000000000000815260040161046b906113ad565b60405180910390fd5b5f4790505f5f90505b60028054905081101561052a575f6064600283815481106104a1576104a0610f17565b5b905f5260205f20906003020160020154846104bc91906113cb565b6104c69190611439565b90505f81111561051c5761051b600283815481106104e7576104e6610f17565b5b905f5260205f2090600302015f015f9054906101000a900473ffffffffffffffffffffffffffffffffffffffff1682610920565b5b50808060010191505061047d565b5050565b5f5f9054906101000a900473ffffffffffffffffffffffffffffffffffffffff1673ffffffffffffffffffffffffffffffffffffffff163373ffffffffffffffffffffffffffffffffffffffff16146105bc576040517f08c379a00000000000000000000000000000000000000000000000000000000081526004016105b390610ef9565b60405180910390fd5b6064816001546105cc9190610fa4565b111561060d576040517f08c379a0000000000000000000000000000000000000000000000000000000008152600401610604906114d9565b60405180910390fd5b5f5f90505f5f90505b6002805490508110156106ad578473ffffffffffffffffffffffffffffffffffffffff166002828154811061064e5761064d610f17565b5b905f5260205f2090600302015f015f9054906101000a900473ffffffffffffffffffffffffffffffffffffffff1673ffffffffffffffffffffffffffffffffffffffff16036106a057600191506106ad565b8080600101915050610616565b505f15158115150361079557600260405180606001604052808673ffffffffffffffffffffffffffffffffffffffff16815260200185815260200184815250908060018154018082558091505060019003905f5260205f2090600302015f909190919091505f820151815f015f6101000a81548173ffffffffffffffffffffffffffffffffffffffff021916908373ffffffffffffffffffffffffffffffffffffffff160217905550602082015181600101908161076b91906114f7565b506040820151816002015550508160015f8282546107899190610fa4565b925050819055506107d0565b6040517f08c379a00000000000000000000000000000000000000000000000000000000081526004016107c790611610565b60405180910390fd5b50505050565b60606002805480602002602001604051908101604052809291908181526020015f905b82821015610917578382905f5260205f2090600302016040518060600160405290815f82015f9054906101000a900473ffffffffffffffffffffffffffffffffffffffff1673ffffffffffffffffffffffffffffffffffffffff1673ffffffffffffffffffffffffffffffffffffffff16815260200160018201805461087e90611004565b80601f01602080910402602001604051908101604052809291908181526020018280546108aa90611004565b80156108f55780601f106108cc576101008083540402835291602001916108f5565b820191905f5260205f20905b8154815290600101906020018083116108d857829003601f168201915b50505050508152602001600282015481525050815260200190600101906107f9565b50505050905090565b5f8273ffffffffffffffffffffffffffffffffffffffff16826040516109459061165b565b5f6040518083038185875af1925050503d805f811461097f576040519150601f19603f3d011682016040523d82523d5f602084013e610984565b606091505b50509050806109c8576040517f08c379a00000000000000000000000000000000000000000000000000000000081526004016109bf906116b9565b60405180910390fd5b505050565b5080546109d990611004565b5f825580601f106109ea5750610a07565b601f0160209004905f5260205f2090810190610a069190610a0a565b5b50565b5b80821115610a21575f815f905550600101610a0b565b5090565b5f819050919050565b610a3781610a25565b82525050565b5f602082019050610a505f830184610a2e565b92915050565b5f604051905090565b5f5ffd5b5f5ffd5b5f73ffffffffffffffffffffffffffffffffffffffff82169050919050565b5f610a9082610a67565b9050919050565b610aa081610a86565b8114610aaa575f5ffd5b50565b5f81359050610abb81610a97565b92915050565b5f60208284031215610ad657610ad5610a5f565b5b5f610ae384828501610aad565b91505092915050565b5f610af682610a67565b9050919050565b610b0681610aec565b8114610b10575f5ffd5b50565b5f81359050610b2181610afd565b92915050565b5f5ffd5b5f5ffd5b5f601f19601f8301169050919050565b7f4e487b71000000000000000000000000000000000000000000000000000000005f52604160045260245ffd5b610b7582610b2f565b810181811067ffffffffffffffff82111715610b9457610b93610b3f565b5b80604052505050565b5f610ba6610a56565b9050610bb28282610b6c565b919050565b5f67ffffffffffffffff821115610bd157610bd0610b3f565b5b610bda82610b2f565b9050602081019050919050565b828183375f83830152505050565b5f610c07610c0284610bb7565b610b9d565b905082815260208101848484011115610c2357610c22610b2b565b5b610c2e848285610be7565b509392505050565b5f82601f830112610c4a57610c49610b27565b5b8135610c5a848260208601610bf5565b91505092915050565b610c6c81610a25565b8114610c76575f5ffd5b50565b5f81359050610c8781610c63565b92915050565b5f5f5f60608486031215610ca457610ca3610a5f565b5b5f610cb186828701610b13565b935050602084013567ffffffffffffffff811115610cd257610cd1610a63565b5b610cde86828701610c36565b9250506040610cef86828701610c79565b9150509250925092565b5f81519050919050565b5f82825260208201905092915050565b5f819050602082019050919050565b610d2b81610aec565b82525050565b5f81519050919050565b5f82825260208201905092915050565b8281835e5f83830152505050565b5f610d6382610d31565b610d6d8185610d3b565b9350610d7d818560208601610d4b565b610d8681610b2f565b840191505092915050565b610d9a81610a25565b82525050565b5f606083015f830151610db55f860182610d22565b5060208301518482036020860152610dcd8282610d59565b9150506040830151610de26040860182610d91565b508091505092915050565b5f610df88383610da0565b905092915050565b5f602082019050919050565b5f610e1682610cf9565b610e208185610d03565b935083602082028501610e3285610d13565b805f5b85811015610e6d5784840389528151610e4e8582610ded565b9450610e5983610e00565b925060208a01995050600181019050610e35565b50829750879550505050505092915050565b5f6020820190508181035f830152610e978184610e0c565b905092915050565b5f82825260208201905092915050565b7f4f6e6c79206f776e65722063616e2063616c6c000000000000000000000000005f82015250565b5f610ee3601383610e9f565b9150610eee82610eaf565b602082019050919050565b5f6020820190508181035f830152610f1081610ed7565b9050919050565b7f4e487b71000000000000000000000000000000000000000000000000000000005f52603260045260245ffd5b7f4e487b71000000000000000000000000000000000000000000000000000000005f52601160045260245ffd5b5f610f7b82610a25565b9150610f8683610a25565b9250828203905081811115610f9e57610f9d610f44565b5b92915050565b5f610fae82610a25565b9150610fb983610a25565b9250828201905080821115610fd157610fd0610f44565b5b92915050565b7f4e487b71000000000000000000000000000000000000000000000000000000005f52602260045260245ffd5b5f600282049050600182168061101b57607f821691505b60208210810361102e5761102d610fd7565b5b50919050565b5f8154905061104281611004565b9050919050565b5f819050815f5260205f209050919050565b5f6020601f8301049050919050565b5f82821b905092915050565b5f600883026110a57fffffffffffffffffffffffffffffffffffffffffffffffffffffffffffffffff8261106a565b6110af868361106a565b95508019841693508086168417925050509392505050565b5f819050919050565b5f6110ea6110e56110e084610a25565b6110c7565b610a25565b9050919050565b5f819050919050565b611103836110d0565b61111761110f826110f1565b848454611076565b825550505050565b5f5f905090565b61112e61111f565b6111398184846110fa565b505050565b5b8181101561115c576111515f82611126565b60018101905061113f565b5050565b601f8211156111a15761117281611049565b61117b8461105b565b8101602085101561118a578190505b61119e6111968561105b565b83018261113e565b50505b505050565b5f82821c905092915050565b5f6111c15f19846008026111a6565b1980831691505092915050565b5f6111d983836111b2565b9150826002028217905092915050565b8181036111f75750506112cc565b61120082611034565b67ffffffffffffffff81111561121957611218610b3f565b5b6112238254611004565b61122e828285611160565b5f601f83116001811461125b575f8415611249578287015490505b61125385826111ce565b8655506112c5565b601f19841661126987611049565b965061127486611049565b5f5b8281101561129b57848901548255600182019150600185019450602081019050611276565b868310156112b857848901546112b4601f8916826111b2565b8355505b6001600288020188555050505b5050505050505b565b7f4e487b71000000000000000000000000000000000000000000000000000000005f52603160045260245ffd5b7f4e6f204d6f6e65790000000000000000000000000000000000000000000000005f82015250565b5f61132f600883610e9f565b915061133a826112fb565b602082019050919050565b5f6020820190508181035f83015261135c81611323565b9050919050565b7f4e6f2057616974726573732061646465640000000000000000000000000000005f82015250565b5f611397601183610e9f565b91506113a282611363565b602082019050919050565b5f6020820190508181035f8301526113c48161138b565b9050919050565b5f6113d582610a25565b91506113e083610a25565b92508282026113ee81610a25565b9150828204841483151761140557611404610f44565b5b5092915050565b7f4e487b71000000000000000000000000000000000000000000000000000000005f52601260045260245ffd5b5f61144382610a25565b915061144e83610a25565b92508261145e5761145d61140c565b5b828204905092915050565b7f546f74616c2070657263656e746167652063616e6e6f742065786365656420315f8201527f3030250000000000000000000000000000000000000000000000000000000000602082015250565b5f6114c3602383610e9f565b91506114ce82611469565b604082019050919050565b5f6020820190508181035f8301526114f0816114b7565b9050919050565b61150082610d31565b67ffffffffffffffff81111561151957611518610b3f565b5b6115238254611004565b61152e828285611160565b5f60209050601f83116001811461155f575f841561154d578287015190505b61155785826111ce565b8655506115be565b601f19841661156d86611049565b5f5b828110156115945784890151825560018201915060208501945060208101905061156f565b868310156115b157848901516115ad601f8916826111b2565b8355505b6001600288020188555050505b505050505050565b7f576169747265737320616c7265616479206578697374730000000000000000005f82015250565b5f6115fa601783610e9f565b9150611605826115c6565b602082019050919050565b5f6020820190508181035f830152611627816115ee565b9050919050565b5f81905092915050565b50565b5f6116465f8361162e565b915061165182611638565b5f82019050919050565b5f6116658261163b565b9150819050919050565b7f5472616e73666572206661696c65642e000000000000000000000000000000005f82015250565b5f6116a3601083610e9f565b91506116ae8261166f565b602082019050919050565b5f6020820190508181035f8301526116d081611697565b905091905056fea2646970667358221220e5a02899fc265c5f67e77f702af2950402e7a188c100afb3bf6d034561aba36964736f6c634300081f0033",
					"opcodes": "PUSH1 0x80 PUSH1 0x40 MSTORE CALLVALUE DUP1 ISZERO PUSH1 0xE JUMPI PUSH0 PUSH0 REVERT JUMPDEST POP CALLER PUSH0 PUSH0 PUSH2 0x100 EXP DUP2 SLOAD DUP2 PUSH20 0xFFFFFFFFFFFFFFFFFFFFFFFFFFFFFFFFFFFFFFFF MUL NOT AND SWAP1 DUP4 PUSH20 0xFFFFFFFFFFFFFFFFFFFFFFFFFFFFFFFFFFFFFFFF AND MUL OR SWAP1 SSTORE POP PUSH2 0x170D DUP1 PUSH2 0x5B PUSH0 CODECOPY PUSH0 RETURN INVALID PUSH1 0x80 PUSH1 0x40 MSTORE PUSH1 0x4 CALLDATASIZE LT PUSH2 0x54 JUMPI PUSH0 CALLDATALOAD PUSH1 0xE0 SHR DUP1 PUSH4 0x2A08DEDA EQ PUSH2 0x58 JUMPI DUP1 PUSH4 0x369A489D EQ PUSH2 0x82 JUMPI DUP1 PUSH4 0x6E7301FD EQ PUSH2 0xAA JUMPI DUP1 PUSH4 0x7943DA69 EQ PUSH2 0xB4 JUMPI DUP1 PUSH4 0xB499B79A EQ PUSH2 0xCA JUMPI DUP1 PUSH4 0xE83A1B00 EQ PUSH2 0xF2 JUMPI JUMPDEST PUSH0 PUSH0 REVERT JUMPDEST CALLVALUE DUP1 ISZERO PUSH2 0x63 JUMPI PUSH0 PUSH0 REVERT JUMPDEST POP PUSH2 0x6C PUSH2 0x11C JUMP JUMPDEST PUSH1 0x40 MLOAD PUSH2 0x79 SWAP2 SWAP1 PUSH2 0xA3D JUMP JUMPDEST PUSH1 0x40 MLOAD DUP1 SWAP2 SUB SWAP1 RETURN JUMPDEST CALLVALUE DUP1 ISZERO PUSH2 0x8D JUMPI PUSH0 PUSH0 REVERT JUMPDEST POP PUSH2 0xA8 PUSH1 0x4 DUP1 CALLDATASIZE SUB DUP2 ADD SWAP1 PUSH2 0xA3 SWAP2 SWAP1 PUSH2 0xAC1 JUMP JUMPDEST PUSH2 0x123 JUMP JUMPDEST STOP JUMPDEST PUSH2 0xB2 PUSH2 0x3E9 JUMP JUMPDEST STOP JUMPDEST CALLVALUE DUP1 ISZERO PUSH2 0xBF JUMPI PUSH0 PUSH0 REVERT JUMPDEST POP PUSH2 0xC8 PUSH2 0x3EB JUMP JUMPDEST STOP JUMPDEST CALLVALUE DUP1 ISZERO PUSH2 0xD5 JUMPI PUSH0 PUSH0 REVERT JUMPDEST POP PUSH2 0xF0 PUSH1 0x4 DUP1 CALLDATASIZE SUB DUP2 ADD SWAP1 PUSH2 0xEB SWAP2 SWAP1 PUSH2 0xC8D JUMP JUMPDEST PUSH2 0x52E JUMP JUMPDEST STOP JUMPDEST CALLVALUE DUP1 ISZERO PUSH2 0xFD JUMPI PUSH0 PUSH0 REVERT JUMPDEST POP PUSH2 0x106 PUSH2 0x7D6 JUMP JUMPDEST PUSH1 0x40 MLOAD PUSH2 0x113 SWAP2 SWAP1 PUSH2 0xE7F JUMP JUMPDEST PUSH1 0x40 MLOAD DUP1 SWAP2 SUB SWAP1 RETURN JUMPDEST PUSH0 SELFBALANCE SWAP1 POP SWAP1 JUMP JUMPDEST PUSH0 PUSH0 SWAP1 SLOAD SWAP1 PUSH2 0x100 EXP SWAP1 DIV PUSH20 0xFFFFFFFFFFFFFFFFFFFFFFFFFFFFFFFFFFFFFFFF AND PUSH20 0xFFFFFFFFFFFFFFFFFFFFFFFFFFFFFFFFFFFFFFFF AND CALLER PUSH20 0xFFFFFFFFFFFFFFFFFFFFFFFFFFFFFFFFFFFFFFFF AND EQ PUSH2 0x1B1 JUMPI PUSH1 0x40 MLOAD PUSH32 0x8C379A000000000000000000000000000000000000000000000000000000000 DUP2 MSTORE PUSH1 0x4 ADD PUSH2 0x1A8 SWAP1 PUSH2 0xEF9 JUMP JUMPDEST PUSH1 0x40 MLOAD DUP1 SWAP2 SUB SWAP1 REVERT JUMPDEST PUSH0 PUSH0 SWAP1 POP JUMPDEST PUSH1 0x2 DUP1 SLOAD SWAP1 POP DUP2 LT ISZERO PUSH2 0x3E5 JUMPI DUP2 PUSH20 0xFFFFFFFFFFFFFFFFFFFFFFFFFFFFFFFFFFFFFFFF AND PUSH1 0x2 DUP3 DUP2 SLOAD DUP2 LT PUSH2 0x1EE JUMPI PUSH2 0x1ED PUSH2 0xF17 JUMP JUMPDEST JUMPDEST SWAP1 PUSH0 MSTORE PUSH1 0x20 PUSH0 KECCAK256 SWAP1 PUSH1 0x3 MUL ADD PUSH0 ADD PUSH0 SWAP1 SLOAD SWAP1 PUSH2 0x100 EXP SWAP1 DIV PUSH20 0xFFFFFFFFFFFFFFFFFFFFFFFFFFFFFFFFFFFFFFFF AND PUSH20 0xFFFFFFFFFFFFFFFFFFFFFFFFFFFFFFFFFFFFFFFF AND SUB PUSH2 0x3D8 JUMPI PUSH1 0x2 DUP2 DUP2 SLOAD DUP2 LT PUSH2 0x24B JUMPI PUSH2 0x24A PUSH2 0xF17 JUMP JUMPDEST JUMPDEST SWAP1 PUSH0 MSTORE PUSH1 0x20 PUSH0 KECCAK256 SWAP1 PUSH1 0x3 MUL ADD PUSH1 0x2 ADD SLOAD PUSH1 0x1 PUSH0 DUP3 DUP3 SLOAD PUSH2 0x26B SWAP2 SWAP1 PUSH2 0xF71 JUMP JUMPDEST SWAP3 POP POP DUP2 SWAP1 SSTORE POP PUSH0 DUP2 SWAP1 POP JUMPDEST PUSH1 0x1 PUSH1 0x2 DUP1 SLOAD SWAP1 POP PUSH2 0x289 SWAP2 SWAP1 PUSH2 0xF71 JUMP JUMPDEST DUP2 LT ISZERO PUSH2 0x36E JUMPI PUSH1 0x2 PUSH1 0x1 DUP3 PUSH2 0x29F SWAP2 SWAP1 PUSH2 0xFA4 JUMP JUMPDEST DUP2 SLOAD DUP2 LT PUSH2 0x2B0 JUMPI PUSH2 0x2AF PUSH2 0xF17 JUMP JUMPDEST JUMPDEST SWAP1 PUSH0 MSTORE PUSH1 0x20 PUSH0 KECCAK256 SWAP1 PUSH1 0x3 MUL ADD PUSH1 0x2 DUP3 DUP2 SLOAD DUP2 LT PUSH2 0x2D0 JUMPI PUSH2 0x2CF PUSH2 0xF17 JUMP JUMPDEST JUMPDEST SWAP1 PUSH0 MSTORE PUSH1 0x20 PUSH0 KECCAK256 SWAP1 PUSH1 0x3 MUL ADD PUSH0 DUP3 ADD PUSH0 SWAP1 SLOAD SWAP1 PUSH2 0x100 EXP SWAP1 DIV PUSH20 0xFFFFFFFFFFFFFFFFFFFFFFFFFFFFFFFFFFFFFFFF AND DUP2 PUSH0 ADD PUSH0 PUSH2 0x100 EXP DUP2 SLOAD DUP2 PUSH20 0xFFFFFFFFFFFFFFFFFFFFFFFFFFFFFFFFFFFFFFFF MUL NOT AND SWAP1 DUP4 PUSH20 0xFFFFFFFFFFFFFFFFFFFFFFFFFFFFFFFFFFFFFFFF AND MUL OR SWAP1 SSTORE POP PUSH1 0x1 DUP3 ADD DUP2 PUSH1 0x1 ADD SWAP1 DUP2 PUSH2 0x353 SWAP2 SWAP1 PUSH2 0x11E9 JUMP JUMPDEST POP PUSH1 0x2 DUP3 ADD SLOAD DUP2 PUSH1 0x2 ADD SSTORE SWAP1 POP POP DUP1 DUP1 PUSH1 0x1 ADD SWAP2 POP POP PUSH2 0x277 JUMP JUMPDEST POP PUSH1 0x2 DUP1 SLOAD DUP1 PUSH2 0x381 JUMPI PUSH2 0x380 PUSH2 0x12CE JUMP JUMPDEST JUMPDEST PUSH1 0x1 SWAP1 SUB DUP2 DUP2 SWAP1 PUSH0 MSTORE PUSH1 0x20 PUSH0 KECCAK256 SWAP1 PUSH1 0x3 MUL ADD PUSH0 PUSH0 DUP3 ADD PUSH0 PUSH2 0x100 EXP DUP2 SLOAD SWAP1 PUSH20 0xFFFFFFFFFFFFFFFFFFFFFFFFFFFFFFFFFFFFFFFF MUL NOT AND SWAP1 SSTORE PUSH1 0x1 DUP3 ADD PUSH0 PUSH2 0x3C8 SWAP2 SWAP1 PUSH2 0x9CD JUMP JUMPDEST PUSH1 0x2 DUP3 ADD PUSH0 SWAP1 SSTORE POP POP SWAP1 SSTORE PUSH2 0x3E5 JUMP JUMPDEST DUP1 DUP1 PUSH1 0x1 ADD SWAP2 POP POP PUSH2 0x1B6 JUMP JUMPDEST POP POP JUMP JUMPDEST JUMP JUMPDEST PUSH0 SELFBALANCE GT PUSH2 0x42D JUMPI PUSH1 0x40 MLOAD PUSH32 0x8C379A000000000000000000000000000000000000000000000000000000000 DUP2 MSTORE PUSH1 0x4 ADD PUSH2 0x424 SWAP1 PUSH2 0x1345 JUMP JUMPDEST PUSH1 0x40 MLOAD DUP1 SWAP2 SUB SWAP1 REVERT JUMPDEST PUSH0 PUSH1 0x2 DUP1 SLOAD SWAP1 POP GT PUSH2 0x474 JUMPI PUSH1 0x40 MLOAD PUSH32 0x8C379A000000000000000000000000000000000000000000000000000000000 DUP2 MSTORE PUSH1 0x4 ADD PUSH2 0x46B SWAP1 PUSH2 0x13AD JUMP JUMPDEST PUSH1 0x40 MLOAD DUP1 SWAP2 SUB SWAP1 REVERT JUMPDEST PUSH0 SELFBALANCE SWAP1 POP PUSH0 PUSH0 SWAP1 POP JUMPDEST PUSH1 0x2 DUP1 SLOAD SWAP1 POP DUP2 LT ISZERO PUSH2 0x52A JUMPI PUSH0 PUSH1 0x64 PUSH1 0x2 DUP4 DUP2 SLOAD DUP2 LT PUSH2 0x4A1 JUMPI PUSH2 0x4A0 PUSH2 0xF17 JUMP JUMPDEST JUMPDEST SWAP1 PUSH0 MSTORE PUSH1 0x20 PUSH0 KECCAK256 SWAP1 PUSH1 0x3 MUL ADD PUSH1 0x2 ADD SLOAD DUP5 PUSH2 0x4BC SWAP2 SWAP1 PUSH2 0x13CB JUMP JUMPDEST PUSH2 0x4C6 SWAP2 SWAP1 PUSH2 0x1439 JUMP JUMPDEST SWAP1 POP PUSH0 DUP2 GT ISZERO PUSH2 0x51C JUMPI PUSH2 0x51B PUSH1 0x2 DUP4 DUP2 SLOAD DUP2 LT PUSH2 0x4E7 JUMPI PUSH2 0x4E6 PUSH2 0xF17 JUMP JUMPDEST JUMPDEST SWAP1 PUSH0 MSTORE PUSH1 0x20 PUSH0 KECCAK256 SWAP1 PUSH1 0x3 MUL ADD PUSH0 ADD PUSH0 SWAP1 SLOAD SWAP1 PUSH2 0x100 EXP SWAP1 DIV PUSH20 0xFFFFFFFFFFFFFFFFFFFFFFFFFFFFFFFFFFFFFFFF AND DUP3 PUSH2 0x920 JUMP JUMPDEST JUMPDEST POP DUP1 DUP1 PUSH1 0x1 ADD SWAP2 POP POP PUSH2 0x47D JUMP JUMPDEST POP POP JUMP JUMPDEST PUSH0 PUSH0 SWAP1 SLOAD SWAP1 PUSH2 0x100 EXP SWAP1 DIV PUSH20 0xFFFFFFFFFFFFFFFFFFFFFFFFFFFFFFFFFFFFFFFF AND PUSH20 0xFFFFFFFFFFFFFFFFFFFFFFFFFFFFFFFFFFFFFFFF AND CALLER PUSH20 0xFFFFFFFFFFFFFFFFFFFFFFFFFFFFFFFFFFFFFFFF AND EQ PUSH2 0x5BC JUMPI PUSH1 0x40 MLOAD PUSH32 0x8C379A000000000000000000000000000000000000000000000000000000000 DUP2 MSTORE PUSH1 0x4 ADD PUSH2 0x5B3 SWAP1 PUSH2 0xEF9 JUMP JUMPDEST PUSH1 0x40 MLOAD DUP1 SWAP2 SUB SWAP1 REVERT JUMPDEST PUSH1 0x64 DUP2 PUSH1 0x1 SLOAD PUSH2 0x5CC SWAP2 SWAP1 PUSH2 0xFA4 JUMP JUMPDEST GT ISZERO PUSH2 0x60D JUMPI PUSH1 0x40 MLOAD PUSH32 0x8C379A000000000000000000000000000000000000000000000000000000000 DUP2 MSTORE PUSH1 0x4 ADD PUSH2 0x604 SWAP1 PUSH2 0x14D9 JUMP JUMPDEST PUSH1 0x40 MLOAD DUP1 SWAP2 SUB SWAP1 REVERT JUMPDEST PUSH0 PUSH0 SWAP1 POP PUSH0 PUSH0 SWAP1 POP JUMPDEST PUSH1 0x2 DUP1 SLOAD SWAP1 POP DUP2 LT ISZERO PUSH2 0x6AD JUMPI DUP5 PUSH20 0xFFFFFFFFFFFFFFFFFFFFFFFFFFFFFFFFFFFFFFFF AND PUSH1 0x2 DUP3 DUP2 SLOAD DUP2 LT PUSH2 0x64E JUMPI PUSH2 0x64D PUSH2 0xF17 JUMP JUMPDEST JUMPDEST SWAP1 PUSH0 MSTORE PUSH1 0x20 PUSH0 KECCAK256 SWAP1 PUSH1 0x3 MUL ADD PUSH0 ADD PUSH0 SWAP1 SLOAD SWAP1 PUSH2 0x100 EXP SWAP1 DIV PUSH20 0xFFFFFFFFFFFFFFFFFFFFFFFFFFFFFFFFFFFFFFFF AND PUSH20 0xFFFFFFFFFFFFFFFFFFFFFFFFFFFFFFFFFFFFFFFF AND SUB PUSH2 0x6A0 JUMPI PUSH1 0x1 SWAP2 POP PUSH2 0x6AD JUMP JUMPDEST DUP1 DUP1 PUSH1 0x1 ADD SWAP2 POP POP PUSH2 0x616 JUMP JUMPDEST POP PUSH0 ISZERO ISZERO DUP2 ISZERO ISZERO SUB PUSH2 0x795 JUMPI PUSH1 0x2 PUSH1 0x40 MLOAD DUP1 PUSH1 0x60 ADD PUSH1 0x40 MSTORE DUP1 DUP7 PUSH20 0xFFFFFFFFFFFFFFFFFFFFFFFFFFFFFFFFFFFFFFFF AND DUP2 MSTORE PUSH1 0x20 ADD DUP6 DUP2 MSTORE PUSH1 0x20 ADD DUP5 DUP2 MSTORE POP SWAP1 DUP1 PUSH1 0x1 DUP2 SLOAD ADD DUP1 DUP3 SSTORE DUP1 SWAP2 POP POP PUSH1 0x1 SWAP1 SUB SWAP1 PUSH0 MSTORE PUSH1 0x20 PUSH0 KECCAK256 SWAP1 PUSH1 0x3 MUL ADD PUSH0 SWAP1 SWAP2 SWAP1 SWAP2 SWAP1 SWAP2 POP PUSH0 DUP3 ADD MLOAD DUP2 PUSH0 ADD PUSH0 PUSH2 0x100 EXP DUP2 SLOAD DUP2 PUSH20 0xFFFFFFFFFFFFFFFFFFFFFFFFFFFFFFFFFFFFFFFF MUL NOT AND SWAP1 DUP4 PUSH20 0xFFFFFFFFFFFFFFFFFFFFFFFFFFFFFFFFFFFFFFFF AND MUL OR SWAP1 SSTORE POP PUSH1 0x20 DUP3 ADD MLOAD DUP2 PUSH1 0x1 ADD SWAP1 DUP2 PUSH2 0x76B SWAP2 SWAP1 PUSH2 0x14F7 JUMP JUMPDEST POP PUSH1 0x40 DUP3 ADD MLOAD DUP2 PUSH1 0x2 ADD SSTORE POP POP DUP2 PUSH1 0x1 PUSH0 DUP3 DUP3 SLOAD PUSH2 0x789 SWAP2 SWAP1 PUSH2 0xFA4 JUMP JUMPDEST SWAP3 POP POP DUP2 SWAP1 SSTORE POP PUSH2 0x7D0 JUMP JUMPDEST PUSH1 0x40 MLOAD PUSH32 0x8C379A000000000000000000000000000000000000000000000000000000000 DUP2 MSTORE PUSH1 0x4 ADD PUSH2 0x7C7 SWAP1 PUSH2 0x1610 JUMP JUMPDEST PUSH1 0x40 MLOAD DUP1 SWAP2 SUB SWAP1 REVERT JUMPDEST POP POP POP POP JUMP JUMPDEST PUSH1 0x60 PUSH1 0x2 DUP1 SLOAD DUP1 PUSH1 0x20 MUL PUSH1 0x20 ADD PUSH1 0x40 MLOAD SWAP1 DUP2 ADD PUSH1 0x40 MSTORE DUP1 SWAP3 SWAP2 SWAP1 DUP2 DUP2 MSTORE PUSH1 0x20 ADD PUSH0 SWAP1 JUMPDEST DUP3 DUP3 LT ISZERO PUSH2 0x917 JUMPI DUP4 DUP3 SWAP1 PUSH0 MSTORE PUSH1 0x20 PUSH0 KECCAK256 SWAP1 PUSH1 0x3 MUL ADD PUSH1 0x40 MLOAD DUP1 PUSH1 0x60 ADD PUSH1 0x40 MSTORE SWAP1 DUP2 PUSH0 DUP3 ADD PUSH0 SWAP1 SLOAD SWAP1 PUSH2 0x100 EXP SWAP1 DIV PUSH20 0xFFFFFFFFFFFFFFFFFFFFFFFFFFFFFFFFFFFFFFFF AND PUSH20 0xFFFFFFFFFFFFFFFFFFFFFFFFFFFFFFFFFFFFFFFF AND PUSH20 0xFFFFFFFFFFFFFFFFFFFFFFFFFFFFFFFFFFFFFFFF AND DUP2 MSTORE PUSH1 0x20 ADD PUSH1 0x1 DUP3 ADD DUP1 SLOAD PUSH2 0x87E SWAP1 PUSH2 0x1004 JUMP JUMPDEST DUP1 PUSH1 0x1F ADD PUSH1 0x20 DUP1 SWAP2 DIV MUL PUSH1 0x20 ADD PUSH1 0x40 MLOAD SWAP1 DUP2 ADD PUSH1 0x40 MSTORE DUP1 SWAP3 SWAP2 SWAP1 DUP2 DUP2 MSTORE PUSH1 0x20 ADD DUP3 DUP1 SLOAD PUSH2 0x8AA SWAP1 PUSH2 0x1004 JUMP JUMPDEST DUP1 ISZERO PUSH2 0x8F5 JUMPI DUP1 PUSH1 0x1F LT PUSH2 0x8CC JUMPI PUSH2 0x100 DUP1 DUP4 SLOAD DIV MUL DUP4 MSTORE SWAP2 PUSH1 0x20 ADD SWAP2 PUSH2 0x8F5 JUMP JUMPDEST DUP3 ADD SWAP2 SWAP1 PUSH0 MSTORE PUSH1 0x20 PUSH0 KECCAK256 SWAP1 JUMPDEST DUP2 SLOAD DUP2 MSTORE SWAP1 PUSH1 0x1 ADD SWAP1 PUSH1 0x20 ADD DUP1 DUP4 GT PUSH2 0x8D8 JUMPI DUP3 SWAP1 SUB PUSH1 0x1F AND DUP3 ADD SWAP2 JUMPDEST POP POP POP POP POP DUP2 MSTORE PUSH1 0x20 ADD PUSH1 0x2 DUP3 ADD SLOAD DUP2 MSTORE POP POP DUP2 MSTORE PUSH1 0x20 ADD SWAP1 PUSH1 0x1 ADD SWAP1 PUSH2 0x7F9 JUMP JUMPDEST POP POP POP POP SWAP1 POP SWAP1 JUMP JUMPDEST PUSH0 DUP3 PUSH20 0xFFFFFFFFFFFFFFFFFFFFFFFFFFFFFFFFFFFFFFFF AND DUP3 PUSH1 0x40 MLOAD PUSH2 0x945 SWAP1 PUSH2 0x165B JUMP JUMPDEST PUSH0 PUSH1 0x40 MLOAD DUP1 DUP4 SUB DUP2 DUP6 DUP8 GAS CALL SWAP3 POP POP POP RETURNDATASIZE DUP1 PUSH0 DUP2 EQ PUSH2 0x97F JUMPI PUSH1 0x40 MLOAD SWAP2 POP PUSH1 0x1F NOT PUSH1 0x3F RETURNDATASIZE ADD AND DUP3 ADD PUSH1 0x40 MSTORE RETURNDATASIZE DUP3 MSTORE RETURNDATASIZE PUSH0 PUSH1 0x20 DUP5 ADD RETURNDATACOPY PUSH2 0x984 JUMP JUMPDEST PUSH1 0x60 SWAP2 POP JUMPDEST POP POP SWAP1 POP DUP1 PUSH2 0x9C8 JUMPI PUSH1 0x40 MLOAD PUSH32 0x8C379A000000000000000000000000000000000000000000000000000000000 DUP2 MSTORE PUSH1 0x4 ADD PUSH2 0x9BF SWAP1 PUSH2 0x16B9 JUMP JUMPDEST PUSH1 0x40 MLOAD DUP1 SWAP2 SUB SWAP1 REVERT JUMPDEST POP POP POP JUMP JUMPDEST POP DUP1 SLOAD PUSH2 0x9D9 SWAP1 PUSH2 0x1004 JUMP JUMPDEST PUSH0 DUP3 SSTORE DUP1 PUSH1 0x1F LT PUSH2 0x9EA JUMPI POP PUSH2 0xA07 JUMP JUMPDEST PUSH1 0x1F ADD PUSH1 0x20 SWAP1 DIV SWAP1 PUSH0 MSTORE PUSH1 0x20 PUSH0 KECCAK256 SWAP1 DUP2 ADD SWAP1 PUSH2 0xA06 SWAP2 SWAP1 PUSH2 0xA0A JUMP JUMPDEST JUMPDEST POP JUMP JUMPDEST JUMPDEST DUP1 DUP3 GT ISZERO PUSH2 0xA21 JUMPI PUSH0 DUP2 PUSH0 SWAP1 SSTORE POP PUSH1 0x1 ADD PUSH2 0xA0B JUMP JUMPDEST POP SWAP1 JUMP JUMPDEST PUSH0 DUP2 SWAP1 POP SWAP2 SWAP1 POP JUMP JUMPDEST PUSH2 0xA37 DUP2 PUSH2 0xA25 JUMP JUMPDEST DUP3 MSTORE POP POP JUMP JUMPDEST PUSH0 PUSH1 0x20 DUP3 ADD SWAP1 POP PUSH2 0xA50 PUSH0 DUP4 ADD DUP5 PUSH2 0xA2E JUMP JUMPDEST SWAP3 SWAP2 POP POP JUMP JUMPDEST PUSH0 PUSH1 0x40 MLOAD SWAP1 POP SWAP1 JUMP JUMPDEST PUSH0 PUSH0 REVERT JUMPDEST PUSH0 PUSH0 REVERT JUMPDEST PUSH0 PUSH20 0xFFFFFFFFFFFFFFFFFFFFFFFFFFFFFFFFFFFFFFFF DUP3 AND SWAP1 POP SWAP2 SWAP1 POP JUMP JUMPDEST PUSH0 PUSH2 0xA90 DUP3 PUSH2 0xA67 JUMP JUMPDEST SWAP1 POP SWAP2 SWAP1 POP JUMP JUMPDEST PUSH2 0xAA0 DUP2 PUSH2 0xA86 JUMP JUMPDEST DUP2 EQ PUSH2 0xAAA JUMPI PUSH0 PUSH0 REVERT JUMPDEST POP JUMP JUMPDEST PUSH0 DUP2 CALLDATALOAD SWAP1 POP PUSH2 0xABB DUP2 PUSH2 0xA97 JUMP JUMPDEST SWAP3 SWAP2 POP POP JUMP JUMPDEST PUSH0 PUSH1 0x20 DUP3 DUP5 SUB SLT ISZERO PUSH2 0xAD6 JUMPI PUSH2 0xAD5 PUSH2 0xA5F JUMP JUMPDEST JUMPDEST PUSH0 PUSH2 0xAE3 DUP5 DUP3 DUP6 ADD PUSH2 0xAAD JUMP JUMPDEST SWAP2 POP POP SWAP3 SWAP2 POP POP JUMP JUMPDEST PUSH0 PUSH2 0xAF6 DUP3 PUSH2 0xA67 JUMP JUMPDEST SWAP1 POP SWAP2 SWAP1 POP JUMP JUMPDEST PUSH2 0xB06 DUP2 PUSH2 0xAEC JUMP JUMPDEST DUP2 EQ PUSH2 0xB10 JUMPI PUSH0 PUSH0 REVERT JUMPDEST POP JUMP JUMPDEST PUSH0 DUP2 CALLDATALOAD SWAP1 POP PUSH2 0xB21 DUP2 PUSH2 0xAFD JUMP JUMPDEST SWAP3 SWAP2 POP POP JUMP JUMPDEST PUSH0 PUSH0 REVERT JUMPDEST PUSH0 PUSH0 REVERT JUMPDEST PUSH0 PUSH1 0x1F NOT PUSH1 0x1F DUP4 ADD AND SWAP1 POP SWAP2 SWAP1 POP JUMP JUMPDEST PUSH32 0x4E487B7100000000000000000000000000000000000000000000000000000000 PUSH0 MSTORE PUSH1 0x41 PUSH1 0x4 MSTORE PUSH1 0x24 PUSH0 REVERT JUMPDEST PUSH2 0xB75 DUP3 PUSH2 0xB2F JUMP JUMPDEST DUP2 ADD DUP2 DUP2 LT PUSH8 0xFFFFFFFFFFFFFFFF DUP3 GT OR ISZERO PUSH2 0xB94 JUMPI PUSH2 0xB93 PUSH2 0xB3F JUMP JUMPDEST JUMPDEST DUP1 PUSH1 0x40 MSTORE POP POP POP JUMP JUMPDEST PUSH0 PUSH2 0xBA6 PUSH2 0xA56 JUMP JUMPDEST SWAP1 POP PUSH2 0xBB2 DUP3 DUP3 PUSH2 0xB6C JUMP JUMPDEST SWAP2 SWAP1 POP JUMP JUMPDEST PUSH0 PUSH8 0xFFFFFFFFFFFFFFFF DUP3 GT ISZERO PUSH2 0xBD1 JUMPI PUSH2 0xBD0 PUSH2 0xB3F JUMP JUMPDEST JUMPDEST PUSH2 0xBDA DUP3 PUSH2 0xB2F JUMP JUMPDEST SWAP1 POP PUSH1 0x20 DUP2 ADD SWAP1 POP SWAP2 SWAP1 POP JUMP JUMPDEST DUP3 DUP2 DUP4 CALLDATACOPY PUSH0 DUP4 DUP4 ADD MSTORE POP POP POP JUMP JUMPDEST PUSH0 PUSH2 0xC07 PUSH2 0xC02 DUP5 PUSH2 0xBB7 JUMP JUMPDEST PUSH2 0xB9D JUMP JUMPDEST SWAP1 POP DUP3 DUP2 MSTORE PUSH1 0x20 DUP2 ADD DUP5 DUP5 DUP5 ADD GT ISZERO PUSH2 0xC23 JUMPI PUSH2 0xC22 PUSH2 0xB2B JUMP JUMPDEST JUMPDEST PUSH2 0xC2E DUP5 DUP3 DUP6 PUSH2 0xBE7 JUMP JUMPDEST POP SWAP4 SWAP3 POP POP POP JUMP JUMPDEST PUSH0 DUP3 PUSH1 0x1F DUP4 ADD SLT PUSH2 0xC4A JUMPI PUSH2 0xC49 PUSH2 0xB27 JUMP JUMPDEST JUMPDEST DUP2 CALLDATALOAD PUSH2 0xC5A DUP5 DUP3 PUSH1 0x20 DUP7 ADD PUSH2 0xBF5 JUMP JUMPDEST SWAP2 POP POP SWAP3 SWAP2 POP POP JUMP JUMPDEST PUSH2 0xC6C DUP2 PUSH2 0xA25 JUMP JUMPDEST DUP2 EQ PUSH2 0xC76 JUMPI PUSH0 PUSH0 REVERT JUMPDEST POP JUMP JUMPDEST PUSH0 DUP2 CALLDATALOAD SWAP1 POP PUSH2 0xC87 DUP2 PUSH2 0xC63 JUMP JUMPDEST SWAP3 SWAP2 POP POP JUMP JUMPDEST PUSH0 PUSH0 PUSH0 PUSH1 0x60 DUP5 DUP7 SUB SLT ISZERO PUSH2 0xCA4 JUMPI PUSH2 0xCA3 PUSH2 0xA5F JUMP JUMPDEST JUMPDEST PUSH0 PUSH2 0xCB1 DUP7 DUP3 DUP8 ADD PUSH2 0xB13 JUMP JUMPDEST SWAP4 POP POP PUSH1 0x20 DUP5 ADD CALLDATALOAD PUSH8 0xFFFFFFFFFFFFFFFF DUP2 GT ISZERO PUSH2 0xCD2 JUMPI PUSH2 0xCD1 PUSH2 0xA63 JUMP JUMPDEST JUMPDEST PUSH2 0xCDE DUP7 DUP3 DUP8 ADD PUSH2 0xC36 JUMP JUMPDEST SWAP3 POP POP PUSH1 0x40 PUSH2 0xCEF DUP7 DUP3 DUP8 ADD PUSH2 0xC79 JUMP JUMPDEST SWAP2 POP POP SWAP3 POP SWAP3 POP SWAP3 JUMP JUMPDEST PUSH0 DUP2 MLOAD SWAP1 POP SWAP2 SWAP1 POP JUMP JUMPDEST PUSH0 DUP3 DUP3 MSTORE PUSH1 0x20 DUP3 ADD SWAP1 POP SWAP3 SWAP2 POP POP JUMP JUMPDEST PUSH0 DUP2 SWAP1 POP PUSH1 0x20 DUP3 ADD SWAP1 POP SWAP2 SWAP1 POP JUMP JUMPDEST PUSH2 0xD2B DUP2 PUSH2 0xAEC JUMP JUMPDEST DUP3 MSTORE POP POP JUMP JUMPDEST PUSH0 DUP2 MLOAD SWAP1 POP SWAP2 SWAP1 POP JUMP JUMPDEST PUSH0 DUP3 DUP3 MSTORE PUSH1 0x20 DUP3 ADD SWAP1 POP SWAP3 SWAP2 POP POP JUMP JUMPDEST DUP3 DUP2 DUP4 MCOPY PUSH0 DUP4 DUP4 ADD MSTORE POP POP POP JUMP JUMPDEST PUSH0 PUSH2 0xD63 DUP3 PUSH2 0xD31 JUMP JUMPDEST PUSH2 0xD6D DUP2 DUP6 PUSH2 0xD3B JUMP JUMPDEST SWAP4 POP PUSH2 0xD7D DUP2 DUP6 PUSH1 0x20 DUP7 ADD PUSH2 0xD4B JUMP JUMPDEST PUSH2 0xD86 DUP2 PUSH2 0xB2F JUMP JUMPDEST DUP5 ADD SWAP2 POP POP SWAP3 SWAP2 POP POP JUMP JUMPDEST PUSH2 0xD9A DUP2 PUSH2 0xA25 JUMP JUMPDEST DUP3 MSTORE POP POP JUMP JUMPDEST PUSH0 PUSH1 0x60 DUP4 ADD PUSH0 DUP4 ADD MLOAD PUSH2 0xDB5 PUSH0 DUP7 ADD DUP3 PUSH2 0xD22 JUMP JUMPDEST POP PUSH1 0x20 DUP4 ADD MLOAD DUP5 DUP3 SUB PUSH1 0x20 DUP7 ADD MSTORE PUSH2 0xDCD DUP3 DUP3 PUSH2 0xD59 JUMP JUMPDEST SWAP2 POP POP PUSH1 0x40 DUP4 ADD MLOAD PUSH2 0xDE2 PUSH1 0x40 DUP7 ADD DUP3 PUSH2 0xD91 JUMP JUMPDEST POP DUP1 SWAP2 POP POP SWAP3 SWAP2 POP POP JUMP JUMPDEST PUSH0 PUSH2 0xDF8 DUP4 DUP4 PUSH2 0xDA0 JUMP JUMPDEST SWAP1 POP SWAP3 SWAP2 POP POP JUMP JUMPDEST PUSH0 PUSH1 0x20 DUP3 ADD SWAP1 POP SWAP2 SWAP1 POP JUMP JUMPDEST PUSH0 PUSH2 0xE16 DUP3 PUSH2 0xCF9 JUMP JUMPDEST PUSH2 0xE20 DUP2 DUP6 PUSH2 0xD03 JUMP JUMPDEST SWAP4 POP DUP4 PUSH1 0x20 DUP3 MUL DUP6 ADD PUSH2 0xE32 DUP6 PUSH2 0xD13 JUMP JUMPDEST DUP1 PUSH0 JUMPDEST DUP6 DUP2 LT ISZERO PUSH2 0xE6D JUMPI DUP5 DUP5 SUB DUP10 MSTORE DUP2 MLOAD PUSH2 0xE4E DUP6 DUP3 PUSH2 0xDED JUMP JUMPDEST SWAP5 POP PUSH2 0xE59 DUP4 PUSH2 0xE00 JUMP JUMPDEST SWAP3 POP PUSH1 0x20 DUP11 ADD SWAP10 POP POP PUSH1 0x1 DUP2 ADD SWAP1 POP PUSH2 0xE35 JUMP JUMPDEST POP DUP3 SWAP8 POP DUP8 SWAP6 POP POP POP POP POP POP SWAP3 SWAP2 POP POP JUMP JUMPDEST PUSH0 PUSH1 0x20 DUP3 ADD SWAP1 POP DUP2 DUP2 SUB PUSH0 DUP4 ADD MSTORE PUSH2 0xE97 DUP2 DUP5 PUSH2 0xE0C JUMP JUMPDEST SWAP1 POP SWAP3 SWAP2 POP POP JUMP JUMPDEST PUSH0 DUP3 DUP3 MSTORE PUSH1 0x20 DUP3 ADD SWAP1 POP SWAP3 SWAP2 POP POP JUMP JUMPDEST PUSH32 0x4F6E6C79206F776E65722063616E2063616C6C00000000000000000000000000 PUSH0 DUP3 ADD MSTORE POP JUMP JUMPDEST PUSH0 PUSH2 0xEE3 PUSH1 0x13 DUP4 PUSH2 0xE9F JUMP JUMPDEST SWAP2 POP PUSH2 0xEEE DUP3 PUSH2 0xEAF JUMP JUMPDEST PUSH1 0x20 DUP3 ADD SWAP1 POP SWAP2 SWAP1 POP JUMP JUMPDEST PUSH0 PUSH1 0x20 DUP3 ADD SWAP1 POP DUP2 DUP2 SUB PUSH0 DUP4 ADD MSTORE PUSH2 0xF10 DUP2 PUSH2 0xED7 JUMP JUMPDEST SWAP1 POP SWAP2 SWAP1 POP JUMP JUMPDEST PUSH32 0x4E487B7100000000000000000000000000000000000000000000000000000000 PUSH0 MSTORE PUSH1 0x32 PUSH1 0x4 MSTORE PUSH1 0x24 PUSH0 REVERT JUMPDEST PUSH32 0x4E487B7100000000000000000000000000000000000000000000000000000000 PUSH0 MSTORE PUSH1 0x11 PUSH1 0x4 MSTORE PUSH1 0x24 PUSH0 REVERT JUMPDEST PUSH0 PUSH2 0xF7B DUP3 PUSH2 0xA25 JUMP JUMPDEST SWAP2 POP PUSH2 0xF86 DUP4 PUSH2 0xA25 JUMP JUMPDEST SWAP3 POP DUP3 DUP3 SUB SWAP1 POP DUP2 DUP2 GT ISZERO PUSH2 0xF9E JUMPI PUSH2 0xF9D PUSH2 0xF44 JUMP JUMPDEST JUMPDEST SWAP3 SWAP2 POP POP JUMP JUMPDEST PUSH0 PUSH2 0xFAE DUP3 PUSH2 0xA25 JUMP JUMPDEST SWAP2 POP PUSH2 0xFB9 DUP4 PUSH2 0xA25 JUMP JUMPDEST SWAP3 POP DUP3 DUP3 ADD SWAP1 POP DUP1 DUP3 GT ISZERO PUSH2 0xFD1 JUMPI PUSH2 0xFD0 PUSH2 0xF44 JUMP JUMPDEST JUMPDEST SWAP3 SWAP2 POP POP JUMP JUMPDEST PUSH32 0x4E487B7100000000000000000000000000000000000000000000000000000000 PUSH0 MSTORE PUSH1 0x22 PUSH1 0x4 MSTORE PUSH1 0x24 PUSH0 REVERT JUMPDEST PUSH0 PUSH1 0x2 DUP3 DIV SWAP1 POP PUSH1 0x1 DUP3 AND DUP1 PUSH2 0x101B JUMPI PUSH1 0x7F DUP3 AND SWAP2 POP JUMPDEST PUSH1 0x20 DUP3 LT DUP2 SUB PUSH2 0x102E JUMPI PUSH2 0x102D PUSH2 0xFD7 JUMP JUMPDEST JUMPDEST POP SWAP2 SWAP1 POP JUMP JUMPDEST PUSH0 DUP2 SLOAD SWAP1 POP PUSH2 0x1042 DUP2 PUSH2 0x1004 JUMP JUMPDEST SWAP1 POP SWAP2 SWAP1 POP JUMP JUMPDEST PUSH0 DUP2 SWAP1 POP DUP2 PUSH0 MSTORE PUSH1 0x20 PUSH0 KECCAK256 SWAP1 POP SWAP2 SWAP1 POP JUMP JUMPDEST PUSH0 PUSH1 0x20 PUSH1 0x1F DUP4 ADD DIV SWAP1 POP SWAP2 SWAP1 POP JUMP JUMPDEST PUSH0 DUP3 DUP3 SHL SWAP1 POP SWAP3 SWAP2 POP POP JUMP JUMPDEST PUSH0 PUSH1 0x8 DUP4 MUL PUSH2 0x10A5 PUSH32 0xFFFFFFFFFFFFFFFFFFFFFFFFFFFFFFFFFFFFFFFFFFFFFFFFFFFFFFFFFFFFFFFF DUP3 PUSH2 0x106A JUMP JUMPDEST PUSH2 0x10AF DUP7 DUP4 PUSH2 0x106A JUMP JUMPDEST SWAP6 POP DUP1 NOT DUP5 AND SWAP4 POP DUP1 DUP7 AND DUP5 OR SWAP3 POP POP POP SWAP4 SWAP3 POP POP POP JUMP JUMPDEST PUSH0 DUP2 SWAP1 POP SWAP2 SWAP1 POP JUMP JUMPDEST PUSH0 PUSH2 0x10EA PUSH2 0x10E5 PUSH2 0x10E0 DUP5 PUSH2 0xA25 JUMP JUMPDEST PUSH2 0x10C7 JUMP JUMPDEST PUSH2 0xA25 JUMP JUMPDEST SWAP1 POP SWAP2 SWAP1 POP JUMP JUMPDEST PUSH0 DUP2 SWAP1 POP SWAP2 SWAP1 POP JUMP JUMPDEST PUSH2 0x1103 DUP4 PUSH2 0x10D0 JUMP JUMPDEST PUSH2 0x1117 PUSH2 0x110F DUP3 PUSH2 0x10F1 JUMP JUMPDEST DUP5 DUP5 SLOAD PUSH2 0x1076 JUMP JUMPDEST DUP3 SSTORE POP POP POP POP JUMP JUMPDEST PUSH0 PUSH0 SWAP1 POP SWAP1 JUMP JUMPDEST PUSH2 0x112E PUSH2 0x111F JUMP JUMPDEST PUSH2 0x1139 DUP2 DUP5 DUP5 PUSH2 0x10FA JUMP JUMPDEST POP POP POP JUMP JUMPDEST JUMPDEST DUP2 DUP2 LT ISZERO PUSH2 0x115C JUMPI PUSH2 0x1151 PUSH0 DUP3 PUSH2 0x1126 JUMP JUMPDEST PUSH1 0x1 DUP2 ADD SWAP1 POP PUSH2 0x113F JUMP JUMPDEST POP POP JUMP JUMPDEST PUSH1 0x1F DUP3 GT ISZERO PUSH2 0x11A1 JUMPI PUSH2 0x1172 DUP2 PUSH2 0x1049 JUMP JUMPDEST PUSH2 0x117B DUP5 PUSH2 0x105B JUMP JUMPDEST DUP2 ADD PUSH1 0x20 DUP6 LT ISZERO PUSH2 0x118A JUMPI DUP2 SWAP1 POP JUMPDEST PUSH2 0x119E PUSH2 0x1196 DUP6 PUSH2 0x105B JUMP JUMPDEST DUP4 ADD DUP3 PUSH2 0x113E JUMP JUMPDEST POP POP JUMPDEST POP POP POP JUMP JUMPDEST PUSH0 DUP3 DUP3 SHR SWAP1 POP SWAP3 SWAP2 POP POP JUMP JUMPDEST PUSH0 PUSH2 0x11C1 PUSH0 NOT DUP5 PUSH1 0x8 MUL PUSH2 0x11A6 JUMP JUMPDEST NOT DUP1 DUP4 AND SWAP2 POP POP SWAP3 SWAP2 POP POP JUMP JUMPDEST PUSH0 PUSH2 0x11D9 DUP4 DUP4 PUSH2 0x11B2 JUMP JUMPDEST SWAP2 POP DUP3 PUSH1 0x2 MUL DUP3 OR SWAP1 POP SWAP3 SWAP2 POP POP JUMP JUMPDEST DUP2 DUP2 SUB PUSH2 0x11F7 JUMPI POP POP PUSH2 0x12CC JUMP JUMPDEST PUSH2 0x1200 DUP3 PUSH2 0x1034 JUMP JUMPDEST PUSH8 0xFFFFFFFFFFFFFFFF DUP2 GT ISZERO PUSH2 0x1219 JUMPI PUSH2 0x1218 PUSH2 0xB3F JUMP JUMPDEST JUMPDEST PUSH2 0x1223 DUP3 SLOAD PUSH2 0x1004 JUMP JUMPDEST PUSH2 0x122E DUP3 DUP3 DUP6 PUSH2 0x1160 JUMP JUMPDEST PUSH0 PUSH1 0x1F DUP4 GT PUSH1 0x1 DUP2 EQ PUSH2 0x125B JUMPI PUSH0 DUP5 ISZERO PUSH2 0x1249 JUMPI DUP3 DUP8 ADD SLOAD SWAP1 POP JUMPDEST PUSH2 0x1253 DUP6 DUP3 PUSH2 0x11CE JUMP JUMPDEST DUP7 SSTORE POP PUSH2 0x12C5 JUMP JUMPDEST PUSH1 0x1F NOT DUP5 AND PUSH2 0x1269 DUP8 PUSH2 0x1049 JUMP JUMPDEST SWAP7 POP PUSH2 0x1274 DUP7 PUSH2 0x1049 JUMP JUMPDEST PUSH0 JUMPDEST DUP3 DUP2 LT ISZERO PUSH2 0x129B JUMPI DUP5 DUP10 ADD SLOAD DUP3 SSTORE PUSH1 0x1 DUP3 ADD SWAP2 POP PUSH1 0x1 DUP6 ADD SWAP5 POP PUSH1 0x20 DUP2 ADD SWAP1 POP PUSH2 0x1276 JUMP JUMPDEST DUP7 DUP4 LT ISZERO PUSH2 0x12B8 JUMPI DUP5 DUP10 ADD SLOAD PUSH2 0x12B4 PUSH1 0x1F DUP10 AND DUP3 PUSH2 0x11B2 JUMP JUMPDEST DUP4 SSTORE POP JUMPDEST PUSH1 0x1 PUSH1 0x2 DUP9 MUL ADD DUP9 SSTORE POP POP POP JUMPDEST POP POP POP POP POP POP JUMPDEST JUMP JUMPDEST PUSH32 0x4E487B7100000000000000000000000000000000000000000000000000000000 PUSH0 MSTORE PUSH1 0x31 PUSH1 0x4 MSTORE PUSH1 0x24 PUSH0 REVERT JUMPDEST PUSH32 0x4E6F204D6F6E6579000000000000000000000000000000000000000000000000 PUSH0 DUP3 ADD MSTORE POP JUMP JUMPDEST PUSH0 PUSH2 0x132F PUSH1 0x8 DUP4 PUSH2 0xE9F JUMP JUMPDEST SWAP2 POP PUSH2 0x133A DUP3 PUSH2 0x12FB JUMP JUMPDEST PUSH1 0x20 DUP3 ADD SWAP1 POP SWAP2 SWAP1 POP JUMP JUMPDEST PUSH0 PUSH1 0x20 DUP3 ADD SWAP1 POP DUP2 DUP2 SUB PUSH0 DUP4 ADD MSTORE PUSH2 0x135C DUP2 PUSH2 0x1323 JUMP JUMPDEST SWAP1 POP SWAP2 SWAP1 POP JUMP JUMPDEST PUSH32 0x4E6F205761697472657373206164646564000000000000000000000000000000 PUSH0 DUP3 ADD MSTORE POP JUMP JUMPDEST PUSH0 PUSH2 0x1397 PUSH1 0x11 DUP4 PUSH2 0xE9F JUMP JUMPDEST SWAP2 POP PUSH2 0x13A2 DUP3 PUSH2 0x1363 JUMP JUMPDEST PUSH1 0x20 DUP3 ADD SWAP1 POP SWAP2 SWAP1 POP JUMP JUMPDEST PUSH0 PUSH1 0x20 DUP3 ADD SWAP1 POP DUP2 DUP2 SUB PUSH0 DUP4 ADD MSTORE PUSH2 0x13C4 DUP2 PUSH2 0x138B JUMP JUMPDEST SWAP1 POP SWAP2 SWAP1 POP JUMP JUMPDEST PUSH0 PUSH2 0x13D5 DUP3 PUSH2 0xA25 JUMP JUMPDEST SWAP2 POP PUSH2 0x13E0 DUP4 PUSH2 0xA25 JUMP JUMPDEST SWAP3 POP DUP3 DUP3 MUL PUSH2 0x13EE DUP2 PUSH2 0xA25 JUMP JUMPDEST SWAP2 POP DUP3 DUP3 DIV DUP5 EQ DUP4 ISZERO OR PUSH2 0x1405 JUMPI PUSH2 0x1404 PUSH2 0xF44 JUMP JUMPDEST JUMPDEST POP SWAP3 SWAP2 POP POP JUMP JUMPDEST PUSH32 0x4E487B7100000000000000000000000000000000000000000000000000000000 PUSH0 MSTORE PUSH1 0x12 PUSH1 0x4 MSTORE PUSH1 0x24 PUSH0 REVERT JUMPDEST PUSH0 PUSH2 0x1443 DUP3 PUSH2 0xA25 JUMP JUMPDEST SWAP2 POP PUSH2 0x144E DUP4 PUSH2 0xA25 JUMP JUMPDEST SWAP3 POP DUP3 PUSH2 0x145E JUMPI PUSH2 0x145D PUSH2 0x140C JUMP JUMPDEST JUMPDEST DUP3 DUP3 DIV SWAP1 POP SWAP3 SWAP2 POP POP JUMP JUMPDEST PUSH32 0x546F74616C2070657263656E746167652063616E6E6F74206578636565642031 PUSH0 DUP3 ADD MSTORE PUSH32 0x3030250000000000000000000000000000000000000000000000000000000000 PUSH1 0x20 DUP3 ADD MSTORE POP JUMP JUMPDEST PUSH0 PUSH2 0x14C3 PUSH1 0x23 DUP4 PUSH2 0xE9F JUMP JUMPDEST SWAP2 POP PUSH2 0x14CE DUP3 PUSH2 0x1469 JUMP JUMPDEST PUSH1 0x40 DUP3 ADD SWAP1 POP SWAP2 SWAP1 POP JUMP JUMPDEST PUSH0 PUSH1 0x20 DUP3 ADD SWAP1 POP DUP2 DUP2 SUB PUSH0 DUP4 ADD MSTORE PUSH2 0x14F0 DUP2 PUSH2 0x14B7 JUMP JUMPDEST SWAP1 POP SWAP2 SWAP1 POP JUMP JUMPDEST PUSH2 0x1500 DUP3 PUSH2 0xD31 JUMP JUMPDEST PUSH8 0xFFFFFFFFFFFFFFFF DUP2 GT ISZERO PUSH2 0x1519 JUMPI PUSH2 0x1518 PUSH2 0xB3F JUMP JUMPDEST JUMPDEST PUSH2 0x1523 DUP3 SLOAD PUSH2 0x1004 JUMP JUMPDEST PUSH2 0x152E DUP3 DUP3 DUP6 PUSH2 0x1160 JUMP JUMPDEST PUSH0 PUSH1 0x20 SWAP1 POP PUSH1 0x1F DUP4 GT PUSH1 0x1 DUP2 EQ PUSH2 0x155F JUMPI PUSH0 DUP5 ISZERO PUSH2 0x154D JUMPI DUP3 DUP8 ADD MLOAD SWAP1 POP JUMPDEST PUSH2 0x1557 DUP6 DUP3 PUSH2 0x11CE JUMP JUMPDEST DUP7 SSTORE POP PUSH2 0x15BE JUMP JUMPDEST PUSH1 0x1F NOT DUP5 AND PUSH2 0x156D DUP7 PUSH2 0x1049 JUMP JUMPDEST PUSH0 JUMPDEST DUP3 DUP2 LT ISZERO PUSH2 0x1594 JUMPI DUP5 DUP10 ADD MLOAD DUP3 SSTORE PUSH1 0x1 DUP3 ADD SWAP2 POP PUSH1 0x20 DUP6 ADD SWAP5 POP PUSH1 0x20 DUP2 ADD SWAP1 POP PUSH2 0x156F JUMP JUMPDEST DUP7 DUP4 LT ISZERO PUSH2 0x15B1 JUMPI DUP5 DUP10 ADD MLOAD PUSH2 0x15AD PUSH1 0x1F DUP10 AND DUP3 PUSH2 0x11B2 JUMP JUMPDEST DUP4 SSTORE POP JUMPDEST PUSH1 0x1 PUSH1 0x2 DUP9 MUL ADD DUP9 SSTORE POP POP POP JUMPDEST POP POP POP POP POP POP JUMP JUMPDEST PUSH32 0x576169747265737320616C726561647920657869737473000000000000000000 PUSH0 DUP3 ADD MSTORE POP JUMP JUMPDEST PUSH0 PUSH2 0x15FA PUSH1 0x17 DUP4 PUSH2 0xE9F JUMP JUMPDEST SWAP2 POP PUSH2 0x1605 DUP3 PUSH2 0x15C6 JUMP JUMPDEST PUSH1 0x20 DUP3 ADD SWAP1 POP SWAP2 SWAP1 POP JUMP JUMPDEST PUSH0 PUSH1 0x20 DUP3 ADD SWAP1 POP DUP2 DUP2 SUB PUSH0 DUP4 ADD MSTORE PUSH2 0x1627 DUP2 PUSH2 0x15EE JUMP JUMPDEST SWAP1 POP SWAP2 SWAP1 POP JUMP JUMPDEST PUSH0 DUP2 SWAP1 POP SWAP3 SWAP2 POP POP JUMP JUMPDEST POP JUMP JUMPDEST PUSH0 PUSH2 0x1646 PUSH0 DUP4 PUSH2 0x162E JUMP JUMPDEST SWAP2 POP PUSH2 0x1651 DUP3 PUSH2 0x1638 JUMP JUMPDEST PUSH0 DUP3 ADD SWAP1 POP SWAP2 SWAP1 POP JUMP JUMPDEST PUSH0 PUSH2 0x1665 DUP3 PUSH2 0x163B JUMP JUMPDEST SWAP2 POP DUP2 SWAP1 POP SWAP2 SWAP1 POP JUMP JUMPDEST PUSH32 0x5472616E73666572206661696C65642E00000000000000000000000000000000 PUSH0 DUP3 ADD MSTORE POP JUMP JUMPDEST PUSH0 PUSH2 0x16A3 PUSH1 0x10 DUP4 PUSH2 0xE9F JUMP JUMPDEST SWAP2 POP PUSH2 0x16AE DUP3 PUSH2 0x166F JUMP JUMPDEST PUSH1 0x20 DUP3 ADD SWAP1 POP SWAP2 SWAP1 POP JUMP JUMPDEST PUSH0 PUSH1 0x20 DUP3 ADD SWAP1 POP DUP2 DUP2 SUB PUSH0 DUP4 ADD MSTORE PUSH2 0x16D0 DUP2 PUSH2 0x1697 JUMP JUMPDEST SWAP1 POP SWAP2 SWAP1 POP JUMP INVALID LOG2 PUSH5 0x6970667358 0x22 SLT KECCAK256 JUMPF 0xA028 SWAP10 0xFC 0x26 TLOAD PUSH0 PUSH8 0xE77F702AF2950402 SWAPN 0xA1 DUP9 0xC1 STOP 0xAF 0xB3 0xBF PUSH14 0x34561ABA36964736F6C63430008 0x1F STOP CALLER "
				},
				"gasEstimates": {
					"creation": {
						"codeDepositCost": "1180200",
						"executionCost": "25489",
						"totalCost": "1205689"
					},
					"external": {
						"addWaitress(address,string,uint256)": "infinite",
						"addtips()": "141",
						"distributeBalance()": "infinite",
						"removeWaitress(address)": "infinite",
						"viewWaitress()": "infinite",
						"viewtips()": "312"
					},
					"internal": {
						"_transferFunds(address payable,uint256)": "infinite"
					}
				},
				"methodIdentifiers": {
					"addWaitress(address,string,uint256)": "b499b79a",
					"addtips()": "6e7301fd",
					"distributeBalance()": "7943da69",
					"removeWaitress(address)": "369a489d",
					"viewWaitress()": "e83a1b00",
					"viewtips()": "2a08deda"
				}
			},
			"storageLayout": {
				"storage": [
					{
						"astId": 3,
						"contract": "tipjar_edit.sol:tips",
						"label": "owner",
						"offset": 0,
						"slot": "0",
						"type": "t_address"
					},
					{
						"astId": 5,
						"contract": "tipjar_edit.sol:tips",
						"label": "totalPercent",
						"offset": 0,
						"slot": "1",
						"type": "t_uint256"
					},
					{
						"astId": 25,
						"contract": "tipjar_edit.sol:tips",
						"label": "waitress",
						"offset": 0,
						"slot": "2",
						"type": "t_array(t_struct(Waitress)21_storage)dyn_storage"
					}
				],
				"types": {
					"t_address": {
						"encoding": "inplace",
						"label": "address",
						"numberOfBytes": "20"
					},
					"t_address_payable": {
						"encoding": "inplace",
						"label": "address payable",
						"numberOfBytes": "20"
					},
					"t_array(t_struct(Waitress)21_storage)dyn_storage": {
						"base": "t_struct(Waitress)21_storage",
						"encoding": "dynamic_array",
						"label": "struct tips.Waitress[]",
						"numberOfBytes": "32"
					},
					"t_string_storage": {
						"encoding": "bytes",
						"label": "string",
						"numberOfBytes": "32"
					},
					"t_struct(Waitress)21_storage": {
						"encoding": "inplace",
						"label": "struct tips.Waitress",
						"members": [
							{
								"astId": 16,
								"contract": "tipjar_edit.sol:tips",
								"label": "walletAddress",
								"offset": 0,
								"slot": "0",
								"type": "t_address_payable"
							},
							{
								"astId": 18,
								"contract": "tipjar_edit.sol:tips",
								"label": "name",
								"offset": 0,
								"slot": "1",
								"type": "t_string_storage"
							},
							{
								"astId": 20,
								"contract": "tipjar_edit.sol:tips",
								"label": "percent",
								"offset": 0,
								"slot": "2",
								"type": "t_uint256"
							}
						],
						"numberOfBytes": "96"
					},
					"t_uint256": {
						"encoding": "inplace",
						"label": "uint256",
						"numberOfBytes": "32"
					}
				}
			},
			"userdoc": {
				"kind": "user",
				"methods": {},
				"version": 1
			}
		}
	}
}